{
	"Lottery.sol": {
		"Lottery": {
			"abi": [
				{
					"inputs": [
						{
							"internalType": "uint256",
							"name": "_itemCount",
							"type": "uint256"
						}
					],
					"stateMutability": "nonpayable",
					"type": "constructor"
				},
				{
					"anonymous": false,
					"inputs": [
						{
							"indexed": false,
							"internalType": "address",
							"name": "winner",
							"type": "address"
						},
						{
							"indexed": false,
							"internalType": "uint256",
							"name": "item",
							"type": "uint256"
						},
						{
							"indexed": false,
							"internalType": "uint256",
							"name": "lotteryNumber",
							"type": "uint256"
						}
					],
					"name": "WinnerEvent",
					"type": "event"
				},
				{
					"inputs": [
						{
							"internalType": "uint256",
							"name": "_itemCount",
							"type": "uint256"
						}
					],
					"name": "addMoreItems",
					"outputs": [],
					"stateMutability": "nonpayable",
					"type": "function"
				},
				{
					"inputs": [],
					"name": "advanceStage",
					"outputs": [],
					"stateMutability": "nonpayable",
					"type": "function"
				},
				{
					"inputs": [],
					"name": "amountOfItems",
					"outputs": [
						{
							"internalType": "uint256",
							"name": "count",
							"type": "uint256"
						}
					],
					"stateMutability": "view",
					"type": "function"
				},
				{
					"inputs": [],
					"name": "beneficiary",
					"outputs": [
						{
							"internalType": "address",
							"name": "",
							"type": "address"
						}
					],
					"stateMutability": "view",
					"type": "function"
				},
				{
					"inputs": [
						{
							"internalType": "uint256",
							"name": "_itemId",
							"type": "uint256"
						},
						{
							"internalType": "uint256",
							"name": "_count",
							"type": "uint256"
						}
					],
					"name": "bid",
					"outputs": [],
					"stateMutability": "payable",
					"type": "function"
				},
				{
					"inputs": [
						{
							"internalType": "uint256",
							"name": "",
							"type": "uint256"
						}
					],
					"name": "items",
					"outputs": [
						{
							"internalType": "uint256",
							"name": "itemId",
							"type": "uint256"
						}
					],
					"stateMutability": "view",
					"type": "function"
				},
				{
					"inputs": [],
					"name": "lotteryNumber",
					"outputs": [
						{
							"internalType": "uint256",
							"name": "",
							"type": "uint256"
						}
					],
					"stateMutability": "view",
					"type": "function"
				},
				{
					"inputs": [],
					"name": "register",
					"outputs": [],
					"stateMutability": "payable",
					"type": "function"
				},
				{
					"inputs": [],
					"name": "reset",
					"outputs": [],
					"stateMutability": "nonpayable",
					"type": "function"
				},
				{
					"inputs": [],
					"name": "revealWinners",
					"outputs": [],
					"stateMutability": "nonpayable",
					"type": "function"
				},
				{
					"inputs": [],
					"name": "stage",
					"outputs": [
						{
							"internalType": "enum Stage",
							"name": "",
							"type": "uint8"
						}
					],
					"stateMutability": "view",
					"type": "function"
				},
				{
					"inputs": [
						{
							"internalType": "address",
							"name": "",
							"type": "address"
						}
					],
					"name": "tokenDetails",
					"outputs": [
						{
							"internalType": "uint256",
							"name": "personId",
							"type": "uint256"
						},
						{
							"internalType": "address",
							"name": "addr",
							"type": "address"
						},
						{
							"internalType": "uint256",
							"name": "remainingTokens",
							"type": "uint256"
						}
					],
					"stateMutability": "view",
					"type": "function"
				},
				{
					"inputs": [
						{
							"internalType": "uint256",
							"name": "",
							"type": "uint256"
						}
					],
					"name": "winners",
					"outputs": [
						{
							"internalType": "address",
							"name": "",
							"type": "address"
						}
					],
					"stateMutability": "view",
					"type": "function"
				},
				{
					"inputs": [],
					"name": "withdraw",
					"outputs": [],
					"stateMutability": "nonpayable",
					"type": "function"
				}
			],
			"devdoc": {
				"kind": "dev",
				"methods": {},
				"version": 1
			},
			"evm": {
				"assembly": "    /* \"Lottery.sol\":293:3564  contract Lottery{... */\n  mstore(0x40, 0x80)\n    /* \"Lottery.sol\":473:474  0 */\n  0x00\n    /* \"Lottery.sol\":445:474  uint public lotteryNumber = 0 */\n  0x04\n  sstore\n    /* \"Lottery.sol\":501:511  Stage.Init */\n  0x00\n    /* \"Lottery.sol\":480:511  Stage public stage = Stage.Init */\n  0x05\n  exp(0x0100, 0x00)\n  dup2\n  sload\n  dup2\n  0xff\n  mul\n  not\n  and\n  swap1\n  dup4\n  0x03\n  dup2\n  gt\n  iszero\n  tag_1\n  jumpi\n  tag_2\n  tag_3\n  jump\t// in\ntag_2:\ntag_1:\n  mul\n  or\n  swap1\n  sstore\n  pop\n    /* \"Lottery.sol\":701:702  0 */\n  0x00\n    /* \"Lottery.sol\":682:702  uint bidderCount = 0 */\n  0x06\n  sstore\n    /* \"Lottery.sol\":709:884  constructor(uint _itemCount) {... */\n  callvalue\n  dup1\n  iszero\n  tag_4\n  jumpi\n  0x00\n  dup1\n  revert\ntag_4:\n  pop\n  mload(0x40)\n  sub(codesize, bytecodeSize)\n  dup1\n  bytecodeSize\n  dup4\n  codecopy\n  dup2\n  dup2\n  add\n  0x40\n  mstore\n  dup2\n  add\n  swap1\n  tag_5\n  swap2\n  swap1\n  tag_6\n  jump\t// in\ntag_5:\n    /* \"Lottery.sol\":762:772  msg.sender */\n  caller\n    /* \"Lottery.sol\":748:759  beneficiary */\n  0x05\n  0x01\n    /* \"Lottery.sol\":748:772  beneficiary = msg.sender */\n  0x0100\n  exp\n  dup2\n  sload\n  dup2\n  0xffffffffffffffffffffffffffffffffffffffff\n  mul\n  not\n  and\n  swap1\n  dup4\n  0xffffffffffffffffffffffffffffffffffffffff\n  and\n  mul\n  or\n  swap1\n  sstore\n  pop\n    /* \"Lottery.sol\":786:792  uint i */\n  0x00\n    /* \"Lottery.sol\":782:878  for(uint i = 0; i < _itemCount; i++) {... */\ntag_9:\n    /* \"Lottery.sol\":802:812  _itemCount */\n  dup2\n    /* \"Lottery.sol\":798:799  i */\n  dup2\n    /* \"Lottery.sol\":798:812  i < _itemCount */\n  lt\n    /* \"Lottery.sol\":782:878  for(uint i = 0; i < _itemCount; i++) {... */\n  iszero\n  tag_10\n  jumpi\n    /* \"Lottery.sol\":833:838  items */\n  0x02\n    /* \"Lottery.sol\":844:866  Item(i, new uint[](0)) */\n  mload(0x40)\n  dup1\n  0x40\n  add\n  0x40\n  mstore\n  dup1\n    /* \"Lottery.sol\":849:850  i */\n  dup4\n    /* \"Lottery.sol\":844:866  Item(i, new uint[](0)) */\n  dup2\n  mstore\n  0x20\n  add\n    /* \"Lottery.sol\":863:864  0 */\n  0x00\n    /* \"Lottery.sol\":852:865  new uint[](0) */\n  0xffffffffffffffff\n  dup2\n  gt\n  iszero\n  tag_12\n  jumpi\n  tag_13\n  tag_14\n  jump\t// in\ntag_13:\ntag_12:\n  mload(0x40)\n  swap1\n  dup1\n  dup3\n  mstore\n  dup1\n  0x20\n  mul\n  0x20\n  add\n  dup3\n  add\n  0x40\n  mstore\n  dup1\n  iszero\n  tag_15\n  jumpi\n  dup2\n  0x20\n  add\n  0x20\n  dup3\n  mul\n  dup1\n  calldatasize\n  dup4\n  calldatacopy\n  dup1\n  dup3\n  add\n  swap2\n  pop\n  pop\n  swap1\n  pop\ntag_15:\n  pop\n    /* \"Lottery.sol\":844:866  Item(i, new uint[](0)) */\n  dup2\n  mstore\n  pop\n    /* \"Lottery.sol\":833:867  items.push(Item(i, new uint[](0))) */\n  swap1\n  dup1\n  0x01\n  dup2\n  sload\n  add\n  dup1\n  dup3\n  sstore\n  dup1\n  swap2\n  pop\n  pop\n  0x01\n  swap1\n  sub\n  swap1\n  0x00\n  mstore\n  keccak256(0x00, 0x20)\n  swap1\n  0x02\n  mul\n  add\n  0x00\n  swap1\n  swap2\n  swap1\n  swap2\n  swap1\n  swap2\n  pop\n  0x00\n  dup3\n  add\n  mload\n  dup2\n  0x00\n  add\n  sstore\n  0x20\n  dup3\n  add\n  mload\n  dup2\n  0x01\n  add\n  swap1\n  dup1\n  mload\n  swap1\n  0x20\n  add\n  swap1\n  tag_17\n  swap3\n  swap2\n  swap1\n  tag_18\n  jump\t// in\ntag_17:\n  pop\n  pop\n  pop\n    /* \"Lottery.sol\":814:817  i++ */\n  dup1\n  dup1\n  0x01\n  add\n  swap2\n  pop\n  pop\n    /* \"Lottery.sol\":782:878  for(uint i = 0; i < _itemCount; i++) {... */\n  jump(tag_9)\ntag_10:\n  pop\n    /* \"Lottery.sol\":709:884  constructor(uint _itemCount) {... */\n  pop\n    /* \"Lottery.sol\":293:3564  contract Lottery{... */\n  jump(tag_19)\ntag_18:\n  dup3\n  dup1\n  sload\n  dup3\n  dup3\n  sstore\n  swap1\n  0x00\n  mstore\n  keccak256(0x00, 0x20)\n  swap1\n  dup2\n  add\n  swap3\n  dup3\n  iszero\n  tag_20\n  jumpi\n  swap2\n  0x20\n  mul\n  dup3\n  add\ntag_21:\n  dup3\n  dup2\n  gt\n  iszero\n  tag_22\n  jumpi\n  dup3\n  mload\n  dup3\n  sstore\n  swap2\n  0x20\n  add\n  swap2\n  swap1\n  0x01\n  add\n  swap1\n  jump(tag_21)\ntag_22:\ntag_20:\n  pop\n  swap1\n  pop\n  tag_23\n  swap2\n  swap1\n  tag_24\n  jump\t// in\ntag_23:\n  pop\n  swap1\n  jump\t// out\ntag_24:\ntag_25:\n  dup1\n  dup3\n  gt\n  iszero\n  tag_26\n  jumpi\n  0x00\n  dup2\n  0x00\n  swap1\n  sstore\n  pop\n  0x01\n  add\n  jump(tag_25)\ntag_26:\n  pop\n  swap1\n  jump\t// out\n    /* \"#utility.yul\":7:187   */\ntag_3:\n    /* \"#utility.yul\":55:132   */\n  0x4e487b7100000000000000000000000000000000000000000000000000000000\n    /* \"#utility.yul\":52:53   */\n  0x00\n    /* \"#utility.yul\":45:133   */\n  mstore\n    /* \"#utility.yul\":152:156   */\n  0x21\n    /* \"#utility.yul\":149:150   */\n  0x04\n    /* \"#utility.yul\":142:157   */\n  mstore\n    /* \"#utility.yul\":176:180   */\n  0x24\n    /* \"#utility.yul\":173:174   */\n  0x00\n    /* \"#utility.yul\":166:181   */\n  revert\n    /* \"#utility.yul\":274:391   */\ntag_28:\n    /* \"#utility.yul\":383:384   */\n  0x00\n    /* \"#utility.yul\":380:381   */\n  dup1\n    /* \"#utility.yul\":373:385   */\n  revert\n    /* \"#utility.yul\":520:597   */\ntag_30:\n    /* \"#utility.yul\":557:564   */\n  0x00\n    /* \"#utility.yul\":586:591   */\n  dup2\n    /* \"#utility.yul\":575:591   */\n  swap1\n  pop\n    /* \"#utility.yul\":520:597   */\n  swap2\n  swap1\n  pop\n  jump\t// out\n    /* \"#utility.yul\":603:725   */\ntag_31:\n    /* \"#utility.yul\":676:700   */\n  tag_40\n    /* \"#utility.yul\":694:699   */\n  dup2\n    /* \"#utility.yul\":676:700   */\n  tag_30\n  jump\t// in\ntag_40:\n    /* \"#utility.yul\":669:674   */\n  dup2\n    /* \"#utility.yul\":666:701   */\n  eq\n    /* \"#utility.yul\":656:719   */\n  tag_41\n  jumpi\n    /* \"#utility.yul\":715:716   */\n  0x00\n    /* \"#utility.yul\":712:713   */\n  dup1\n    /* \"#utility.yul\":705:717   */\n  revert\n    /* \"#utility.yul\":656:719   */\ntag_41:\n    /* \"#utility.yul\":603:725   */\n  pop\n  jump\t// out\n    /* \"#utility.yul\":731:874   */\ntag_32:\n    /* \"#utility.yul\":788:793   */\n  0x00\n    /* \"#utility.yul\":819:825   */\n  dup2\n    /* \"#utility.yul\":813:826   */\n  mload\n    /* \"#utility.yul\":804:826   */\n  swap1\n  pop\n    /* \"#utility.yul\":835:868   */\n  tag_43\n    /* \"#utility.yul\":862:867   */\n  dup2\n    /* \"#utility.yul\":835:868   */\n  tag_31\n  jump\t// in\ntag_43:\n    /* \"#utility.yul\":731:874   */\n  swap3\n  swap2\n  pop\n  pop\n  jump\t// out\n    /* \"#utility.yul\":880:1231   */\ntag_6:\n    /* \"#utility.yul\":950:956   */\n  0x00\n    /* \"#utility.yul\":999:1001   */\n  0x20\n    /* \"#utility.yul\":987:996   */\n  dup3\n    /* \"#utility.yul\":978:985   */\n  dup5\n    /* \"#utility.yul\":974:997   */\n  sub\n    /* \"#utility.yul\":970:1002   */\n  slt\n    /* \"#utility.yul\":967:1086   */\n  iszero\n  tag_45\n  jumpi\n    /* \"#utility.yul\":1005:1084   */\n  tag_46\n  tag_28\n  jump\t// in\ntag_46:\n    /* \"#utility.yul\":967:1086   */\ntag_45:\n    /* \"#utility.yul\":1125:1126   */\n  0x00\n    /* \"#utility.yul\":1150:1214   */\n  tag_47\n    /* \"#utility.yul\":1206:1213   */\n  dup5\n    /* \"#utility.yul\":1197:1203   */\n  dup3\n    /* \"#utility.yul\":1186:1195   */\n  dup6\n    /* \"#utility.yul\":1182:1204   */\n  add\n    /* \"#utility.yul\":1150:1214   */\n  tag_32\n  jump\t// in\ntag_47:\n    /* \"#utility.yul\":1140:1214   */\n  swap2\n  pop\n    /* \"#utility.yul\":1096:1224   */\n  pop\n    /* \"#utility.yul\":880:1231   */\n  swap3\n  swap2\n  pop\n  pop\n  jump\t// out\n    /* \"#utility.yul\":1237:1417   */\ntag_14:\n    /* \"#utility.yul\":1285:1362   */\n  0x4e487b7100000000000000000000000000000000000000000000000000000000\n    /* \"#utility.yul\":1282:1283   */\n  0x00\n    /* \"#utility.yul\":1275:1363   */\n  mstore\n    /* \"#utility.yul\":1382:1386   */\n  0x41\n    /* \"#utility.yul\":1379:1380   */\n  0x04\n    /* \"#utility.yul\":1372:1387   */\n  mstore\n    /* \"#utility.yul\":1406:1410   */\n  0x24\n    /* \"#utility.yul\":1403:1404   */\n  0x00\n    /* \"#utility.yul\":1396:1411   */\n  revert\n    /* \"Lottery.sol\":293:3564  contract Lottery{... */\ntag_19:\n  dataSize(sub_0)\n  dup1\n  dataOffset(sub_0)\n  0x00\n  codecopy\n  0x00\n  return\nstop\n\nsub_0: assembly {\n        /* \"Lottery.sol\":293:3564  contract Lottery{... */\n      mstore(0x40, 0x80)\n      jumpi(tag_1, lt(calldatasize, 0x04))\n      shr(0xe0, calldataload(0x00))\n      dup1\n      0xaa103e44\n      gt\n      tag_16\n      jumpi\n      dup1\n      0xc33f48fd\n      gt\n      tag_17\n      jumpi\n      dup1\n      0xc33f48fd\n      eq\n      tag_12\n      jumpi\n      dup1\n      0xd826f88f\n      eq\n      tag_13\n      jumpi\n      dup1\n      0xdd4be683\n      eq\n      tag_14\n      jumpi\n      dup1\n      0xddc48f7f\n      eq\n      tag_15\n      jumpi\n      jump(tag_1)\n    tag_17:\n      dup1\n      0xaa103e44\n      eq\n      tag_9\n      jumpi\n      dup1\n      0xbfb231d2\n      eq\n      tag_10\n      jumpi\n      dup1\n      0xc040e6b8\n      eq\n      tag_11\n      jumpi\n      jump(tag_1)\n    tag_16:\n      dup1\n      0x3ccfd60b\n      gt\n      tag_18\n      jumpi\n      dup1\n      0x3ccfd60b\n      eq\n      tag_5\n      jumpi\n      dup1\n      0x598647f8\n      eq\n      tag_6\n      jumpi\n      dup1\n      0x952587d6\n      eq\n      tag_7\n      jumpi\n      dup1\n      0xa2fb1175\n      eq\n      tag_8\n      jumpi\n      jump(tag_1)\n    tag_18:\n      dup1\n      0x08704df2\n      eq\n      tag_2\n      jumpi\n      dup1\n      0x1aa3a008\n      eq\n      tag_3\n      jumpi\n      dup1\n      0x38af3eed\n      eq\n      tag_4\n      jumpi\n    tag_1:\n      0x00\n      dup1\n      revert\n        /* \"Lottery.sol\":890:983  function amountOfItems() public view returns(uint count) {... */\n    tag_2:\n      callvalue\n      dup1\n      iszero\n      tag_19\n      jumpi\n      0x00\n      dup1\n      revert\n    tag_19:\n      pop\n      tag_20\n      tag_21\n      jump\t// in\n    tag_20:\n      mload(0x40)\n      tag_22\n      swap2\n      swap1\n      tag_23\n      jump\t// in\n    tag_22:\n      mload(0x40)\n      dup1\n      swap2\n      sub\n      swap1\n      return\n        /* \"Lottery.sol\":1428:1705  function register() public payable registerable {... */\n    tag_3:\n      tag_24\n      tag_25\n      jump\t// in\n    tag_24:\n      stop\n        /* \"Lottery.sol\":518:544  address public beneficiary */\n    tag_4:\n      callvalue\n      dup1\n      iszero\n      tag_26\n      jumpi\n      0x00\n      dup1\n      revert\n    tag_26:\n      pop\n      tag_27\n      tag_28\n      jump\t// in\n    tag_27:\n      mload(0x40)\n      tag_29\n      swap2\n      swap1\n      tag_30\n      jump\t// in\n    tag_29:\n      mload(0x40)\n      dup1\n      swap2\n      sub\n      swap1\n      return\n        /* \"Lottery.sol\":3173:3319  function withdraw() public onlyOwner(){... */\n    tag_5:\n      callvalue\n      dup1\n      iszero\n      tag_31\n      jumpi\n      0x00\n      dup1\n      revert\n    tag_31:\n      pop\n      tag_32\n      tag_33\n      jump\t// in\n    tag_32:\n      stop\n        /* \"Lottery.sol\":2029:2297  function bid(uint _itemId, uint _count) public biddable(_count) payable {... */\n    tag_6:\n      tag_34\n      0x04\n      dup1\n      calldatasize\n      sub\n      dup2\n      add\n      swap1\n      tag_35\n      swap2\n      swap1\n      tag_36\n      jump\t// in\n    tag_35:\n      tag_37\n      jump\t// in\n    tag_34:\n      stop\n        /* \"Lottery.sol\":2373:3024  function revealWinners() public onlyOwner {... */\n    tag_7:\n      callvalue\n      dup1\n      iszero\n      tag_38\n      jumpi\n      0x00\n      dup1\n      revert\n    tag_38:\n      pop\n      tag_39\n      tag_40\n      jump\t// in\n    tag_39:\n      stop\n        /* \"Lottery.sol\":316:340  address[] public winners */\n    tag_8:\n      callvalue\n      dup1\n      iszero\n      tag_41\n      jumpi\n      0x00\n      dup1\n      revert\n    tag_41:\n      pop\n      tag_42\n      0x04\n      dup1\n      calldatasize\n      sub\n      dup2\n      add\n      swap1\n      tag_43\n      swap2\n      swap1\n      tag_44\n      jump\t// in\n    tag_43:\n      tag_45\n      jump\t// in\n    tag_42:\n      mload(0x40)\n      tag_46\n      swap2\n      swap1\n      tag_30\n      jump\t// in\n    tag_46:\n      mload(0x40)\n      dup1\n      swap2\n      sub\n      swap1\n      return\n        /* \"Lottery.sol\":445:474  uint public lotteryNumber = 0 */\n    tag_9:\n      callvalue\n      dup1\n      iszero\n      tag_47\n      jumpi\n      0x00\n      dup1\n      revert\n    tag_47:\n      pop\n      tag_48\n      tag_49\n      jump\t// in\n    tag_48:\n      mload(0x40)\n      tag_50\n      swap2\n      swap1\n      tag_23\n      jump\t// in\n    tag_50:\n      mload(0x40)\n      dup1\n      swap2\n      sub\n      swap1\n      return\n        /* \"Lottery.sol\":398:417  Item[] public items */\n    tag_10:\n      callvalue\n      dup1\n      iszero\n      tag_51\n      jumpi\n      0x00\n      dup1\n      revert\n    tag_51:\n      pop\n      tag_52\n      0x04\n      dup1\n      calldatasize\n      sub\n      dup2\n      add\n      swap1\n      tag_53\n      swap2\n      swap1\n      tag_44\n      jump\t// in\n    tag_53:\n      tag_54\n      jump\t// in\n    tag_52:\n      mload(0x40)\n      tag_55\n      swap2\n      swap1\n      tag_23\n      jump\t// in\n    tag_55:\n      mload(0x40)\n      dup1\n      swap2\n      sub\n      swap1\n      return\n        /* \"Lottery.sol\":480:511  Stage public stage = Stage.Init */\n    tag_11:\n      callvalue\n      dup1\n      iszero\n      tag_56\n      jumpi\n      0x00\n      dup1\n      revert\n    tag_56:\n      pop\n      tag_57\n      tag_58\n      jump\t// in\n    tag_57:\n      mload(0x40)\n      tag_59\n      swap2\n      swap1\n      tag_60\n      jump\t// in\n    tag_59:\n      mload(0x40)\n      dup1\n      swap2\n      sub\n      swap1\n      return\n        /* \"Lottery.sol\":3030:3167  function advanceStage() public onlyOwner {... */\n    tag_12:\n      callvalue\n      dup1\n      iszero\n      tag_61\n      jumpi\n      0x00\n      dup1\n      revert\n    tag_61:\n      pop\n      tag_62\n      tag_63\n      jump\t// in\n    tag_62:\n      stop\n        /* \"Lottery.sol\":3325:3557  function reset() public onlyOwner(){... */\n    tag_13:\n      callvalue\n      dup1\n      iszero\n      tag_64\n      jumpi\n      0x00\n      dup1\n      revert\n    tag_64:\n      pop\n      tag_65\n      tag_66\n      jump\t// in\n    tag_65:\n      stop\n        /* \"Lottery.sol\":346:392  mapping(address => Person) public tokenDetails */\n    tag_14:\n      callvalue\n      dup1\n      iszero\n      tag_67\n      jumpi\n      0x00\n      dup1\n      revert\n    tag_67:\n      pop\n      tag_68\n      0x04\n      dup1\n      calldatasize\n      sub\n      dup2\n      add\n      swap1\n      tag_69\n      swap2\n      swap1\n      tag_70\n      jump\t// in\n    tag_69:\n      tag_71\n      jump\t// in\n    tag_68:\n      mload(0x40)\n      tag_72\n      swap4\n      swap3\n      swap2\n      swap1\n      tag_73\n      jump\t// in\n    tag_72:\n      mload(0x40)\n      dup1\n      swap2\n      sub\n      swap1\n      return\n        /* \"Lottery.sol\":989:1195  function addMoreItems(uint _itemCount) public onlyOwner {... */\n    tag_15:\n      callvalue\n      dup1\n      iszero\n      tag_74\n      jumpi\n      0x00\n      dup1\n      revert\n    tag_74:\n      pop\n      tag_75\n      0x04\n      dup1\n      calldatasize\n      sub\n      dup2\n      add\n      swap1\n      tag_76\n      swap2\n      swap1\n      tag_44\n      jump\t// in\n    tag_76:\n      tag_77\n      jump\t// in\n    tag_75:\n      stop\n        /* \"Lottery.sol\":890:983  function amountOfItems() public view returns(uint count) {... */\n    tag_21:\n        /* \"Lottery.sol\":935:945  uint count */\n      0x00\n        /* \"Lottery.sol\":964:969  items */\n      0x02\n        /* \"Lottery.sol\":964:976  items.length */\n      dup1\n      sload\n      swap1\n      pop\n        /* \"Lottery.sol\":957:976  return items.length */\n      swap1\n      pop\n        /* \"Lottery.sol\":890:983  function amountOfItems() public view returns(uint count) {... */\n      swap1\n      jump\t// out\n        /* \"Lottery.sol\":1428:1705  function register() public payable registerable {... */\n    tag_25:\n        /* \"Lottery.sol\":1250:1259  Stage.Reg */\n      0x01\n        /* \"Lottery.sol\":1241:1259  stage == Stage.Reg */\n      0x03\n      dup2\n      gt\n      iszero\n      tag_80\n      jumpi\n      tag_81\n      tag_82\n      jump\t// in\n    tag_81:\n    tag_80:\n        /* \"Lottery.sol\":1241:1246  stage */\n      0x05\n      0x00\n      swap1\n      sload\n      swap1\n      0x0100\n      exp\n      swap1\n      div\n      0xff\n      and\n        /* \"Lottery.sol\":1241:1259  stage == Stage.Reg */\n      0x03\n      dup2\n      gt\n      iszero\n      tag_83\n      jumpi\n      tag_84\n      tag_82\n      jump\t// in\n    tag_84:\n    tag_83:\n      eq\n        /* \"Lottery.sol\":1233:1260  require(stage == Stage.Reg) */\n      tag_85\n      jumpi\n      0x00\n      dup1\n      revert\n    tag_85:\n        /* \"Lottery.sol\":1291:1302  0.005 ether */\n      0x11c37937e08000\n        /* \"Lottery.sol\":1278:1287  msg.value */\n      callvalue\n        /* \"Lottery.sol\":1278:1302  msg.value >= 0.005 ether */\n      lt\n      iszero\n        /* \"Lottery.sol\":1270:1303  require(msg.value >= 0.005 ether) */\n      tag_86\n      jumpi\n      0x00\n      dup1\n      revert\n    tag_86:\n        /* \"Lottery.sol\":1335:1346  beneficiary */\n      0x05\n      0x01\n      swap1\n      sload\n      swap1\n      0x0100\n      exp\n      swap1\n      div\n      0xffffffffffffffffffffffffffffffffffffffff\n      and\n        /* \"Lottery.sol\":1321:1346  msg.sender != beneficiary */\n      0xffffffffffffffffffffffffffffffffffffffff\n      and\n        /* \"Lottery.sol\":1321:1331  msg.sender */\n      caller\n        /* \"Lottery.sol\":1321:1346  msg.sender != beneficiary */\n      0xffffffffffffffffffffffffffffffffffffffff\n      and\n      sub\n        /* \"Lottery.sol\":1313:1347  require(msg.sender != beneficiary) */\n      tag_87\n      jumpi\n      0x00\n      dup1\n      revert\n    tag_87:\n        /* \"Lottery.sol\":1402:1403  0 */\n      0x00\n        /* \"Lottery.sol\":1365:1377  tokenDetails */\n      0x01\n        /* \"Lottery.sol\":1365:1389  tokenDetails[msg.sender] */\n      0x00\n        /* \"Lottery.sol\":1378:1388  msg.sender */\n      caller\n        /* \"Lottery.sol\":1365:1389  tokenDetails[msg.sender] */\n      0xffffffffffffffffffffffffffffffffffffffff\n      and\n      0xffffffffffffffffffffffffffffffffffffffff\n      and\n      dup2\n      mstore\n      0x20\n      add\n      swap1\n      dup2\n      mstore\n      0x20\n      add\n      0x00\n      keccak256\n        /* \"Lottery.sol\":1365:1398  tokenDetails[msg.sender].personId */\n      0x00\n      add\n      sload\n        /* \"Lottery.sol\":1365:1403  tokenDetails[msg.sender].personId == 0 */\n      eq\n        /* \"Lottery.sol\":1357:1404  require(tokenDetails[msg.sender].personId == 0) */\n      tag_88\n      jumpi\n      0x00\n      dup1\n      revert\n    tag_88:\n        /* \"Lottery.sol\":1568:1575  bidders */\n      0x03\n        /* \"Lottery.sol\":1581:1617  Person(bidderCount+1, msg.sender, 5) */\n      mload(0x40)\n      dup1\n      0x60\n      add\n      0x40\n      mstore\n      dup1\n        /* \"Lottery.sol\":1600:1601  1 */\n      0x01\n        /* \"Lottery.sol\":1588:1599  bidderCount */\n      sload(0x06)\n        /* \"Lottery.sol\":1588:1601  bidderCount+1 */\n      tag_90\n      swap2\n      swap1\n      tag_91\n      jump\t// in\n    tag_90:\n        /* \"Lottery.sol\":1581:1617  Person(bidderCount+1, msg.sender, 5) */\n      dup2\n      mstore\n      0x20\n      add\n        /* \"Lottery.sol\":1603:1613  msg.sender */\n      caller\n        /* \"Lottery.sol\":1581:1617  Person(bidderCount+1, msg.sender, 5) */\n      0xffffffffffffffffffffffffffffffffffffffff\n      and\n      dup2\n      mstore\n      0x20\n      add\n        /* \"Lottery.sol\":1615:1616  5 */\n      0x05\n        /* \"Lottery.sol\":1581:1617  Person(bidderCount+1, msg.sender, 5) */\n      dup2\n      mstore\n      pop\n        /* \"Lottery.sol\":1568:1618  bidders.push(Person(bidderCount+1, msg.sender, 5)) */\n      swap1\n      dup1\n      0x01\n      dup2\n      sload\n      add\n      dup1\n      dup3\n      sstore\n      dup1\n      swap2\n      pop\n      pop\n      0x01\n      swap1\n      sub\n      swap1\n      0x00\n      mstore\n      keccak256(0x00, 0x20)\n      swap1\n      0x03\n      mul\n      add\n      0x00\n      swap1\n      swap2\n      swap1\n      swap2\n      swap1\n      swap2\n      pop\n      0x00\n      dup3\n      add\n      mload\n      dup2\n      0x00\n      add\n      sstore\n      0x20\n      dup3\n      add\n      mload\n      dup2\n      0x01\n      add\n      exp(0x0100, 0x00)\n      dup2\n      sload\n      dup2\n      0xffffffffffffffffffffffffffffffffffffffff\n      mul\n      not\n      and\n      swap1\n      dup4\n      0xffffffffffffffffffffffffffffffffffffffff\n      and\n      mul\n      or\n      swap1\n      sstore\n      pop\n      0x40\n      dup3\n      add\n      mload\n      dup2\n      0x02\n      add\n      sstore\n      pop\n      pop\n        /* \"Lottery.sol\":1655:1662  bidders */\n      0x03\n        /* \"Lottery.sol\":1663:1674  bidderCount */\n      sload(0x06)\n        /* \"Lottery.sol\":1655:1675  bidders[bidderCount] */\n      dup2\n      sload\n      dup2\n      lt\n      tag_93\n      jumpi\n      tag_94\n      tag_95\n      jump\t// in\n    tag_94:\n    tag_93:\n      swap1\n      0x00\n      mstore\n      keccak256(0x00, 0x20)\n      swap1\n      0x03\n      mul\n      add\n        /* \"Lottery.sol\":1628:1640  tokenDetails */\n      0x01\n        /* \"Lottery.sol\":1628:1652  tokenDetails[msg.sender] */\n      0x00\n        /* \"Lottery.sol\":1641:1651  msg.sender */\n      caller\n        /* \"Lottery.sol\":1628:1652  tokenDetails[msg.sender] */\n      0xffffffffffffffffffffffffffffffffffffffff\n      and\n      0xffffffffffffffffffffffffffffffffffffffff\n      and\n      dup2\n      mstore\n      0x20\n      add\n      swap1\n      dup2\n      mstore\n      0x20\n      add\n      0x00\n      keccak256\n        /* \"Lottery.sol\":1628:1675  tokenDetails[msg.sender] = bidders[bidderCount] */\n      0x00\n      dup3\n      add\n      sload\n      dup2\n      0x00\n      add\n      sstore\n      0x01\n      dup3\n      add\n      0x00\n      swap1\n      sload\n      swap1\n      0x0100\n      exp\n      swap1\n      div\n      0xffffffffffffffffffffffffffffffffffffffff\n      and\n      dup2\n      0x01\n      add\n      exp(0x0100, 0x00)\n      dup2\n      sload\n      dup2\n      0xffffffffffffffffffffffffffffffffffffffff\n      mul\n      not\n      and\n      swap1\n      dup4\n      0xffffffffffffffffffffffffffffffffffffffff\n      and\n      mul\n      or\n      swap1\n      sstore\n      pop\n      0x02\n      dup3\n      add\n      sload\n      dup2\n      0x02\n      add\n      sstore\n      swap1\n      pop\n      pop\n        /* \"Lottery.sol\":1685:1696  bidderCount */\n      0x06\n      0x00\n        /* \"Lottery.sol\":1685:1698  bidderCount++ */\n      dup2\n      sload\n      dup1\n      swap3\n      swap2\n      swap1\n      tag_97\n      swap1\n      tag_98\n      jump\t// in\n    tag_97:\n      swap2\n      swap1\n      pop\n      sstore\n      pop\n        /* \"Lottery.sol\":1428:1705  function register() public payable registerable {... */\n      jump\t// out\n        /* \"Lottery.sol\":518:544  address public beneficiary */\n    tag_28:\n      0x05\n      0x01\n      swap1\n      sload\n      swap1\n      0x0100\n      exp\n      swap1\n      div\n      0xffffffffffffffffffffffffffffffffffffffff\n      and\n      dup2\n      jump\t// out\n        /* \"Lottery.sol\":3173:3319  function withdraw() public onlyOwner(){... */\n    tag_33:\n        /* \"Lottery.sol\":646:657  beneficiary */\n      0x05\n      0x01\n      swap1\n      sload\n      swap1\n      0x0100\n      exp\n      swap1\n      div\n      0xffffffffffffffffffffffffffffffffffffffff\n      and\n        /* \"Lottery.sol\":632:657  msg.sender == beneficiary */\n      0xffffffffffffffffffffffffffffffffffffffff\n      and\n        /* \"Lottery.sol\":632:642  msg.sender */\n      caller\n        /* \"Lottery.sol\":632:657  msg.sender == beneficiary */\n      0xffffffffffffffffffffffffffffffffffffffff\n      and\n      eq\n        /* \"Lottery.sol\":624:658  require(msg.sender == beneficiary) */\n      tag_100\n      jumpi\n      0x00\n      dup1\n      revert\n    tag_100:\n        /* \"Lottery.sol\":3268:3279  beneficiary */\n      0x05\n      0x01\n      swap1\n      sload\n      swap1\n      0x0100\n      exp\n      swap1\n      div\n      0xffffffffffffffffffffffffffffffffffffffff\n      and\n        /* \"Lottery.sol\":3260:3289  payable(beneficiary).transfer */\n      0xffffffffffffffffffffffffffffffffffffffff\n      and\n        /* \"Lottery.sol\":3260:3312  payable(beneficiary).transfer(address(this).balance) */\n      0x08fc\n        /* \"Lottery.sol\":3290:3311  address(this).balance */\n      selfbalance\n        /* \"Lottery.sol\":3260:3312  payable(beneficiary).transfer(address(this).balance) */\n      swap1\n      dup2\n      iszero\n      mul\n      swap1\n      mload(0x40)\n      0x00\n      mload(0x40)\n      dup1\n      dup4\n      sub\n      dup2\n      dup6\n      dup9\n      dup9\n      call\n      swap4\n      pop\n      pop\n      pop\n      pop\n      iszero\n      dup1\n      iszero\n      tag_103\n      jumpi\n      returndatasize\n      0x00\n      dup1\n      returndatacopy\n      revert(0x00, returndatasize)\n    tag_103:\n      pop\n        /* \"Lottery.sol\":3173:3319  function withdraw() public onlyOwner(){... */\n      jump\t// out\n        /* \"Lottery.sol\":2029:2297  function bid(uint _itemId, uint _count) public biddable(_count) payable {... */\n    tag_37:\n        /* \"Lottery.sol\":2085:2091  _count */\n      dup1\n        /* \"Lottery.sol\":1770:1779  Stage.Bid */\n      0x02\n        /* \"Lottery.sol\":1761:1779  stage == Stage.Bid */\n      0x03\n      dup2\n      gt\n      iszero\n      tag_105\n      jumpi\n      tag_106\n      tag_82\n      jump\t// in\n    tag_106:\n    tag_105:\n        /* \"Lottery.sol\":1761:1766  stage */\n      0x05\n      0x00\n      swap1\n      sload\n      swap1\n      0x0100\n      exp\n      swap1\n      div\n      0xff\n      and\n        /* \"Lottery.sol\":1761:1779  stage == Stage.Bid */\n      0x03\n      dup2\n      gt\n      iszero\n      tag_107\n      jumpi\n      tag_108\n      tag_82\n      jump\t// in\n    tag_108:\n    tag_107:\n      eq\n        /* \"Lottery.sol\":1753:1780  require(stage == Stage.Bid) */\n      tag_109\n      jumpi\n      0x00\n      dup1\n      revert\n    tag_109:\n        /* \"Lottery.sol\":1879:1880  0 */\n      0x00\n        /* \"Lottery.sol\":1842:1854  tokenDetails */\n      0x01\n        /* \"Lottery.sol\":1842:1866  tokenDetails[msg.sender] */\n      0x00\n        /* \"Lottery.sol\":1855:1865  msg.sender */\n      caller\n        /* \"Lottery.sol\":1842:1866  tokenDetails[msg.sender] */\n      0xffffffffffffffffffffffffffffffffffffffff\n      and\n      0xffffffffffffffffffffffffffffffffffffffff\n      and\n      dup2\n      mstore\n      0x20\n      add\n      swap1\n      dup2\n      mstore\n      0x20\n      add\n      0x00\n      keccak256\n        /* \"Lottery.sol\":1842:1875  tokenDetails[msg.sender].personId */\n      0x00\n      add\n      sload\n        /* \"Lottery.sol\":1842:1880  tokenDetails[msg.sender].personId != 0 */\n      sub\n        /* \"Lottery.sol\":1834:1881  require(tokenDetails[msg.sender].personId != 0) */\n      tag_110\n      jumpi\n      0x00\n      dup1\n      revert\n    tag_110:\n        /* \"Lottery.sol\":1998:2004  _count */\n      dup1\n        /* \"Lottery.sol\":1954:1966  tokenDetails */\n      0x01\n        /* \"Lottery.sol\":1954:1978  tokenDetails[msg.sender] */\n      0x00\n        /* \"Lottery.sol\":1967:1977  msg.sender */\n      caller\n        /* \"Lottery.sol\":1954:1978  tokenDetails[msg.sender] */\n      0xffffffffffffffffffffffffffffffffffffffff\n      and\n      0xffffffffffffffffffffffffffffffffffffffff\n      and\n      dup2\n      mstore\n      0x20\n      add\n      swap1\n      dup2\n      mstore\n      0x20\n      add\n      0x00\n      keccak256\n        /* \"Lottery.sol\":1954:1994  tokenDetails[msg.sender].remainingTokens */\n      0x02\n      add\n      sload\n        /* \"Lottery.sol\":1954:2004  tokenDetails[msg.sender].remainingTokens >= _count */\n      lt\n      iszero\n        /* \"Lottery.sol\":1946:2005  require(tokenDetails[msg.sender].remainingTokens >= _count) */\n      tag_111\n      jumpi\n      0x00\n      dup1\n      revert\n    tag_111:\n        /* \"Lottery.sol\":2199:2205  _count */\n      dup2\n        /* \"Lottery.sol\":2155:2167  tokenDetails */\n      0x01\n        /* \"Lottery.sol\":2155:2179  tokenDetails[msg.sender] */\n      0x00\n        /* \"Lottery.sol\":2168:2178  msg.sender */\n      caller\n        /* \"Lottery.sol\":2155:2179  tokenDetails[msg.sender] */\n      0xffffffffffffffffffffffffffffffffffffffff\n      and\n      0xffffffffffffffffffffffffffffffffffffffff\n      and\n      dup2\n      mstore\n      0x20\n      add\n      swap1\n      dup2\n      mstore\n      0x20\n      add\n      0x00\n      keccak256\n        /* \"Lottery.sol\":2155:2195  tokenDetails[msg.sender].remainingTokens */\n      0x02\n      add\n      0x00\n        /* \"Lottery.sol\":2155:2205  tokenDetails[msg.sender].remainingTokens -= _count */\n      dup3\n      dup3\n      sload\n      tag_113\n      swap2\n      swap1\n      tag_114\n      jump\t// in\n    tag_113:\n      swap3\n      pop\n      pop\n      dup2\n      swap1\n      sstore\n      pop\n        /* \"Lottery.sol\":2252:2257  items */\n      0x02\n        /* \"Lottery.sol\":2258:2265  _itemId */\n      dup4\n        /* \"Lottery.sol\":2252:2266  items[_itemId] */\n      dup2\n      sload\n      dup2\n      lt\n      tag_115\n      jumpi\n      tag_116\n      tag_95\n      jump\t// in\n    tag_116:\n    tag_115:\n      swap1\n      0x00\n      mstore\n      keccak256(0x00, 0x20)\n      swap1\n      0x02\n      mul\n      add\n        /* \"Lottery.sol\":2252:2277  items[_itemId].itemTokens */\n      0x01\n      add\n        /* \"Lottery.sol\":2283:2289  _count */\n      dup3\n        /* \"Lottery.sol\":2252:2290  items[_itemId].itemTokens.push(_count) */\n      swap1\n      dup1\n      0x01\n      dup2\n      sload\n      add\n      dup1\n      dup3\n      sstore\n      dup1\n      swap2\n      pop\n      pop\n      0x01\n      swap1\n      sub\n      swap1\n      0x00\n      mstore\n      keccak256(0x00, 0x20)\n      add\n      0x00\n      swap1\n      swap2\n      swap1\n      swap2\n      swap1\n      swap2\n      pop\n      sstore\n        /* \"Lottery.sol\":2029:2297  function bid(uint _itemId, uint _count) public biddable(_count) payable {... */\n      pop\n      pop\n      pop\n      jump\t// out\n        /* \"Lottery.sol\":2373:3024  function revealWinners() public onlyOwner {... */\n    tag_40:\n        /* \"Lottery.sol\":646:657  beneficiary */\n      0x05\n      0x01\n      swap1\n      sload\n      swap1\n      0x0100\n      exp\n      swap1\n      div\n      0xffffffffffffffffffffffffffffffffffffffff\n      and\n        /* \"Lottery.sol\":632:657  msg.sender == beneficiary */\n      0xffffffffffffffffffffffffffffffffffffffff\n      and\n        /* \"Lottery.sol\":632:642  msg.sender */\n      caller\n        /* \"Lottery.sol\":632:657  msg.sender == beneficiary */\n      0xffffffffffffffffffffffffffffffffffffffff\n      and\n      eq\n        /* \"Lottery.sol\":624:658  require(msg.sender == beneficiary) */\n      tag_120\n      jumpi\n      0x00\n      dup1\n      revert\n    tag_120:\n        /* \"Lottery.sol\":2478:2488  Stage.Done */\n      0x03\n        /* \"Lottery.sol\":2469:2488  stage == Stage.Done */\n      dup1\n      dup2\n      gt\n      iszero\n      tag_122\n      jumpi\n      tag_123\n      tag_82\n      jump\t// in\n    tag_123:\n    tag_122:\n        /* \"Lottery.sol\":2469:2474  stage */\n      0x05\n      0x00\n      swap1\n      sload\n      swap1\n      0x0100\n      exp\n      swap1\n      div\n      0xff\n      and\n        /* \"Lottery.sol\":2469:2488  stage == Stage.Done */\n      0x03\n      dup2\n      gt\n      iszero\n      tag_124\n      jumpi\n      tag_125\n      tag_82\n      jump\t// in\n    tag_125:\n    tag_124:\n      eq\n        /* \"Lottery.sol\":2461:2489  require(stage == Stage.Done) */\n      tag_126\n      jumpi\n      0x00\n      dup1\n      revert\n    tag_126:\n        /* \"Lottery.sol\":2526:2542  uint randomIndex */\n      0x00\n        /* \"Lottery.sol\":2560:2566  uint i */\n      dup1\n        /* \"Lottery.sol\":2556:3018  for(uint i = 0; i < items.length; i++) {... */\n    tag_127:\n        /* \"Lottery.sol\":2576:2581  items */\n      0x02\n        /* \"Lottery.sol\":2576:2588  items.length */\n      dup1\n      sload\n      swap1\n      pop\n        /* \"Lottery.sol\":2572:2573  i */\n      dup2\n        /* \"Lottery.sol\":2572:2588  i < items.length */\n      lt\n        /* \"Lottery.sol\":2556:3018  for(uint i = 0; i < items.length; i++) {... */\n      iszero\n      tag_128\n      jumpi\n        /* \"Lottery.sol\":2642:2643  0 */\n      0x00\n        /* \"Lottery.sol\":2612:2617  items */\n      0x02\n        /* \"Lottery.sol\":2618:2619  i */\n      dup3\n        /* \"Lottery.sol\":2612:2620  items[i] */\n      dup2\n      sload\n      dup2\n      lt\n      tag_130\n      jumpi\n      tag_131\n      tag_95\n      jump\t// in\n    tag_131:\n    tag_130:\n      swap1\n      0x00\n      mstore\n      keccak256(0x00, 0x20)\n      swap1\n      0x02\n      mul\n      add\n        /* \"Lottery.sol\":2612:2631  items[i].itemTokens */\n      0x01\n      add\n        /* \"Lottery.sol\":2612:2638  items[i].itemTokens.length */\n      dup1\n      sload\n      swap1\n      pop\n        /* \"Lottery.sol\":2612:2643  items[i].itemTokens.length != 0 */\n      eq\n        /* \"Lottery.sol\":2609:3008  if(items[i].itemTokens.length != 0) {... */\n      tag_133\n      jumpi\n        /* \"Lottery.sol\":2833:2838  items */\n      0x02\n        /* \"Lottery.sol\":2839:2840  i */\n      dup2\n        /* \"Lottery.sol\":2833:2841  items[i] */\n      dup2\n      sload\n      dup2\n      lt\n      tag_134\n      jumpi\n      tag_135\n      tag_95\n      jump\t// in\n    tag_135:\n    tag_134:\n      swap1\n      0x00\n      mstore\n      keccak256(0x00, 0x20)\n      swap1\n      0x02\n      mul\n      add\n        /* \"Lottery.sol\":2833:2852  items[i].itemTokens */\n      0x01\n      add\n        /* \"Lottery.sol\":2833:2859  items[i].itemTokens.length */\n      dup1\n      sload\n      swap1\n      pop\n        /* \"Lottery.sol\":2817:2822  items */\n      0x02\n        /* \"Lottery.sol\":2817:2829  items.length */\n      dup1\n      sload\n      swap1\n      pop\n        /* \"Lottery.sol\":2799:2814  block.timestamp */\n      timestamp\n        /* \"Lottery.sol\":2799:2829  block.timestamp / items.length */\n      tag_137\n      swap2\n      swap1\n      tag_138\n      jump\t// in\n    tag_137:\n        /* \"Lottery.sol\":2784:2789  items */\n      0x02\n        /* \"Lottery.sol\":2784:2796  items.length */\n      dup1\n      sload\n      swap1\n      pop\n        /* \"Lottery.sol\":2769:2781  block.number */\n      number\n        /* \"Lottery.sol\":2769:2796  block.number / items.length */\n      tag_139\n      swap2\n      swap1\n      tag_138\n      jump\t// in\n    tag_139:\n        /* \"Lottery.sol\":2769:2829  block.number / items.length + block.timestamp / items.length */\n      tag_140\n      swap2\n      swap1\n      tag_91\n      jump\t// in\n    tag_140:\n        /* \"Lottery.sol\":2768:2859  (block.number / items.length + block.timestamp / items.length) % items[i].itemTokens.length */\n      tag_141\n      swap2\n      swap1\n      tag_142\n      jump\t// in\n    tag_141:\n        /* \"Lottery.sol\":2754:2859  randomIndex = (block.number / items.length + block.timestamp / items.length) % items[i].itemTokens.length */\n      swap2\n      pop\n        /* \"Lottery.sol\":2877:2884  winners */\n      0x00\n        /* \"Lottery.sol\":2890:2897  bidders */\n      0x03\n        /* \"Lottery.sol\":2898:2909  randomIndex */\n      dup4\n        /* \"Lottery.sol\":2890:2910  bidders[randomIndex] */\n      dup2\n      sload\n      dup2\n      lt\n      tag_143\n      jumpi\n      tag_144\n      tag_95\n      jump\t// in\n    tag_144:\n    tag_143:\n      swap1\n      0x00\n      mstore\n      keccak256(0x00, 0x20)\n      swap1\n      0x03\n      mul\n      add\n        /* \"Lottery.sol\":2890:2915  bidders[randomIndex].addr */\n      0x01\n      add\n      0x00\n      swap1\n      sload\n      swap1\n      0x0100\n      exp\n      swap1\n      div\n      0xffffffffffffffffffffffffffffffffffffffff\n      and\n        /* \"Lottery.sol\":2877:2916  winners.push(bidders[randomIndex].addr) */\n      swap1\n      dup1\n      0x01\n      dup2\n      sload\n      add\n      dup1\n      dup3\n      sstore\n      dup1\n      swap2\n      pop\n      pop\n      0x01\n      swap1\n      sub\n      swap1\n      0x00\n      mstore\n      keccak256(0x00, 0x20)\n      add\n      0x00\n      swap1\n      swap2\n      swap1\n      swap2\n      swap1\n      swap2\n      0x0100\n      exp\n      dup2\n      sload\n      dup2\n      0xffffffffffffffffffffffffffffffffffffffff\n      mul\n      not\n      and\n      swap1\n      dup4\n      0xffffffffffffffffffffffffffffffffffffffff\n      and\n      mul\n      or\n      swap1\n      sstore\n      pop\n        /* \"Lottery.sol\":2939:2993  WinnerEvent(bidders[randomIndex].addr,i,lotteryNumber) */\n      0xc20f09c8f5012d640a5f76343b381ec2cda38bde00d2d177eaa02b21d449ec46\n        /* \"Lottery.sol\":2951:2958  bidders */\n      0x03\n        /* \"Lottery.sol\":2959:2970  randomIndex */\n      dup4\n        /* \"Lottery.sol\":2951:2971  bidders[randomIndex] */\n      dup2\n      sload\n      dup2\n      lt\n      tag_147\n      jumpi\n      tag_148\n      tag_95\n      jump\t// in\n    tag_148:\n    tag_147:\n      swap1\n      0x00\n      mstore\n      keccak256(0x00, 0x20)\n      swap1\n      0x03\n      mul\n      add\n        /* \"Lottery.sol\":2951:2976  bidders[randomIndex].addr */\n      0x01\n      add\n      0x00\n      swap1\n      sload\n      swap1\n      0x0100\n      exp\n      swap1\n      div\n      0xffffffffffffffffffffffffffffffffffffffff\n      and\n        /* \"Lottery.sol\":2977:2978  i */\n      dup3\n        /* \"Lottery.sol\":2979:2992  lotteryNumber */\n      sload(0x04)\n        /* \"Lottery.sol\":2939:2993  WinnerEvent(bidders[randomIndex].addr,i,lotteryNumber) */\n      mload(0x40)\n      tag_150\n      swap4\n      swap3\n      swap2\n      swap1\n      tag_151\n      jump\t// in\n    tag_150:\n      mload(0x40)\n      dup1\n      swap2\n      sub\n      swap1\n      log1\n        /* \"Lottery.sol\":2609:3008  if(items[i].itemTokens.length != 0) {... */\n    tag_133:\n        /* \"Lottery.sol\":2590:2593  i++ */\n      dup1\n      dup1\n      0x01\n      add\n      swap2\n      pop\n      pop\n        /* \"Lottery.sol\":2556:3018  for(uint i = 0; i < items.length; i++) {... */\n      jump(tag_127)\n    tag_128:\n      pop\n        /* \"Lottery.sol\":2415:3024  {... */\n      pop\n        /* \"Lottery.sol\":2373:3024  function revealWinners() public onlyOwner {... */\n      jump\t// out\n        /* \"Lottery.sol\":316:340  address[] public winners */\n    tag_45:\n      0x00\n      dup2\n      dup2\n      sload\n      dup2\n      lt\n      tag_152\n      jumpi\n      0x00\n      dup1\n      revert\n    tag_152:\n      swap1\n      0x00\n      mstore\n      keccak256(0x00, 0x20)\n      add\n      0x00\n      swap2\n      pop\n      sload\n      swap1\n      0x0100\n      exp\n      swap1\n      div\n      0xffffffffffffffffffffffffffffffffffffffff\n      and\n      dup2\n      jump\t// out\n        /* \"Lottery.sol\":445:474  uint public lotteryNumber = 0 */\n    tag_49:\n      sload(0x04)\n      dup2\n      jump\t// out\n        /* \"Lottery.sol\":398:417  Item[] public items */\n    tag_54:\n      0x02\n      dup2\n      dup2\n      sload\n      dup2\n      lt\n      tag_154\n      jumpi\n      0x00\n      dup1\n      revert\n    tag_154:\n      swap1\n      0x00\n      mstore\n      keccak256(0x00, 0x20)\n      swap1\n      0x02\n      mul\n      add\n      0x00\n      swap2\n      pop\n      swap1\n      pop\n      dup1\n      0x00\n      add\n      sload\n      swap1\n      pop\n      dup2\n      jump\t// out\n        /* \"Lottery.sol\":480:511  Stage public stage = Stage.Init */\n    tag_58:\n      0x05\n      0x00\n      swap1\n      sload\n      swap1\n      0x0100\n      exp\n      swap1\n      div\n      0xff\n      and\n      dup2\n      jump\t// out\n        /* \"Lottery.sol\":3030:3167  function advanceStage() public onlyOwner {... */\n    tag_63:\n        /* \"Lottery.sol\":646:657  beneficiary */\n      0x05\n      0x01\n      swap1\n      sload\n      swap1\n      0x0100\n      exp\n      swap1\n      div\n      0xffffffffffffffffffffffffffffffffffffffff\n      and\n        /* \"Lottery.sol\":632:657  msg.sender == beneficiary */\n      0xffffffffffffffffffffffffffffffffffffffff\n      and\n        /* \"Lottery.sol\":632:642  msg.sender */\n      caller\n        /* \"Lottery.sol\":632:657  msg.sender == beneficiary */\n      0xffffffffffffffffffffffffffffffffffffffff\n      and\n      eq\n        /* \"Lottery.sol\":624:658  require(msg.sender == beneficiary) */\n      tag_157\n      jumpi\n      0x00\n      dup1\n      revert\n    tag_157:\n        /* \"Lottery.sol\":3108:3118  Stage.Done */\n      0x03\n        /* \"Lottery.sol\":3103:3119  uint(Stage.Done) */\n      dup1\n      dup2\n      gt\n      iszero\n      tag_159\n      jumpi\n      tag_160\n      tag_82\n      jump\t// in\n    tag_160:\n    tag_159:\n        /* \"Lottery.sol\":3094:3099  stage */\n      0x05\n      0x00\n      swap1\n      sload\n      swap1\n      0x0100\n      exp\n      swap1\n      div\n      0xff\n      and\n        /* \"Lottery.sol\":3089:3100  uint(stage) */\n      0x03\n      dup2\n      gt\n      iszero\n      tag_161\n      jumpi\n      tag_162\n      tag_82\n      jump\t// in\n    tag_162:\n    tag_161:\n        /* \"Lottery.sol\":3089:3119  uint(stage) < uint(Stage.Done) */\n      lt\n        /* \"Lottery.sol\":3081:3120  require(uint(stage) < uint(Stage.Done)) */\n      tag_163\n      jumpi\n      0x00\n      dup1\n      revert\n    tag_163:\n        /* \"Lottery.sol\":3158:3159  1 */\n      0x01\n        /* \"Lottery.sol\":3149:3154  stage */\n      0x05\n      0x00\n      swap1\n      sload\n      swap1\n      0x0100\n      exp\n      swap1\n      div\n      0xff\n      and\n        /* \"Lottery.sol\":3144:3155  uint(stage) */\n      0x03\n      dup2\n      gt\n      iszero\n      tag_164\n      jumpi\n      tag_165\n      tag_82\n      jump\t// in\n    tag_165:\n    tag_164:\n        /* \"Lottery.sol\":3144:3159  uint(stage) + 1 */\n      tag_166\n      swap2\n      swap1\n      tag_91\n      jump\t// in\n    tag_166:\n        /* \"Lottery.sol\":3138:3160  Stage(uint(stage) + 1) */\n      0x03\n      dup2\n      gt\n      iszero\n      tag_167\n      jumpi\n      tag_168\n      tag_82\n      jump\t// in\n    tag_168:\n    tag_167:\n        /* \"Lottery.sol\":3130:3135  stage */\n      0x05\n      0x00\n        /* \"Lottery.sol\":3130:3160  stage = Stage(uint(stage) + 1) */\n      0x0100\n      exp\n      dup2\n      sload\n      dup2\n      0xff\n      mul\n      not\n      and\n      swap1\n      dup4\n      0x03\n      dup2\n      gt\n      iszero\n      tag_169\n      jumpi\n      tag_170\n      tag_82\n      jump\t// in\n    tag_170:\n    tag_169:\n      mul\n      or\n      swap1\n      sstore\n      pop\n        /* \"Lottery.sol\":3030:3167  function advanceStage() public onlyOwner {... */\n      jump\t// out\n        /* \"Lottery.sol\":3325:3557  function reset() public onlyOwner(){... */\n    tag_66:\n        /* \"Lottery.sol\":646:657  beneficiary */\n      0x05\n      0x01\n      swap1\n      sload\n      swap1\n      0x0100\n      exp\n      swap1\n      div\n      0xffffffffffffffffffffffffffffffffffffffff\n      and\n        /* \"Lottery.sol\":632:657  msg.sender == beneficiary */\n      0xffffffffffffffffffffffffffffffffffffffff\n      and\n        /* \"Lottery.sol\":632:642  msg.sender */\n      caller\n        /* \"Lottery.sol\":632:657  msg.sender == beneficiary */\n      0xffffffffffffffffffffffffffffffffffffffff\n      and\n      eq\n        /* \"Lottery.sol\":624:658  require(msg.sender == beneficiary) */\n      tag_172\n      jumpi\n      0x00\n      dup1\n      revert\n    tag_172:\n        /* \"Lottery.sol\":3419:3426  bidders */\n      0x03\n      0x00\n        /* \"Lottery.sol\":3412:3426  delete bidders */\n      tag_174\n      swap2\n      swap1\n      tag_175\n      jump\t// in\n    tag_174:\n        /* \"Lottery.sol\":3443:3448  items */\n      0x02\n      0x00\n        /* \"Lottery.sol\":3436:3448  delete items */\n      tag_176\n      swap2\n      swap1\n      tag_177\n      jump\t// in\n    tag_176:\n        /* \"Lottery.sol\":3465:3472  winners */\n      0x00\n      dup1\n        /* \"Lottery.sol\":3458:3472  delete winners */\n      tag_178\n      swap2\n      swap1\n      tag_179\n      jump\t// in\n    tag_178:\n        /* \"Lottery.sol\":3496:3497  0 */\n      0x00\n        /* \"Lottery.sol\":3482:3493  bidderCount */\n      0x06\n        /* \"Lottery.sol\":3482:3497  bidderCount = 0 */\n      dup2\n      swap1\n      sstore\n      pop\n        /* \"Lottery.sol\":3515:3525  Stage.Init */\n      0x00\n        /* \"Lottery.sol\":3507:3512  stage */\n      0x05\n      0x00\n        /* \"Lottery.sol\":3507:3525  stage = Stage.Init */\n      0x0100\n      exp\n      dup2\n      sload\n      dup2\n      0xff\n      mul\n      not\n      and\n      swap1\n      dup4\n      0x03\n      dup2\n      gt\n      iszero\n      tag_180\n      jumpi\n      tag_181\n      tag_82\n      jump\t// in\n    tag_181:\n    tag_180:\n      mul\n      or\n      swap1\n      sstore\n      pop\n        /* \"Lottery.sol\":3535:3548  lotteryNumber */\n      0x04\n      0x00\n        /* \"Lottery.sol\":3535:3550  lotteryNumber++ */\n      dup2\n      sload\n      dup1\n      swap3\n      swap2\n      swap1\n      tag_182\n      swap1\n      tag_98\n      jump\t// in\n    tag_182:\n      swap2\n      swap1\n      pop\n      sstore\n      pop\n        /* \"Lottery.sol\":3325:3557  function reset() public onlyOwner(){... */\n      jump\t// out\n        /* \"Lottery.sol\":346:392  mapping(address => Person) public tokenDetails */\n    tag_71:\n      mstore(0x20, 0x01)\n      dup1\n      0x00\n      mstore\n      keccak256(0x00, 0x40)\n      0x00\n      swap2\n      pop\n      swap1\n      pop\n      dup1\n      0x00\n      add\n      sload\n      swap1\n      dup1\n      0x01\n      add\n      0x00\n      swap1\n      sload\n      swap1\n      0x0100\n      exp\n      swap1\n      div\n      0xffffffffffffffffffffffffffffffffffffffff\n      and\n      swap1\n      dup1\n      0x02\n      add\n      sload\n      swap1\n      pop\n      dup4\n      jump\t// out\n        /* \"Lottery.sol\":989:1195  function addMoreItems(uint _itemCount) public onlyOwner {... */\n    tag_77:\n        /* \"Lottery.sol\":646:657  beneficiary */\n      0x05\n      0x01\n      swap1\n      sload\n      swap1\n      0x0100\n      exp\n      swap1\n      div\n      0xffffffffffffffffffffffffffffffffffffffff\n      and\n        /* \"Lottery.sol\":632:657  msg.sender == beneficiary */\n      0xffffffffffffffffffffffffffffffffffffffff\n      and\n        /* \"Lottery.sol\":632:642  msg.sender */\n      caller\n        /* \"Lottery.sol\":632:657  msg.sender == beneficiary */\n      0xffffffffffffffffffffffffffffffffffffffff\n      and\n      eq\n        /* \"Lottery.sol\":624:658  require(msg.sender == beneficiary) */\n      tag_184\n      jumpi\n      0x00\n      dup1\n      revert\n    tag_184:\n        /* \"Lottery.sol\":1072:1082  Stage.Init */\n      0x00\n        /* \"Lottery.sol\":1063:1082  stage == Stage.Init */\n      0x03\n      dup2\n      gt\n      iszero\n      tag_186\n      jumpi\n      tag_187\n      tag_82\n      jump\t// in\n    tag_187:\n    tag_186:\n        /* \"Lottery.sol\":1063:1068  stage */\n      0x05\n      0x00\n      swap1\n      sload\n      swap1\n      0x0100\n      exp\n      swap1\n      div\n      0xff\n      and\n        /* \"Lottery.sol\":1063:1082  stage == Stage.Init */\n      0x03\n      dup2\n      gt\n      iszero\n      tag_188\n      jumpi\n      tag_189\n      tag_82\n      jump\t// in\n    tag_189:\n    tag_188:\n      eq\n        /* \"Lottery.sol\":1055:1083  require(stage == Stage.Init) */\n      tag_190\n      jumpi\n      0x00\n      dup1\n      revert\n    tag_190:\n        /* \"Lottery.sol\":1097:1103  uint i */\n      0x00\n        /* \"Lottery.sol\":1093:1189  for(uint i = 0; i < _itemCount; i++) {... */\n    tag_191:\n        /* \"Lottery.sol\":1113:1123  _itemCount */\n      dup2\n        /* \"Lottery.sol\":1109:1110  i */\n      dup2\n        /* \"Lottery.sol\":1109:1123  i < _itemCount */\n      lt\n        /* \"Lottery.sol\":1093:1189  for(uint i = 0; i < _itemCount; i++) {... */\n      iszero\n      tag_192\n      jumpi\n        /* \"Lottery.sol\":1144:1149  items */\n      0x02\n        /* \"Lottery.sol\":1155:1177  Item(i, new uint[](0)) */\n      mload(0x40)\n      dup1\n      0x40\n      add\n      0x40\n      mstore\n      dup1\n        /* \"Lottery.sol\":1160:1161  i */\n      dup4\n        /* \"Lottery.sol\":1155:1177  Item(i, new uint[](0)) */\n      dup2\n      mstore\n      0x20\n      add\n        /* \"Lottery.sol\":1174:1175  0 */\n      0x00\n        /* \"Lottery.sol\":1163:1176  new uint[](0) */\n      0xffffffffffffffff\n      dup2\n      gt\n      iszero\n      tag_194\n      jumpi\n      tag_195\n      tag_196\n      jump\t// in\n    tag_195:\n    tag_194:\n      mload(0x40)\n      swap1\n      dup1\n      dup3\n      mstore\n      dup1\n      0x20\n      mul\n      0x20\n      add\n      dup3\n      add\n      0x40\n      mstore\n      dup1\n      iszero\n      tag_197\n      jumpi\n      dup2\n      0x20\n      add\n      0x20\n      dup3\n      mul\n      dup1\n      calldatasize\n      dup4\n      calldatacopy\n      dup1\n      dup3\n      add\n      swap2\n      pop\n      pop\n      swap1\n      pop\n    tag_197:\n      pop\n        /* \"Lottery.sol\":1155:1177  Item(i, new uint[](0)) */\n      dup2\n      mstore\n      pop\n        /* \"Lottery.sol\":1144:1178  items.push(Item(i, new uint[](0))) */\n      swap1\n      dup1\n      0x01\n      dup2\n      sload\n      add\n      dup1\n      dup3\n      sstore\n      dup1\n      swap2\n      pop\n      pop\n      0x01\n      swap1\n      sub\n      swap1\n      0x00\n      mstore\n      keccak256(0x00, 0x20)\n      swap1\n      0x02\n      mul\n      add\n      0x00\n      swap1\n      swap2\n      swap1\n      swap2\n      swap1\n      swap2\n      pop\n      0x00\n      dup3\n      add\n      mload\n      dup2\n      0x00\n      add\n      sstore\n      0x20\n      dup3\n      add\n      mload\n      dup2\n      0x01\n      add\n      swap1\n      dup1\n      mload\n      swap1\n      0x20\n      add\n      swap1\n      tag_199\n      swap3\n      swap2\n      swap1\n      tag_200\n      jump\t// in\n    tag_199:\n      pop\n      pop\n      pop\n        /* \"Lottery.sol\":1125:1128  i++ */\n      dup1\n      dup1\n      0x01\n      add\n      swap2\n      pop\n      pop\n        /* \"Lottery.sol\":1093:1189  for(uint i = 0; i < _itemCount; i++) {... */\n      jump(tag_191)\n    tag_192:\n      pop\n        /* \"Lottery.sol\":989:1195  function addMoreItems(uint _itemCount) public onlyOwner {... */\n      pop\n      jump\t// out\n    tag_175:\n      pop\n      dup1\n      sload\n      0x00\n      dup3\n      sstore\n      0x03\n      mul\n      swap1\n      0x00\n      mstore\n      keccak256(0x00, 0x20)\n      swap1\n      dup2\n      add\n      swap1\n      tag_202\n      swap2\n      swap1\n      tag_203\n      jump\t// in\n    tag_202:\n      pop\n      jump\t// out\n    tag_177:\n      pop\n      dup1\n      sload\n      0x00\n      dup3\n      sstore\n      0x02\n      mul\n      swap1\n      0x00\n      mstore\n      keccak256(0x00, 0x20)\n      swap1\n      dup2\n      add\n      swap1\n      tag_205\n      swap2\n      swap1\n      tag_206\n      jump\t// in\n    tag_205:\n      pop\n      jump\t// out\n    tag_179:\n      pop\n      dup1\n      sload\n      0x00\n      dup3\n      sstore\n      swap1\n      0x00\n      mstore\n      keccak256(0x00, 0x20)\n      swap1\n      dup2\n      add\n      swap1\n      tag_208\n      swap2\n      swap1\n      tag_209\n      jump\t// in\n    tag_208:\n      pop\n      jump\t// out\n    tag_200:\n      dup3\n      dup1\n      sload\n      dup3\n      dup3\n      sstore\n      swap1\n      0x00\n      mstore\n      keccak256(0x00, 0x20)\n      swap1\n      dup2\n      add\n      swap3\n      dup3\n      iszero\n      tag_210\n      jumpi\n      swap2\n      0x20\n      mul\n      dup3\n      add\n    tag_211:\n      dup3\n      dup2\n      gt\n      iszero\n      tag_212\n      jumpi\n      dup3\n      mload\n      dup3\n      sstore\n      swap2\n      0x20\n      add\n      swap2\n      swap1\n      0x01\n      add\n      swap1\n      jump(tag_211)\n    tag_212:\n    tag_210:\n      pop\n      swap1\n      pop\n      tag_213\n      swap2\n      swap1\n      tag_209\n      jump\t// in\n    tag_213:\n      pop\n      swap1\n      jump\t// out\n    tag_203:\n    tag_214:\n      dup1\n      dup3\n      gt\n      iszero\n      tag_215\n      jumpi\n      0x00\n      dup1\n      dup3\n      add\n      0x00\n      swap1\n      sstore\n      0x01\n      dup3\n      add\n      exp(0x0100, 0x00)\n      dup2\n      sload\n      swap1\n      0xffffffffffffffffffffffffffffffffffffffff\n      mul\n      not\n      and\n      swap1\n      sstore\n      0x02\n      dup3\n      add\n      0x00\n      swap1\n      sstore\n      pop\n      0x03\n      add\n      jump(tag_214)\n    tag_215:\n      pop\n      swap1\n      jump\t// out\n    tag_206:\n    tag_216:\n      dup1\n      dup3\n      gt\n      iszero\n      tag_217\n      jumpi\n      0x00\n      dup1\n      dup3\n      add\n      0x00\n      swap1\n      sstore\n      0x01\n      dup3\n      add\n      0x00\n      tag_218\n      swap2\n      swap1\n      tag_219\n      jump\t// in\n    tag_218:\n      pop\n      0x02\n      add\n      jump(tag_216)\n    tag_217:\n      pop\n      swap1\n      jump\t// out\n    tag_209:\n    tag_220:\n      dup1\n      dup3\n      gt\n      iszero\n      tag_221\n      jumpi\n      0x00\n      dup2\n      0x00\n      swap1\n      sstore\n      pop\n      0x01\n      add\n      jump(tag_220)\n    tag_221:\n      pop\n      swap1\n      jump\t// out\n    tag_219:\n      pop\n      dup1\n      sload\n      0x00\n      dup3\n      sstore\n      swap1\n      0x00\n      mstore\n      keccak256(0x00, 0x20)\n      swap1\n      dup2\n      add\n      swap1\n      tag_223\n      swap2\n      swap1\n      tag_209\n      jump\t// in\n    tag_223:\n      pop\n      jump\t// out\n        /* \"#utility.yul\":7:84   */\n    tag_224:\n        /* \"#utility.yul\":44:51   */\n      0x00\n        /* \"#utility.yul\":73:78   */\n      dup2\n        /* \"#utility.yul\":62:78   */\n      swap1\n      pop\n        /* \"#utility.yul\":7:84   */\n      swap2\n      swap1\n      pop\n      jump\t// out\n        /* \"#utility.yul\":90:208   */\n    tag_225:\n        /* \"#utility.yul\":177:201   */\n      tag_245\n        /* \"#utility.yul\":195:200   */\n      dup2\n        /* \"#utility.yul\":177:201   */\n      tag_224\n      jump\t// in\n    tag_245:\n        /* \"#utility.yul\":172:175   */\n      dup3\n        /* \"#utility.yul\":165:202   */\n      mstore\n        /* \"#utility.yul\":90:208   */\n      pop\n      pop\n      jump\t// out\n        /* \"#utility.yul\":214:436   */\n    tag_23:\n        /* \"#utility.yul\":307:311   */\n      0x00\n        /* \"#utility.yul\":345:347   */\n      0x20\n        /* \"#utility.yul\":334:343   */\n      dup3\n        /* \"#utility.yul\":330:348   */\n      add\n        /* \"#utility.yul\":322:348   */\n      swap1\n      pop\n        /* \"#utility.yul\":358:429   */\n      tag_247\n        /* \"#utility.yul\":426:427   */\n      0x00\n        /* \"#utility.yul\":415:424   */\n      dup4\n        /* \"#utility.yul\":411:428   */\n      add\n        /* \"#utility.yul\":402:408   */\n      dup5\n        /* \"#utility.yul\":358:429   */\n      tag_225\n      jump\t// in\n    tag_247:\n        /* \"#utility.yul\":214:436   */\n      swap3\n      swap2\n      pop\n      pop\n      jump\t// out\n        /* \"#utility.yul\":442:568   */\n    tag_226:\n        /* \"#utility.yul\":479:486   */\n      0x00\n        /* \"#utility.yul\":519:561   */\n      0xffffffffffffffffffffffffffffffffffffffff\n        /* \"#utility.yul\":512:517   */\n      dup3\n        /* \"#utility.yul\":508:562   */\n      and\n        /* \"#utility.yul\":497:562   */\n      swap1\n      pop\n        /* \"#utility.yul\":442:568   */\n      swap2\n      swap1\n      pop\n      jump\t// out\n        /* \"#utility.yul\":574:670   */\n    tag_227:\n        /* \"#utility.yul\":611:618   */\n      0x00\n        /* \"#utility.yul\":640:664   */\n      tag_250\n        /* \"#utility.yul\":658:663   */\n      dup3\n        /* \"#utility.yul\":640:664   */\n      tag_226\n      jump\t// in\n    tag_250:\n        /* \"#utility.yul\":629:664   */\n      swap1\n      pop\n        /* \"#utility.yul\":574:670   */\n      swap2\n      swap1\n      pop\n      jump\t// out\n        /* \"#utility.yul\":676:794   */\n    tag_228:\n        /* \"#utility.yul\":763:787   */\n      tag_252\n        /* \"#utility.yul\":781:786   */\n      dup2\n        /* \"#utility.yul\":763:787   */\n      tag_227\n      jump\t// in\n    tag_252:\n        /* \"#utility.yul\":758:761   */\n      dup3\n        /* \"#utility.yul\":751:788   */\n      mstore\n        /* \"#utility.yul\":676:794   */\n      pop\n      pop\n      jump\t// out\n        /* \"#utility.yul\":800:1022   */\n    tag_30:\n        /* \"#utility.yul\":893:897   */\n      0x00\n        /* \"#utility.yul\":931:933   */\n      0x20\n        /* \"#utility.yul\":920:929   */\n      dup3\n        /* \"#utility.yul\":916:934   */\n      add\n        /* \"#utility.yul\":908:934   */\n      swap1\n      pop\n        /* \"#utility.yul\":944:1015   */\n      tag_254\n        /* \"#utility.yul\":1012:1013   */\n      0x00\n        /* \"#utility.yul\":1001:1010   */\n      dup4\n        /* \"#utility.yul\":997:1014   */\n      add\n        /* \"#utility.yul\":988:994   */\n      dup5\n        /* \"#utility.yul\":944:1015   */\n      tag_228\n      jump\t// in\n    tag_254:\n        /* \"#utility.yul\":800:1022   */\n      swap3\n      swap2\n      pop\n      pop\n      jump\t// out\n        /* \"#utility.yul\":1109:1226   */\n    tag_230:\n        /* \"#utility.yul\":1218:1219   */\n      0x00\n        /* \"#utility.yul\":1215:1216   */\n      dup1\n        /* \"#utility.yul\":1208:1220   */\n      revert\n        /* \"#utility.yul\":1355:1477   */\n    tag_232:\n        /* \"#utility.yul\":1428:1452   */\n      tag_259\n        /* \"#utility.yul\":1446:1451   */\n      dup2\n        /* \"#utility.yul\":1428:1452   */\n      tag_224\n      jump\t// in\n    tag_259:\n        /* \"#utility.yul\":1421:1426   */\n      dup2\n        /* \"#utility.yul\":1418:1453   */\n      eq\n        /* \"#utility.yul\":1408:1471   */\n      tag_260\n      jumpi\n        /* \"#utility.yul\":1467:1468   */\n      0x00\n        /* \"#utility.yul\":1464:1465   */\n      dup1\n        /* \"#utility.yul\":1457:1469   */\n      revert\n        /* \"#utility.yul\":1408:1471   */\n    tag_260:\n        /* \"#utility.yul\":1355:1477   */\n      pop\n      jump\t// out\n        /* \"#utility.yul\":1483:1622   */\n    tag_233:\n        /* \"#utility.yul\":1529:1534   */\n      0x00\n        /* \"#utility.yul\":1567:1573   */\n      dup2\n        /* \"#utility.yul\":1554:1574   */\n      calldataload\n        /* \"#utility.yul\":1545:1574   */\n      swap1\n      pop\n        /* \"#utility.yul\":1583:1616   */\n      tag_262\n        /* \"#utility.yul\":1610:1615   */\n      dup2\n        /* \"#utility.yul\":1583:1616   */\n      tag_232\n      jump\t// in\n    tag_262:\n        /* \"#utility.yul\":1483:1622   */\n      swap3\n      swap2\n      pop\n      pop\n      jump\t// out\n        /* \"#utility.yul\":1628:2102   */\n    tag_36:\n        /* \"#utility.yul\":1696:1702   */\n      0x00\n        /* \"#utility.yul\":1704:1710   */\n      dup1\n        /* \"#utility.yul\":1753:1755   */\n      0x40\n        /* \"#utility.yul\":1741:1750   */\n      dup4\n        /* \"#utility.yul\":1732:1739   */\n      dup6\n        /* \"#utility.yul\":1728:1751   */\n      sub\n        /* \"#utility.yul\":1724:1756   */\n      slt\n        /* \"#utility.yul\":1721:1840   */\n      iszero\n      tag_264\n      jumpi\n        /* \"#utility.yul\":1759:1838   */\n      tag_265\n      tag_230\n      jump\t// in\n    tag_265:\n        /* \"#utility.yul\":1721:1840   */\n    tag_264:\n        /* \"#utility.yul\":1879:1880   */\n      0x00\n        /* \"#utility.yul\":1904:1957   */\n      tag_266\n        /* \"#utility.yul\":1949:1956   */\n      dup6\n        /* \"#utility.yul\":1940:1946   */\n      dup3\n        /* \"#utility.yul\":1929:1938   */\n      dup7\n        /* \"#utility.yul\":1925:1947   */\n      add\n        /* \"#utility.yul\":1904:1957   */\n      tag_233\n      jump\t// in\n    tag_266:\n        /* \"#utility.yul\":1894:1957   */\n      swap3\n      pop\n        /* \"#utility.yul\":1850:1967   */\n      pop\n        /* \"#utility.yul\":2006:2008   */\n      0x20\n        /* \"#utility.yul\":2032:2085   */\n      tag_267\n        /* \"#utility.yul\":2077:2084   */\n      dup6\n        /* \"#utility.yul\":2068:2074   */\n      dup3\n        /* \"#utility.yul\":2057:2066   */\n      dup7\n        /* \"#utility.yul\":2053:2075   */\n      add\n        /* \"#utility.yul\":2032:2085   */\n      tag_233\n      jump\t// in\n    tag_267:\n        /* \"#utility.yul\":2022:2085   */\n      swap2\n      pop\n        /* \"#utility.yul\":1977:2095   */\n      pop\n        /* \"#utility.yul\":1628:2102   */\n      swap3\n      pop\n      swap3\n      swap1\n      pop\n      jump\t// out\n        /* \"#utility.yul\":2108:2437   */\n    tag_44:\n        /* \"#utility.yul\":2167:2173   */\n      0x00\n        /* \"#utility.yul\":2216:2218   */\n      0x20\n        /* \"#utility.yul\":2204:2213   */\n      dup3\n        /* \"#utility.yul\":2195:2202   */\n      dup5\n        /* \"#utility.yul\":2191:2214   */\n      sub\n        /* \"#utility.yul\":2187:2219   */\n      slt\n        /* \"#utility.yul\":2184:2303   */\n      iszero\n      tag_269\n      jumpi\n        /* \"#utility.yul\":2222:2301   */\n      tag_270\n      tag_230\n      jump\t// in\n    tag_270:\n        /* \"#utility.yul\":2184:2303   */\n    tag_269:\n        /* \"#utility.yul\":2342:2343   */\n      0x00\n        /* \"#utility.yul\":2367:2420   */\n      tag_271\n        /* \"#utility.yul\":2412:2419   */\n      dup5\n        /* \"#utility.yul\":2403:2409   */\n      dup3\n        /* \"#utility.yul\":2392:2401   */\n      dup6\n        /* \"#utility.yul\":2388:2410   */\n      add\n        /* \"#utility.yul\":2367:2420   */\n      tag_233\n      jump\t// in\n    tag_271:\n        /* \"#utility.yul\":2357:2420   */\n      swap2\n      pop\n        /* \"#utility.yul\":2313:2430   */\n      pop\n        /* \"#utility.yul\":2108:2437   */\n      swap3\n      swap2\n      pop\n      pop\n      jump\t// out\n        /* \"#utility.yul\":2443:2623   */\n    tag_82:\n        /* \"#utility.yul\":2491:2568   */\n      0x4e487b7100000000000000000000000000000000000000000000000000000000\n        /* \"#utility.yul\":2488:2489   */\n      0x00\n        /* \"#utility.yul\":2481:2569   */\n      mstore\n        /* \"#utility.yul\":2588:2592   */\n      0x21\n        /* \"#utility.yul\":2585:2586   */\n      0x04\n        /* \"#utility.yul\":2578:2593   */\n      mstore\n        /* \"#utility.yul\":2612:2616   */\n      0x24\n        /* \"#utility.yul\":2609:2610   */\n      0x00\n        /* \"#utility.yul\":2602:2617   */\n      revert\n        /* \"#utility.yul\":2629:2742   */\n    tag_234:\n        /* \"#utility.yul\":2710:2711   */\n      0x04\n        /* \"#utility.yul\":2703:2708   */\n      dup2\n        /* \"#utility.yul\":2700:2712   */\n      lt\n        /* \"#utility.yul\":2690:2736   */\n      tag_274\n      jumpi\n        /* \"#utility.yul\":2716:2734   */\n      tag_275\n      tag_82\n      jump\t// in\n    tag_275:\n        /* \"#utility.yul\":2690:2736   */\n    tag_274:\n        /* \"#utility.yul\":2629:2742   */\n      pop\n      jump\t// out\n        /* \"#utility.yul\":2748:2875   */\n    tag_235:\n        /* \"#utility.yul\":2793:2800   */\n      0x00\n        /* \"#utility.yul\":2822:2827   */\n      dup2\n        /* \"#utility.yul\":2811:2827   */\n      swap1\n      pop\n        /* \"#utility.yul\":2828:2869   */\n      tag_277\n        /* \"#utility.yul\":2863:2868   */\n      dup3\n        /* \"#utility.yul\":2828:2869   */\n      tag_234\n      jump\t// in\n    tag_277:\n        /* \"#utility.yul\":2748:2875   */\n      swap2\n      swap1\n      pop\n      jump\t// out\n        /* \"#utility.yul\":2881:3008   */\n    tag_236:\n        /* \"#utility.yul\":2937:2946   */\n      0x00\n        /* \"#utility.yul\":2970:3002   */\n      tag_279\n        /* \"#utility.yul\":2996:3001   */\n      dup3\n        /* \"#utility.yul\":2970:3002   */\n      tag_235\n      jump\t// in\n    tag_279:\n        /* \"#utility.yul\":2957:3002   */\n      swap1\n      pop\n        /* \"#utility.yul\":2881:3008   */\n      swap2\n      swap1\n      pop\n      jump\t// out\n        /* \"#utility.yul\":3014:3157   */\n    tag_237:\n        /* \"#utility.yul\":3107:3150   */\n      tag_281\n        /* \"#utility.yul\":3144:3149   */\n      dup2\n        /* \"#utility.yul\":3107:3150   */\n      tag_236\n      jump\t// in\n    tag_281:\n        /* \"#utility.yul\":3102:3105   */\n      dup3\n        /* \"#utility.yul\":3095:3151   */\n      mstore\n        /* \"#utility.yul\":3014:3157   */\n      pop\n      pop\n      jump\t// out\n        /* \"#utility.yul\":3163:3397   */\n    tag_60:\n        /* \"#utility.yul\":3262:3266   */\n      0x00\n        /* \"#utility.yul\":3300:3302   */\n      0x20\n        /* \"#utility.yul\":3289:3298   */\n      dup3\n        /* \"#utility.yul\":3285:3303   */\n      add\n        /* \"#utility.yul\":3277:3303   */\n      swap1\n      pop\n        /* \"#utility.yul\":3313:3390   */\n      tag_283\n        /* \"#utility.yul\":3387:3388   */\n      0x00\n        /* \"#utility.yul\":3376:3385   */\n      dup4\n        /* \"#utility.yul\":3372:3389   */\n      add\n        /* \"#utility.yul\":3363:3369   */\n      dup5\n        /* \"#utility.yul\":3313:3390   */\n      tag_237\n      jump\t// in\n    tag_283:\n        /* \"#utility.yul\":3163:3397   */\n      swap3\n      swap2\n      pop\n      pop\n      jump\t// out\n        /* \"#utility.yul\":3403:3525   */\n    tag_238:\n        /* \"#utility.yul\":3476:3500   */\n      tag_285\n        /* \"#utility.yul\":3494:3499   */\n      dup2\n        /* \"#utility.yul\":3476:3500   */\n      tag_227\n      jump\t// in\n    tag_285:\n        /* \"#utility.yul\":3469:3474   */\n      dup2\n        /* \"#utility.yul\":3466:3501   */\n      eq\n        /* \"#utility.yul\":3456:3519   */\n      tag_286\n      jumpi\n        /* \"#utility.yul\":3515:3516   */\n      0x00\n        /* \"#utility.yul\":3512:3513   */\n      dup1\n        /* \"#utility.yul\":3505:3517   */\n      revert\n        /* \"#utility.yul\":3456:3519   */\n    tag_286:\n        /* \"#utility.yul\":3403:3525   */\n      pop\n      jump\t// out\n        /* \"#utility.yul\":3531:3670   */\n    tag_239:\n        /* \"#utility.yul\":3577:3582   */\n      0x00\n        /* \"#utility.yul\":3615:3621   */\n      dup2\n        /* \"#utility.yul\":3602:3622   */\n      calldataload\n        /* \"#utility.yul\":3593:3622   */\n      swap1\n      pop\n        /* \"#utility.yul\":3631:3664   */\n      tag_288\n        /* \"#utility.yul\":3658:3663   */\n      dup2\n        /* \"#utility.yul\":3631:3664   */\n      tag_238\n      jump\t// in\n    tag_288:\n        /* \"#utility.yul\":3531:3670   */\n      swap3\n      swap2\n      pop\n      pop\n      jump\t// out\n        /* \"#utility.yul\":3676:4005   */\n    tag_70:\n        /* \"#utility.yul\":3735:3741   */\n      0x00\n        /* \"#utility.yul\":3784:3786   */\n      0x20\n        /* \"#utility.yul\":3772:3781   */\n      dup3\n        /* \"#utility.yul\":3763:3770   */\n      dup5\n        /* \"#utility.yul\":3759:3782   */\n      sub\n        /* \"#utility.yul\":3755:3787   */\n      slt\n        /* \"#utility.yul\":3752:3871   */\n      iszero\n      tag_290\n      jumpi\n        /* \"#utility.yul\":3790:3869   */\n      tag_291\n      tag_230\n      jump\t// in\n    tag_291:\n        /* \"#utility.yul\":3752:3871   */\n    tag_290:\n        /* \"#utility.yul\":3910:3911   */\n      0x00\n        /* \"#utility.yul\":3935:3988   */\n      tag_292\n        /* \"#utility.yul\":3980:3987   */\n      dup5\n        /* \"#utility.yul\":3971:3977   */\n      dup3\n        /* \"#utility.yul\":3960:3969   */\n      dup6\n        /* \"#utility.yul\":3956:3978   */\n      add\n        /* \"#utility.yul\":3935:3988   */\n      tag_239\n      jump\t// in\n    tag_292:\n        /* \"#utility.yul\":3925:3988   */\n      swap2\n      pop\n        /* \"#utility.yul\":3881:3998   */\n      pop\n        /* \"#utility.yul\":3676:4005   */\n      swap3\n      swap2\n      pop\n      pop\n      jump\t// out\n        /* \"#utility.yul\":4011:4453   */\n    tag_73:\n        /* \"#utility.yul\":4160:4164   */\n      0x00\n        /* \"#utility.yul\":4198:4200   */\n      0x60\n        /* \"#utility.yul\":4187:4196   */\n      dup3\n        /* \"#utility.yul\":4183:4201   */\n      add\n        /* \"#utility.yul\":4175:4201   */\n      swap1\n      pop\n        /* \"#utility.yul\":4211:4282   */\n      tag_294\n        /* \"#utility.yul\":4279:4280   */\n      0x00\n        /* \"#utility.yul\":4268:4277   */\n      dup4\n        /* \"#utility.yul\":4264:4281   */\n      add\n        /* \"#utility.yul\":4255:4261   */\n      dup7\n        /* \"#utility.yul\":4211:4282   */\n      tag_225\n      jump\t// in\n    tag_294:\n        /* \"#utility.yul\":4292:4364   */\n      tag_295\n        /* \"#utility.yul\":4360:4362   */\n      0x20\n        /* \"#utility.yul\":4349:4358   */\n      dup4\n        /* \"#utility.yul\":4345:4363   */\n      add\n        /* \"#utility.yul\":4336:4342   */\n      dup6\n        /* \"#utility.yul\":4292:4364   */\n      tag_228\n      jump\t// in\n    tag_295:\n        /* \"#utility.yul\":4374:4446   */\n      tag_296\n        /* \"#utility.yul\":4442:4444   */\n      0x40\n        /* \"#utility.yul\":4431:4440   */\n      dup4\n        /* \"#utility.yul\":4427:4445   */\n      add\n        /* \"#utility.yul\":4418:4424   */\n      dup5\n        /* \"#utility.yul\":4374:4446   */\n      tag_225\n      jump\t// in\n    tag_296:\n        /* \"#utility.yul\":4011:4453   */\n      swap5\n      swap4\n      pop\n      pop\n      pop\n      pop\n      jump\t// out\n        /* \"#utility.yul\":4459:4639   */\n    tag_240:\n        /* \"#utility.yul\":4507:4584   */\n      0x4e487b7100000000000000000000000000000000000000000000000000000000\n        /* \"#utility.yul\":4504:4505   */\n      0x00\n        /* \"#utility.yul\":4497:4585   */\n      mstore\n        /* \"#utility.yul\":4604:4608   */\n      0x11\n        /* \"#utility.yul\":4601:4602   */\n      0x04\n        /* \"#utility.yul\":4594:4609   */\n      mstore\n        /* \"#utility.yul\":4628:4632   */\n      0x24\n        /* \"#utility.yul\":4625:4626   */\n      0x00\n        /* \"#utility.yul\":4618:4633   */\n      revert\n        /* \"#utility.yul\":4645:4836   */\n    tag_91:\n        /* \"#utility.yul\":4685:4688   */\n      0x00\n        /* \"#utility.yul\":4704:4724   */\n      tag_299\n        /* \"#utility.yul\":4722:4723   */\n      dup3\n        /* \"#utility.yul\":4704:4724   */\n      tag_224\n      jump\t// in\n    tag_299:\n        /* \"#utility.yul\":4699:4724   */\n      swap2\n      pop\n        /* \"#utility.yul\":4738:4758   */\n      tag_300\n        /* \"#utility.yul\":4756:4757   */\n      dup4\n        /* \"#utility.yul\":4738:4758   */\n      tag_224\n      jump\t// in\n    tag_300:\n        /* \"#utility.yul\":4733:4758   */\n      swap3\n      pop\n        /* \"#utility.yul\":4781:4782   */\n      dup3\n        /* \"#utility.yul\":4778:4779   */\n      dup3\n        /* \"#utility.yul\":4774:4783   */\n      add\n        /* \"#utility.yul\":4767:4783   */\n      swap1\n      pop\n        /* \"#utility.yul\":4802:4805   */\n      dup1\n        /* \"#utility.yul\":4799:4800   */\n      dup3\n        /* \"#utility.yul\":4796:4806   */\n      gt\n        /* \"#utility.yul\":4793:4829   */\n      iszero\n      tag_301\n      jumpi\n        /* \"#utility.yul\":4809:4827   */\n      tag_302\n      tag_240\n      jump\t// in\n    tag_302:\n        /* \"#utility.yul\":4793:4829   */\n    tag_301:\n        /* \"#utility.yul\":4645:4836   */\n      swap3\n      swap2\n      pop\n      pop\n      jump\t// out\n        /* \"#utility.yul\":4842:5022   */\n    tag_95:\n        /* \"#utility.yul\":4890:4967   */\n      0x4e487b7100000000000000000000000000000000000000000000000000000000\n        /* \"#utility.yul\":4887:4888   */\n      0x00\n        /* \"#utility.yul\":4880:4968   */\n      mstore\n        /* \"#utility.yul\":4987:4991   */\n      0x32\n        /* \"#utility.yul\":4984:4985   */\n      0x04\n        /* \"#utility.yul\":4977:4992   */\n      mstore\n        /* \"#utility.yul\":5011:5015   */\n      0x24\n        /* \"#utility.yul\":5008:5009   */\n      0x00\n        /* \"#utility.yul\":5001:5016   */\n      revert\n        /* \"#utility.yul\":5028:5261   */\n    tag_98:\n        /* \"#utility.yul\":5067:5070   */\n      0x00\n        /* \"#utility.yul\":5090:5114   */\n      tag_305\n        /* \"#utility.yul\":5108:5113   */\n      dup3\n        /* \"#utility.yul\":5090:5114   */\n      tag_224\n      jump\t// in\n    tag_305:\n        /* \"#utility.yul\":5081:5114   */\n      swap2\n      pop\n        /* \"#utility.yul\":5136:5202   */\n      0xffffffffffffffffffffffffffffffffffffffffffffffffffffffffffffffff\n        /* \"#utility.yul\":5129:5134   */\n      dup3\n        /* \"#utility.yul\":5126:5203   */\n      sub\n        /* \"#utility.yul\":5123:5226   */\n      tag_306\n      jumpi\n        /* \"#utility.yul\":5206:5224   */\n      tag_307\n      tag_240\n      jump\t// in\n    tag_307:\n        /* \"#utility.yul\":5123:5226   */\n    tag_306:\n        /* \"#utility.yul\":5253:5254   */\n      0x01\n        /* \"#utility.yul\":5246:5251   */\n      dup3\n        /* \"#utility.yul\":5242:5255   */\n      add\n        /* \"#utility.yul\":5235:5255   */\n      swap1\n      pop\n        /* \"#utility.yul\":5028:5261   */\n      swap2\n      swap1\n      pop\n      jump\t// out\n        /* \"#utility.yul\":5267:5461   */\n    tag_114:\n        /* \"#utility.yul\":5307:5311   */\n      0x00\n        /* \"#utility.yul\":5327:5347   */\n      tag_309\n        /* \"#utility.yul\":5345:5346   */\n      dup3\n        /* \"#utility.yul\":5327:5347   */\n      tag_224\n      jump\t// in\n    tag_309:\n        /* \"#utility.yul\":5322:5347   */\n      swap2\n      pop\n        /* \"#utility.yul\":5361:5381   */\n      tag_310\n        /* \"#utility.yul\":5379:5380   */\n      dup4\n        /* \"#utility.yul\":5361:5381   */\n      tag_224\n      jump\t// in\n    tag_310:\n        /* \"#utility.yul\":5356:5381   */\n      swap3\n      pop\n        /* \"#utility.yul\":5405:5406   */\n      dup3\n        /* \"#utility.yul\":5402:5403   */\n      dup3\n        /* \"#utility.yul\":5398:5407   */\n      sub\n        /* \"#utility.yul\":5390:5407   */\n      swap1\n      pop\n        /* \"#utility.yul\":5429:5430   */\n      dup2\n        /* \"#utility.yul\":5423:5427   */\n      dup2\n        /* \"#utility.yul\":5420:5431   */\n      gt\n        /* \"#utility.yul\":5417:5454   */\n      iszero\n      tag_311\n      jumpi\n        /* \"#utility.yul\":5434:5452   */\n      tag_312\n      tag_240\n      jump\t// in\n    tag_312:\n        /* \"#utility.yul\":5417:5454   */\n    tag_311:\n        /* \"#utility.yul\":5267:5461   */\n      swap3\n      swap2\n      pop\n      pop\n      jump\t// out\n        /* \"#utility.yul\":5467:5647   */\n    tag_241:\n        /* \"#utility.yul\":5515:5592   */\n      0x4e487b7100000000000000000000000000000000000000000000000000000000\n        /* \"#utility.yul\":5512:5513   */\n      0x00\n        /* \"#utility.yul\":5505:5593   */\n      mstore\n        /* \"#utility.yul\":5612:5616   */\n      0x12\n        /* \"#utility.yul\":5609:5610   */\n      0x04\n        /* \"#utility.yul\":5602:5617   */\n      mstore\n        /* \"#utility.yul\":5636:5640   */\n      0x24\n        /* \"#utility.yul\":5633:5634   */\n      0x00\n        /* \"#utility.yul\":5626:5641   */\n      revert\n        /* \"#utility.yul\":5653:5838   */\n    tag_138:\n        /* \"#utility.yul\":5693:5694   */\n      0x00\n        /* \"#utility.yul\":5710:5730   */\n      tag_315\n        /* \"#utility.yul\":5728:5729   */\n      dup3\n        /* \"#utility.yul\":5710:5730   */\n      tag_224\n      jump\t// in\n    tag_315:\n        /* \"#utility.yul\":5705:5730   */\n      swap2\n      pop\n        /* \"#utility.yul\":5744:5764   */\n      tag_316\n        /* \"#utility.yul\":5762:5763   */\n      dup4\n        /* \"#utility.yul\":5744:5764   */\n      tag_224\n      jump\t// in\n    tag_316:\n        /* \"#utility.yul\":5739:5764   */\n      swap3\n      pop\n        /* \"#utility.yul\":5783:5784   */\n      dup3\n        /* \"#utility.yul\":5773:5808   */\n      tag_317\n      jumpi\n        /* \"#utility.yul\":5788:5806   */\n      tag_318\n      tag_241\n      jump\t// in\n    tag_318:\n        /* \"#utility.yul\":5773:5808   */\n    tag_317:\n        /* \"#utility.yul\":5830:5831   */\n      dup3\n        /* \"#utility.yul\":5827:5828   */\n      dup3\n        /* \"#utility.yul\":5823:5832   */\n      div\n        /* \"#utility.yul\":5818:5832   */\n      swap1\n      pop\n        /* \"#utility.yul\":5653:5838   */\n      swap3\n      swap2\n      pop\n      pop\n      jump\t// out\n        /* \"#utility.yul\":5844:6020   */\n    tag_142:\n        /* \"#utility.yul\":5876:5877   */\n      0x00\n        /* \"#utility.yul\":5893:5913   */\n      tag_320\n        /* \"#utility.yul\":5911:5912   */\n      dup3\n        /* \"#utility.yul\":5893:5913   */\n      tag_224\n      jump\t// in\n    tag_320:\n        /* \"#utility.yul\":5888:5913   */\n      swap2\n      pop\n        /* \"#utility.yul\":5927:5947   */\n      tag_321\n        /* \"#utility.yul\":5945:5946   */\n      dup4\n        /* \"#utility.yul\":5927:5947   */\n      tag_224\n      jump\t// in\n    tag_321:\n        /* \"#utility.yul\":5922:5947   */\n      swap3\n      pop\n        /* \"#utility.yul\":5966:5967   */\n      dup3\n        /* \"#utility.yul\":5956:5991   */\n      tag_322\n      jumpi\n        /* \"#utility.yul\":5971:5989   */\n      tag_323\n      tag_241\n      jump\t// in\n    tag_323:\n        /* \"#utility.yul\":5956:5991   */\n    tag_322:\n        /* \"#utility.yul\":6012:6013   */\n      dup3\n        /* \"#utility.yul\":6009:6010   */\n      dup3\n        /* \"#utility.yul\":6005:6014   */\n      mod\n        /* \"#utility.yul\":6000:6014   */\n      swap1\n      pop\n        /* \"#utility.yul\":5844:6020   */\n      swap3\n      swap2\n      pop\n      pop\n      jump\t// out\n        /* \"#utility.yul\":6026:6468   */\n    tag_151:\n        /* \"#utility.yul\":6175:6179   */\n      0x00\n        /* \"#utility.yul\":6213:6215   */\n      0x60\n        /* \"#utility.yul\":6202:6211   */\n      dup3\n        /* \"#utility.yul\":6198:6216   */\n      add\n        /* \"#utility.yul\":6190:6216   */\n      swap1\n      pop\n        /* \"#utility.yul\":6226:6297   */\n      tag_325\n        /* \"#utility.yul\":6294:6295   */\n      0x00\n        /* \"#utility.yul\":6283:6292   */\n      dup4\n        /* \"#utility.yul\":6279:6296   */\n      add\n        /* \"#utility.yul\":6270:6276   */\n      dup7\n        /* \"#utility.yul\":6226:6297   */\n      tag_228\n      jump\t// in\n    tag_325:\n        /* \"#utility.yul\":6307:6379   */\n      tag_326\n        /* \"#utility.yul\":6375:6377   */\n      0x20\n        /* \"#utility.yul\":6364:6373   */\n      dup4\n        /* \"#utility.yul\":6360:6378   */\n      add\n        /* \"#utility.yul\":6351:6357   */\n      dup6\n        /* \"#utility.yul\":6307:6379   */\n      tag_225\n      jump\t// in\n    tag_326:\n        /* \"#utility.yul\":6389:6461   */\n      tag_327\n        /* \"#utility.yul\":6457:6459   */\n      0x40\n        /* \"#utility.yul\":6446:6455   */\n      dup4\n        /* \"#utility.yul\":6442:6460   */\n      add\n        /* \"#utility.yul\":6433:6439   */\n      dup5\n        /* \"#utility.yul\":6389:6461   */\n      tag_225\n      jump\t// in\n    tag_327:\n        /* \"#utility.yul\":6026:6468   */\n      swap5\n      swap4\n      pop\n      pop\n      pop\n      pop\n      jump\t// out\n        /* \"#utility.yul\":6474:6654   */\n    tag_196:\n        /* \"#utility.yul\":6522:6599   */\n      0x4e487b7100000000000000000000000000000000000000000000000000000000\n        /* \"#utility.yul\":6519:6520   */\n      0x00\n        /* \"#utility.yul\":6512:6600   */\n      mstore\n        /* \"#utility.yul\":6619:6623   */\n      0x41\n        /* \"#utility.yul\":6616:6617   */\n      0x04\n        /* \"#utility.yul\":6609:6624   */\n      mstore\n        /* \"#utility.yul\":6643:6647   */\n      0x24\n        /* \"#utility.yul\":6640:6641   */\n      0x00\n        /* \"#utility.yul\":6633:6648   */\n      revert\n\n    auxdata: 0xa2646970667358221220046dd48f4af16200fe2ff940371174b81901b670c9b6c521f80f951292ba869864736f6c63430008160033\n}\n",
				"bytecode": {
					"linkReferences": {},
					"object": "60806040525f6004555f60055f6101000a81548160ff021916908360038111156200002f576200002e620001eb565b5b02179055505f60065534801562000044575f80fd5b50604051620016b9380380620016b983398181016040528101906200006a919062000254565b33600560016101000a81548173ffffffffffffffffffffffffffffffffffffffff021916908373ffffffffffffffffffffffffffffffffffffffff1602179055505f5b818110156200017657600260405180604001604052808381526020015f67ffffffffffffffff811115620000e657620000e562000284565b5b604051908082528060200260200182016040528015620001155781602001602082028036833780820191505090505b50815250908060018154018082558091505060019003905f5260205f2090600202015f909190919091505f820151815f01556020820151816001019080519060200190620001659291906200017e565b5050508080600101915050620000ad565b5050620002b1565b828054828255905f5260205f20908101928215620001bb579160200282015b82811115620001ba5782518255916020019190600101906200019d565b5b509050620001ca9190620001ce565b5090565b5b80821115620001e7575f815f905550600101620001cf565b5090565b7f4e487b71000000000000000000000000000000000000000000000000000000005f52602160045260245ffd5b5f80fd5b5f819050919050565b62000230816200021c565b81146200023b575f80fd5b50565b5f815190506200024e8162000225565b92915050565b5f602082840312156200026c576200026b62000218565b5b5f6200027b848285016200023e565b91505092915050565b7f4e487b71000000000000000000000000000000000000000000000000000000005f52604160045260245ffd5b6113fa80620002bf5f395ff3fe6080604052600436106100dc575f3560e01c8063aa103e441161007e578063c33f48fd11610058578063c33f48fd14610252578063d826f88f14610268578063dd4be6831461027e578063ddc48f7f146102bc576100dc565b8063aa103e44146101c2578063bfb231d2146101ec578063c040e6b814610228576100dc565b80633ccfd60b116100ba5780633ccfd60b1461013e578063598647f814610154578063952587d614610170578063a2fb117514610186576100dc565b806308704df2146100e05780631aa3a0081461010a57806338af3eed14610114575b5f80fd5b3480156100eb575f80fd5b506100f46102e4565b6040516101019190610fb0565b60405180910390f35b6101126102f0565b005b34801561011f575f80fd5b50610128610598565b6040516101359190611008565b60405180910390f35b348015610149575f80fd5b506101526105be565b005b61016e6004803603810190610169919061104f565b61067f565b005b34801561017b575f80fd5b506101846107f6565b005b348015610191575f80fd5b506101ac60048036038101906101a7919061108d565b610a5a565b6040516101b99190611008565b60405180910390f35b3480156101cd575f80fd5b506101d6610a94565b6040516101e39190610fb0565b60405180910390f35b3480156101f7575f80fd5b50610212600480360381019061020d919061108d565b610a9a565b60405161021f9190610fb0565b60405180910390f35b348015610233575f80fd5b5061023c610ac3565b604051610249919061112b565b60405180910390f35b34801561025d575f80fd5b50610266610ad5565b005b348015610273575f80fd5b5061027c610bd4565b005b348015610289575f80fd5b506102a4600480360381019061029f919061116e565b610c9c565b6040516102b393929190611199565b60405180910390f35b3480156102c7575f80fd5b506102e260048036038101906102dd919061108d565b610ce1565b005b5f600280549050905090565b60016003811115610304576103036110b8565b5b60055f9054906101000a900460ff166003811115610325576103246110b8565b5b1461032e575f80fd5b6611c37937e08000341015610341575f80fd5b600560019054906101000a900473ffffffffffffffffffffffffffffffffffffffff1673ffffffffffffffffffffffffffffffffffffffff163373ffffffffffffffffffffffffffffffffffffffff160361039a575f80fd5b5f60015f3373ffffffffffffffffffffffffffffffffffffffff1673ffffffffffffffffffffffffffffffffffffffff1681526020019081526020015f205f0154146103e4575f80fd5b60036040518060600160405280600160065461040091906111fb565b81526020013373ffffffffffffffffffffffffffffffffffffffff1681526020016005815250908060018154018082558091505060019003905f5260205f2090600302015f909190919091505f820151815f01556020820151816001015f6101000a81548173ffffffffffffffffffffffffffffffffffffffff021916908373ffffffffffffffffffffffffffffffffffffffff1602179055506040820151816002015550506003600654815481106104bc576104bb61122e565b5b905f5260205f20906003020160015f3373ffffffffffffffffffffffffffffffffffffffff1673ffffffffffffffffffffffffffffffffffffffff1681526020019081526020015f205f820154815f0155600182015f9054906101000a900473ffffffffffffffffffffffffffffffffffffffff16816001015f6101000a81548173ffffffffffffffffffffffffffffffffffffffff021916908373ffffffffffffffffffffffffffffffffffffffff1602179055506002820154816002015590505060065f8154809291906105919061125b565b9190505550565b600560019054906101000a900473ffffffffffffffffffffffffffffffffffffffff1681565b600560019054906101000a900473ffffffffffffffffffffffffffffffffffffffff1673ffffffffffffffffffffffffffffffffffffffff163373ffffffffffffffffffffffffffffffffffffffff1614610617575f80fd5b600560019054906101000a900473ffffffffffffffffffffffffffffffffffffffff1673ffffffffffffffffffffffffffffffffffffffff166108fc4790811502906040515f60405180830381858888f1935050505015801561067c573d5f803e3d5ffd5b50565b8060026003811115610694576106936110b8565b5b60055f9054906101000a900460ff1660038111156106b5576106b46110b8565b5b146106be575f80fd5b5f60015f3373ffffffffffffffffffffffffffffffffffffffff1673ffffffffffffffffffffffffffffffffffffffff1681526020019081526020015f205f015403610708575f80fd5b8060015f3373ffffffffffffffffffffffffffffffffffffffff1673ffffffffffffffffffffffffffffffffffffffff1681526020019081526020015f20600201541015610754575f80fd5b8160015f3373ffffffffffffffffffffffffffffffffffffffff1673ffffffffffffffffffffffffffffffffffffffff1681526020019081526020015f206002015f8282546107a391906112a2565b92505081905550600283815481106107be576107bd61122e565b5b905f5260205f20906002020160010182908060018154018082558091505060019003905f5260205f20015f9091909190915055505050565b600560019054906101000a900473ffffffffffffffffffffffffffffffffffffffff1673ffffffffffffffffffffffffffffffffffffffff163373ffffffffffffffffffffffffffffffffffffffff161461084f575f80fd5b600380811115610862576108616110b8565b5b60055f9054906101000a900460ff166003811115610883576108826110b8565b5b1461088c575f80fd5b5f805b600280549050811015610a56575f600282815481106108b1576108b061122e565b5b905f5260205f2090600202016001018054905014610a4957600281815481106108dd576108dc61122e565b5b905f5260205f20906002020160010180549050600280549050426109019190611302565b600280549050436109129190611302565b61091c91906111fb565b6109269190611332565b91505f6003838154811061093d5761093c61122e565b5b905f5260205f2090600302016001015f9054906101000a900473ffffffffffffffffffffffffffffffffffffffff16908060018154018082558091505060019003905f5260205f20015f9091909190916101000a81548173ffffffffffffffffffffffffffffffffffffffff021916908373ffffffffffffffffffffffffffffffffffffffff1602179055507fc20f09c8f5012d640a5f76343b381ec2cda38bde00d2d177eaa02b21d449ec46600383815481106109fe576109fd61122e565b5b905f5260205f2090600302016001015f9054906101000a900473ffffffffffffffffffffffffffffffffffffffff1682600454604051610a4093929190611362565b60405180910390a15b808060010191505061088f565b5050565b5f8181548110610a68575f80fd5b905f5260205f20015f915054906101000a900473ffffffffffffffffffffffffffffffffffffffff1681565b60045481565b60028181548110610aa9575f80fd5b905f5260205f2090600202015f91509050805f0154905081565b60055f9054906101000a900460ff1681565b600560019054906101000a900473ffffffffffffffffffffffffffffffffffffffff1673ffffffffffffffffffffffffffffffffffffffff163373ffffffffffffffffffffffffffffffffffffffff1614610b2e575f80fd5b600380811115610b4157610b406110b8565b5b60055f9054906101000a900460ff166003811115610b6257610b616110b8565b5b10610b6b575f80fd5b600160055f9054906101000a900460ff166003811115610b8e57610b8d6110b8565b5b610b9891906111fb565b6003811115610baa57610ba96110b8565b5b60055f6101000a81548160ff02191690836003811115610bcd57610bcc6110b8565b5b0217905550565b600560019054906101000a900473ffffffffffffffffffffffffffffffffffffffff1673ffffffffffffffffffffffffffffffffffffffff163373ffffffffffffffffffffffffffffffffffffffff1614610c2d575f80fd5b60035f610c3a9190610e3e565b60025f610c479190610e5f565b5f80610c539190610e80565b5f6006819055505f60055f6101000a81548160ff02191690836003811115610c7e57610c7d6110b8565b5b021790555060045f815480929190610c959061125b565b9190505550565b6001602052805f5260405f205f91509050805f015490806001015f9054906101000a900473ffffffffffffffffffffffffffffffffffffffff16908060020154905083565b600560019054906101000a900473ffffffffffffffffffffffffffffffffffffffff1673ffffffffffffffffffffffffffffffffffffffff163373ffffffffffffffffffffffffffffffffffffffff1614610d3a575f80fd5b5f6003811115610d4d57610d4c6110b8565b5b60055f9054906101000a900460ff166003811115610d6e57610d6d6110b8565b5b14610d77575f80fd5b5f5b81811015610e3a57600260405180604001604052808381526020015f67ffffffffffffffff811115610dae57610dad611397565b5b604051908082528060200260200182016040528015610ddc5781602001602082028036833780820191505090505b50815250908060018154018082558091505060019003905f5260205f2090600202015f909190919091505f820151815f01556020820151816001019080519060200190610e2a929190610e9e565b5050508080600101915050610d79565b5050565b5080545f8255600302905f5260205f2090810190610e5c9190610ee9565b50565b5080545f8255600202905f5260205f2090810190610e7d9190610f33565b50565b5080545f8255905f5260205f2090810190610e9b9190610f5f565b50565b828054828255905f5260205f20908101928215610ed8579160200282015b82811115610ed7578251825591602001919060010190610ebc565b5b509050610ee59190610f5f565b5090565b5b80821115610f2f575f8082015f9055600182015f6101000a81549073ffffffffffffffffffffffffffffffffffffffff0219169055600282015f905550600301610eea565b5090565b5b80821115610f5b575f8082015f9055600182015f610f529190610f7a565b50600201610f34565b5090565b5b80821115610f76575f815f905550600101610f60565b5090565b5080545f8255905f5260205f2090810190610f959190610f5f565b50565b5f819050919050565b610faa81610f98565b82525050565b5f602082019050610fc35f830184610fa1565b92915050565b5f73ffffffffffffffffffffffffffffffffffffffff82169050919050565b5f610ff282610fc9565b9050919050565b61100281610fe8565b82525050565b5f60208201905061101b5f830184610ff9565b92915050565b5f80fd5b61102e81610f98565b8114611038575f80fd5b50565b5f8135905061104981611025565b92915050565b5f806040838503121561106557611064611021565b5b5f6110728582860161103b565b92505060206110838582860161103b565b9150509250929050565b5f602082840312156110a2576110a1611021565b5b5f6110af8482850161103b565b91505092915050565b7f4e487b71000000000000000000000000000000000000000000000000000000005f52602160045260245ffd5b600481106110f6576110f56110b8565b5b50565b5f819050611106826110e5565b919050565b5f611115826110f9565b9050919050565b6111258161110b565b82525050565b5f60208201905061113e5f83018461111c565b92915050565b61114d81610fe8565b8114611157575f80fd5b50565b5f8135905061116881611144565b92915050565b5f6020828403121561118357611182611021565b5b5f6111908482850161115a565b91505092915050565b5f6060820190506111ac5f830186610fa1565b6111b96020830185610ff9565b6111c66040830184610fa1565b949350505050565b7f4e487b71000000000000000000000000000000000000000000000000000000005f52601160045260245ffd5b5f61120582610f98565b915061121083610f98565b9250828201905080821115611228576112276111ce565b5b92915050565b7f4e487b71000000000000000000000000000000000000000000000000000000005f52603260045260245ffd5b5f61126582610f98565b91507fffffffffffffffffffffffffffffffffffffffffffffffffffffffffffffffff8203611297576112966111ce565b5b600182019050919050565b5f6112ac82610f98565b91506112b783610f98565b92508282039050818111156112cf576112ce6111ce565b5b92915050565b7f4e487b71000000000000000000000000000000000000000000000000000000005f52601260045260245ffd5b5f61130c82610f98565b915061131783610f98565b925082611327576113266112d5565b5b828204905092915050565b5f61133c82610f98565b915061134783610f98565b925082611357576113566112d5565b5b828206905092915050565b5f6060820190506113755f830186610ff9565b6113826020830185610fa1565b61138f6040830184610fa1565b949350505050565b7f4e487b71000000000000000000000000000000000000000000000000000000005f52604160045260245ffdfea2646970667358221220046dd48f4af16200fe2ff940371174b81901b670c9b6c521f80f951292ba869864736f6c63430008160033",
					"opcodes": "PUSH1 0x80 PUSH1 0x40 MSTORE PUSH0 PUSH1 0x4 SSTORE PUSH0 PUSH1 0x5 PUSH0 PUSH2 0x100 EXP DUP2 SLOAD DUP2 PUSH1 0xFF MUL NOT AND SWAP1 DUP4 PUSH1 0x3 DUP2 GT ISZERO PUSH3 0x2F JUMPI PUSH3 0x2E PUSH3 0x1EB JUMP JUMPDEST JUMPDEST MUL OR SWAP1 SSTORE POP PUSH0 PUSH1 0x6 SSTORE CALLVALUE DUP1 ISZERO PUSH3 0x44 JUMPI PUSH0 DUP1 REVERT JUMPDEST POP PUSH1 0x40 MLOAD PUSH3 0x16B9 CODESIZE SUB DUP1 PUSH3 0x16B9 DUP4 CODECOPY DUP2 DUP2 ADD PUSH1 0x40 MSTORE DUP2 ADD SWAP1 PUSH3 0x6A SWAP2 SWAP1 PUSH3 0x254 JUMP JUMPDEST CALLER PUSH1 0x5 PUSH1 0x1 PUSH2 0x100 EXP DUP2 SLOAD DUP2 PUSH20 0xFFFFFFFFFFFFFFFFFFFFFFFFFFFFFFFFFFFFFFFF MUL NOT AND SWAP1 DUP4 PUSH20 0xFFFFFFFFFFFFFFFFFFFFFFFFFFFFFFFFFFFFFFFF AND MUL OR SWAP1 SSTORE POP PUSH0 JUMPDEST DUP2 DUP2 LT ISZERO PUSH3 0x176 JUMPI PUSH1 0x2 PUSH1 0x40 MLOAD DUP1 PUSH1 0x40 ADD PUSH1 0x40 MSTORE DUP1 DUP4 DUP2 MSTORE PUSH1 0x20 ADD PUSH0 PUSH8 0xFFFFFFFFFFFFFFFF DUP2 GT ISZERO PUSH3 0xE6 JUMPI PUSH3 0xE5 PUSH3 0x284 JUMP JUMPDEST JUMPDEST PUSH1 0x40 MLOAD SWAP1 DUP1 DUP3 MSTORE DUP1 PUSH1 0x20 MUL PUSH1 0x20 ADD DUP3 ADD PUSH1 0x40 MSTORE DUP1 ISZERO PUSH3 0x115 JUMPI DUP2 PUSH1 0x20 ADD PUSH1 0x20 DUP3 MUL DUP1 CALLDATASIZE DUP4 CALLDATACOPY DUP1 DUP3 ADD SWAP2 POP POP SWAP1 POP JUMPDEST POP DUP2 MSTORE POP SWAP1 DUP1 PUSH1 0x1 DUP2 SLOAD ADD DUP1 DUP3 SSTORE DUP1 SWAP2 POP POP PUSH1 0x1 SWAP1 SUB SWAP1 PUSH0 MSTORE PUSH1 0x20 PUSH0 KECCAK256 SWAP1 PUSH1 0x2 MUL ADD PUSH0 SWAP1 SWAP2 SWAP1 SWAP2 SWAP1 SWAP2 POP PUSH0 DUP3 ADD MLOAD DUP2 PUSH0 ADD SSTORE PUSH1 0x20 DUP3 ADD MLOAD DUP2 PUSH1 0x1 ADD SWAP1 DUP1 MLOAD SWAP1 PUSH1 0x20 ADD SWAP1 PUSH3 0x165 SWAP3 SWAP2 SWAP1 PUSH3 0x17E JUMP JUMPDEST POP POP POP DUP1 DUP1 PUSH1 0x1 ADD SWAP2 POP POP PUSH3 0xAD JUMP JUMPDEST POP POP PUSH3 0x2B1 JUMP JUMPDEST DUP3 DUP1 SLOAD DUP3 DUP3 SSTORE SWAP1 PUSH0 MSTORE PUSH1 0x20 PUSH0 KECCAK256 SWAP1 DUP2 ADD SWAP3 DUP3 ISZERO PUSH3 0x1BB JUMPI SWAP2 PUSH1 0x20 MUL DUP3 ADD JUMPDEST DUP3 DUP2 GT ISZERO PUSH3 0x1BA JUMPI DUP3 MLOAD DUP3 SSTORE SWAP2 PUSH1 0x20 ADD SWAP2 SWAP1 PUSH1 0x1 ADD SWAP1 PUSH3 0x19D JUMP JUMPDEST JUMPDEST POP SWAP1 POP PUSH3 0x1CA SWAP2 SWAP1 PUSH3 0x1CE JUMP JUMPDEST POP SWAP1 JUMP JUMPDEST JUMPDEST DUP1 DUP3 GT ISZERO PUSH3 0x1E7 JUMPI PUSH0 DUP2 PUSH0 SWAP1 SSTORE POP PUSH1 0x1 ADD PUSH3 0x1CF JUMP JUMPDEST POP SWAP1 JUMP JUMPDEST PUSH32 0x4E487B7100000000000000000000000000000000000000000000000000000000 PUSH0 MSTORE PUSH1 0x21 PUSH1 0x4 MSTORE PUSH1 0x24 PUSH0 REVERT JUMPDEST PUSH0 DUP1 REVERT JUMPDEST PUSH0 DUP2 SWAP1 POP SWAP2 SWAP1 POP JUMP JUMPDEST PUSH3 0x230 DUP2 PUSH3 0x21C JUMP JUMPDEST DUP2 EQ PUSH3 0x23B JUMPI PUSH0 DUP1 REVERT JUMPDEST POP JUMP JUMPDEST PUSH0 DUP2 MLOAD SWAP1 POP PUSH3 0x24E DUP2 PUSH3 0x225 JUMP JUMPDEST SWAP3 SWAP2 POP POP JUMP JUMPDEST PUSH0 PUSH1 0x20 DUP3 DUP5 SUB SLT ISZERO PUSH3 0x26C JUMPI PUSH3 0x26B PUSH3 0x218 JUMP JUMPDEST JUMPDEST PUSH0 PUSH3 0x27B DUP5 DUP3 DUP6 ADD PUSH3 0x23E JUMP JUMPDEST SWAP2 POP POP SWAP3 SWAP2 POP POP JUMP JUMPDEST PUSH32 0x4E487B7100000000000000000000000000000000000000000000000000000000 PUSH0 MSTORE PUSH1 0x41 PUSH1 0x4 MSTORE PUSH1 0x24 PUSH0 REVERT JUMPDEST PUSH2 0x13FA DUP1 PUSH3 0x2BF PUSH0 CODECOPY PUSH0 RETURN INVALID PUSH1 0x80 PUSH1 0x40 MSTORE PUSH1 0x4 CALLDATASIZE LT PUSH2 0xDC JUMPI PUSH0 CALLDATALOAD PUSH1 0xE0 SHR DUP1 PUSH4 0xAA103E44 GT PUSH2 0x7E JUMPI DUP1 PUSH4 0xC33F48FD GT PUSH2 0x58 JUMPI DUP1 PUSH4 0xC33F48FD EQ PUSH2 0x252 JUMPI DUP1 PUSH4 0xD826F88F EQ PUSH2 0x268 JUMPI DUP1 PUSH4 0xDD4BE683 EQ PUSH2 0x27E JUMPI DUP1 PUSH4 0xDDC48F7F EQ PUSH2 0x2BC JUMPI PUSH2 0xDC JUMP JUMPDEST DUP1 PUSH4 0xAA103E44 EQ PUSH2 0x1C2 JUMPI DUP1 PUSH4 0xBFB231D2 EQ PUSH2 0x1EC JUMPI DUP1 PUSH4 0xC040E6B8 EQ PUSH2 0x228 JUMPI PUSH2 0xDC JUMP JUMPDEST DUP1 PUSH4 0x3CCFD60B GT PUSH2 0xBA JUMPI DUP1 PUSH4 0x3CCFD60B EQ PUSH2 0x13E JUMPI DUP1 PUSH4 0x598647F8 EQ PUSH2 0x154 JUMPI DUP1 PUSH4 0x952587D6 EQ PUSH2 0x170 JUMPI DUP1 PUSH4 0xA2FB1175 EQ PUSH2 0x186 JUMPI PUSH2 0xDC JUMP JUMPDEST DUP1 PUSH4 0x8704DF2 EQ PUSH2 0xE0 JUMPI DUP1 PUSH4 0x1AA3A008 EQ PUSH2 0x10A JUMPI DUP1 PUSH4 0x38AF3EED EQ PUSH2 0x114 JUMPI JUMPDEST PUSH0 DUP1 REVERT JUMPDEST CALLVALUE DUP1 ISZERO PUSH2 0xEB JUMPI PUSH0 DUP1 REVERT JUMPDEST POP PUSH2 0xF4 PUSH2 0x2E4 JUMP JUMPDEST PUSH1 0x40 MLOAD PUSH2 0x101 SWAP2 SWAP1 PUSH2 0xFB0 JUMP JUMPDEST PUSH1 0x40 MLOAD DUP1 SWAP2 SUB SWAP1 RETURN JUMPDEST PUSH2 0x112 PUSH2 0x2F0 JUMP JUMPDEST STOP JUMPDEST CALLVALUE DUP1 ISZERO PUSH2 0x11F JUMPI PUSH0 DUP1 REVERT JUMPDEST POP PUSH2 0x128 PUSH2 0x598 JUMP JUMPDEST PUSH1 0x40 MLOAD PUSH2 0x135 SWAP2 SWAP1 PUSH2 0x1008 JUMP JUMPDEST PUSH1 0x40 MLOAD DUP1 SWAP2 SUB SWAP1 RETURN JUMPDEST CALLVALUE DUP1 ISZERO PUSH2 0x149 JUMPI PUSH0 DUP1 REVERT JUMPDEST POP PUSH2 0x152 PUSH2 0x5BE JUMP JUMPDEST STOP JUMPDEST PUSH2 0x16E PUSH1 0x4 DUP1 CALLDATASIZE SUB DUP2 ADD SWAP1 PUSH2 0x169 SWAP2 SWAP1 PUSH2 0x104F JUMP JUMPDEST PUSH2 0x67F JUMP JUMPDEST STOP JUMPDEST CALLVALUE DUP1 ISZERO PUSH2 0x17B JUMPI PUSH0 DUP1 REVERT JUMPDEST POP PUSH2 0x184 PUSH2 0x7F6 JUMP JUMPDEST STOP JUMPDEST CALLVALUE DUP1 ISZERO PUSH2 0x191 JUMPI PUSH0 DUP1 REVERT JUMPDEST POP PUSH2 0x1AC PUSH1 0x4 DUP1 CALLDATASIZE SUB DUP2 ADD SWAP1 PUSH2 0x1A7 SWAP2 SWAP1 PUSH2 0x108D JUMP JUMPDEST PUSH2 0xA5A JUMP JUMPDEST PUSH1 0x40 MLOAD PUSH2 0x1B9 SWAP2 SWAP1 PUSH2 0x1008 JUMP JUMPDEST PUSH1 0x40 MLOAD DUP1 SWAP2 SUB SWAP1 RETURN JUMPDEST CALLVALUE DUP1 ISZERO PUSH2 0x1CD JUMPI PUSH0 DUP1 REVERT JUMPDEST POP PUSH2 0x1D6 PUSH2 0xA94 JUMP JUMPDEST PUSH1 0x40 MLOAD PUSH2 0x1E3 SWAP2 SWAP1 PUSH2 0xFB0 JUMP JUMPDEST PUSH1 0x40 MLOAD DUP1 SWAP2 SUB SWAP1 RETURN JUMPDEST CALLVALUE DUP1 ISZERO PUSH2 0x1F7 JUMPI PUSH0 DUP1 REVERT JUMPDEST POP PUSH2 0x212 PUSH1 0x4 DUP1 CALLDATASIZE SUB DUP2 ADD SWAP1 PUSH2 0x20D SWAP2 SWAP1 PUSH2 0x108D JUMP JUMPDEST PUSH2 0xA9A JUMP JUMPDEST PUSH1 0x40 MLOAD PUSH2 0x21F SWAP2 SWAP1 PUSH2 0xFB0 JUMP JUMPDEST PUSH1 0x40 MLOAD DUP1 SWAP2 SUB SWAP1 RETURN JUMPDEST CALLVALUE DUP1 ISZERO PUSH2 0x233 JUMPI PUSH0 DUP1 REVERT JUMPDEST POP PUSH2 0x23C PUSH2 0xAC3 JUMP JUMPDEST PUSH1 0x40 MLOAD PUSH2 0x249 SWAP2 SWAP1 PUSH2 0x112B JUMP JUMPDEST PUSH1 0x40 MLOAD DUP1 SWAP2 SUB SWAP1 RETURN JUMPDEST CALLVALUE DUP1 ISZERO PUSH2 0x25D JUMPI PUSH0 DUP1 REVERT JUMPDEST POP PUSH2 0x266 PUSH2 0xAD5 JUMP JUMPDEST STOP JUMPDEST CALLVALUE DUP1 ISZERO PUSH2 0x273 JUMPI PUSH0 DUP1 REVERT JUMPDEST POP PUSH2 0x27C PUSH2 0xBD4 JUMP JUMPDEST STOP JUMPDEST CALLVALUE DUP1 ISZERO PUSH2 0x289 JUMPI PUSH0 DUP1 REVERT JUMPDEST POP PUSH2 0x2A4 PUSH1 0x4 DUP1 CALLDATASIZE SUB DUP2 ADD SWAP1 PUSH2 0x29F SWAP2 SWAP1 PUSH2 0x116E JUMP JUMPDEST PUSH2 0xC9C JUMP JUMPDEST PUSH1 0x40 MLOAD PUSH2 0x2B3 SWAP4 SWAP3 SWAP2 SWAP1 PUSH2 0x1199 JUMP JUMPDEST PUSH1 0x40 MLOAD DUP1 SWAP2 SUB SWAP1 RETURN JUMPDEST CALLVALUE DUP1 ISZERO PUSH2 0x2C7 JUMPI PUSH0 DUP1 REVERT JUMPDEST POP PUSH2 0x2E2 PUSH1 0x4 DUP1 CALLDATASIZE SUB DUP2 ADD SWAP1 PUSH2 0x2DD SWAP2 SWAP1 PUSH2 0x108D JUMP JUMPDEST PUSH2 0xCE1 JUMP JUMPDEST STOP JUMPDEST PUSH0 PUSH1 0x2 DUP1 SLOAD SWAP1 POP SWAP1 POP SWAP1 JUMP JUMPDEST PUSH1 0x1 PUSH1 0x3 DUP2 GT ISZERO PUSH2 0x304 JUMPI PUSH2 0x303 PUSH2 0x10B8 JUMP JUMPDEST JUMPDEST PUSH1 0x5 PUSH0 SWAP1 SLOAD SWAP1 PUSH2 0x100 EXP SWAP1 DIV PUSH1 0xFF AND PUSH1 0x3 DUP2 GT ISZERO PUSH2 0x325 JUMPI PUSH2 0x324 PUSH2 0x10B8 JUMP JUMPDEST JUMPDEST EQ PUSH2 0x32E JUMPI PUSH0 DUP1 REVERT JUMPDEST PUSH7 0x11C37937E08000 CALLVALUE LT ISZERO PUSH2 0x341 JUMPI PUSH0 DUP1 REVERT JUMPDEST PUSH1 0x5 PUSH1 0x1 SWAP1 SLOAD SWAP1 PUSH2 0x100 EXP SWAP1 DIV PUSH20 0xFFFFFFFFFFFFFFFFFFFFFFFFFFFFFFFFFFFFFFFF AND PUSH20 0xFFFFFFFFFFFFFFFFFFFFFFFFFFFFFFFFFFFFFFFF AND CALLER PUSH20 0xFFFFFFFFFFFFFFFFFFFFFFFFFFFFFFFFFFFFFFFF AND SUB PUSH2 0x39A JUMPI PUSH0 DUP1 REVERT JUMPDEST PUSH0 PUSH1 0x1 PUSH0 CALLER PUSH20 0xFFFFFFFFFFFFFFFFFFFFFFFFFFFFFFFFFFFFFFFF AND PUSH20 0xFFFFFFFFFFFFFFFFFFFFFFFFFFFFFFFFFFFFFFFF AND DUP2 MSTORE PUSH1 0x20 ADD SWAP1 DUP2 MSTORE PUSH1 0x20 ADD PUSH0 KECCAK256 PUSH0 ADD SLOAD EQ PUSH2 0x3E4 JUMPI PUSH0 DUP1 REVERT JUMPDEST PUSH1 0x3 PUSH1 0x40 MLOAD DUP1 PUSH1 0x60 ADD PUSH1 0x40 MSTORE DUP1 PUSH1 0x1 PUSH1 0x6 SLOAD PUSH2 0x400 SWAP2 SWAP1 PUSH2 0x11FB JUMP JUMPDEST DUP2 MSTORE PUSH1 0x20 ADD CALLER PUSH20 0xFFFFFFFFFFFFFFFFFFFFFFFFFFFFFFFFFFFFFFFF AND DUP2 MSTORE PUSH1 0x20 ADD PUSH1 0x5 DUP2 MSTORE POP SWAP1 DUP1 PUSH1 0x1 DUP2 SLOAD ADD DUP1 DUP3 SSTORE DUP1 SWAP2 POP POP PUSH1 0x1 SWAP1 SUB SWAP1 PUSH0 MSTORE PUSH1 0x20 PUSH0 KECCAK256 SWAP1 PUSH1 0x3 MUL ADD PUSH0 SWAP1 SWAP2 SWAP1 SWAP2 SWAP1 SWAP2 POP PUSH0 DUP3 ADD MLOAD DUP2 PUSH0 ADD SSTORE PUSH1 0x20 DUP3 ADD MLOAD DUP2 PUSH1 0x1 ADD PUSH0 PUSH2 0x100 EXP DUP2 SLOAD DUP2 PUSH20 0xFFFFFFFFFFFFFFFFFFFFFFFFFFFFFFFFFFFFFFFF MUL NOT AND SWAP1 DUP4 PUSH20 0xFFFFFFFFFFFFFFFFFFFFFFFFFFFFFFFFFFFFFFFF AND MUL OR SWAP1 SSTORE POP PUSH1 0x40 DUP3 ADD MLOAD DUP2 PUSH1 0x2 ADD SSTORE POP POP PUSH1 0x3 PUSH1 0x6 SLOAD DUP2 SLOAD DUP2 LT PUSH2 0x4BC JUMPI PUSH2 0x4BB PUSH2 0x122E JUMP JUMPDEST JUMPDEST SWAP1 PUSH0 MSTORE PUSH1 0x20 PUSH0 KECCAK256 SWAP1 PUSH1 0x3 MUL ADD PUSH1 0x1 PUSH0 CALLER PUSH20 0xFFFFFFFFFFFFFFFFFFFFFFFFFFFFFFFFFFFFFFFF AND PUSH20 0xFFFFFFFFFFFFFFFFFFFFFFFFFFFFFFFFFFFFFFFF AND DUP2 MSTORE PUSH1 0x20 ADD SWAP1 DUP2 MSTORE PUSH1 0x20 ADD PUSH0 KECCAK256 PUSH0 DUP3 ADD SLOAD DUP2 PUSH0 ADD SSTORE PUSH1 0x1 DUP3 ADD PUSH0 SWAP1 SLOAD SWAP1 PUSH2 0x100 EXP SWAP1 DIV PUSH20 0xFFFFFFFFFFFFFFFFFFFFFFFFFFFFFFFFFFFFFFFF AND DUP2 PUSH1 0x1 ADD PUSH0 PUSH2 0x100 EXP DUP2 SLOAD DUP2 PUSH20 0xFFFFFFFFFFFFFFFFFFFFFFFFFFFFFFFFFFFFFFFF MUL NOT AND SWAP1 DUP4 PUSH20 0xFFFFFFFFFFFFFFFFFFFFFFFFFFFFFFFFFFFFFFFF AND MUL OR SWAP1 SSTORE POP PUSH1 0x2 DUP3 ADD SLOAD DUP2 PUSH1 0x2 ADD SSTORE SWAP1 POP POP PUSH1 0x6 PUSH0 DUP2 SLOAD DUP1 SWAP3 SWAP2 SWAP1 PUSH2 0x591 SWAP1 PUSH2 0x125B JUMP JUMPDEST SWAP2 SWAP1 POP SSTORE POP JUMP JUMPDEST PUSH1 0x5 PUSH1 0x1 SWAP1 SLOAD SWAP1 PUSH2 0x100 EXP SWAP1 DIV PUSH20 0xFFFFFFFFFFFFFFFFFFFFFFFFFFFFFFFFFFFFFFFF AND DUP2 JUMP JUMPDEST PUSH1 0x5 PUSH1 0x1 SWAP1 SLOAD SWAP1 PUSH2 0x100 EXP SWAP1 DIV PUSH20 0xFFFFFFFFFFFFFFFFFFFFFFFFFFFFFFFFFFFFFFFF AND PUSH20 0xFFFFFFFFFFFFFFFFFFFFFFFFFFFFFFFFFFFFFFFF AND CALLER PUSH20 0xFFFFFFFFFFFFFFFFFFFFFFFFFFFFFFFFFFFFFFFF AND EQ PUSH2 0x617 JUMPI PUSH0 DUP1 REVERT JUMPDEST PUSH1 0x5 PUSH1 0x1 SWAP1 SLOAD SWAP1 PUSH2 0x100 EXP SWAP1 DIV PUSH20 0xFFFFFFFFFFFFFFFFFFFFFFFFFFFFFFFFFFFFFFFF AND PUSH20 0xFFFFFFFFFFFFFFFFFFFFFFFFFFFFFFFFFFFFFFFF AND PUSH2 0x8FC SELFBALANCE SWAP1 DUP2 ISZERO MUL SWAP1 PUSH1 0x40 MLOAD PUSH0 PUSH1 0x40 MLOAD DUP1 DUP4 SUB DUP2 DUP6 DUP9 DUP9 CALL SWAP4 POP POP POP POP ISZERO DUP1 ISZERO PUSH2 0x67C JUMPI RETURNDATASIZE PUSH0 DUP1 RETURNDATACOPY RETURNDATASIZE PUSH0 REVERT JUMPDEST POP JUMP JUMPDEST DUP1 PUSH1 0x2 PUSH1 0x3 DUP2 GT ISZERO PUSH2 0x694 JUMPI PUSH2 0x693 PUSH2 0x10B8 JUMP JUMPDEST JUMPDEST PUSH1 0x5 PUSH0 SWAP1 SLOAD SWAP1 PUSH2 0x100 EXP SWAP1 DIV PUSH1 0xFF AND PUSH1 0x3 DUP2 GT ISZERO PUSH2 0x6B5 JUMPI PUSH2 0x6B4 PUSH2 0x10B8 JUMP JUMPDEST JUMPDEST EQ PUSH2 0x6BE JUMPI PUSH0 DUP1 REVERT JUMPDEST PUSH0 PUSH1 0x1 PUSH0 CALLER PUSH20 0xFFFFFFFFFFFFFFFFFFFFFFFFFFFFFFFFFFFFFFFF AND PUSH20 0xFFFFFFFFFFFFFFFFFFFFFFFFFFFFFFFFFFFFFFFF AND DUP2 MSTORE PUSH1 0x20 ADD SWAP1 DUP2 MSTORE PUSH1 0x20 ADD PUSH0 KECCAK256 PUSH0 ADD SLOAD SUB PUSH2 0x708 JUMPI PUSH0 DUP1 REVERT JUMPDEST DUP1 PUSH1 0x1 PUSH0 CALLER PUSH20 0xFFFFFFFFFFFFFFFFFFFFFFFFFFFFFFFFFFFFFFFF AND PUSH20 0xFFFFFFFFFFFFFFFFFFFFFFFFFFFFFFFFFFFFFFFF AND DUP2 MSTORE PUSH1 0x20 ADD SWAP1 DUP2 MSTORE PUSH1 0x20 ADD PUSH0 KECCAK256 PUSH1 0x2 ADD SLOAD LT ISZERO PUSH2 0x754 JUMPI PUSH0 DUP1 REVERT JUMPDEST DUP2 PUSH1 0x1 PUSH0 CALLER PUSH20 0xFFFFFFFFFFFFFFFFFFFFFFFFFFFFFFFFFFFFFFFF AND PUSH20 0xFFFFFFFFFFFFFFFFFFFFFFFFFFFFFFFFFFFFFFFF AND DUP2 MSTORE PUSH1 0x20 ADD SWAP1 DUP2 MSTORE PUSH1 0x20 ADD PUSH0 KECCAK256 PUSH1 0x2 ADD PUSH0 DUP3 DUP3 SLOAD PUSH2 0x7A3 SWAP2 SWAP1 PUSH2 0x12A2 JUMP JUMPDEST SWAP3 POP POP DUP2 SWAP1 SSTORE POP PUSH1 0x2 DUP4 DUP2 SLOAD DUP2 LT PUSH2 0x7BE JUMPI PUSH2 0x7BD PUSH2 0x122E JUMP JUMPDEST JUMPDEST SWAP1 PUSH0 MSTORE PUSH1 0x20 PUSH0 KECCAK256 SWAP1 PUSH1 0x2 MUL ADD PUSH1 0x1 ADD DUP3 SWAP1 DUP1 PUSH1 0x1 DUP2 SLOAD ADD DUP1 DUP3 SSTORE DUP1 SWAP2 POP POP PUSH1 0x1 SWAP1 SUB SWAP1 PUSH0 MSTORE PUSH1 0x20 PUSH0 KECCAK256 ADD PUSH0 SWAP1 SWAP2 SWAP1 SWAP2 SWAP1 SWAP2 POP SSTORE POP POP POP JUMP JUMPDEST PUSH1 0x5 PUSH1 0x1 SWAP1 SLOAD SWAP1 PUSH2 0x100 EXP SWAP1 DIV PUSH20 0xFFFFFFFFFFFFFFFFFFFFFFFFFFFFFFFFFFFFFFFF AND PUSH20 0xFFFFFFFFFFFFFFFFFFFFFFFFFFFFFFFFFFFFFFFF AND CALLER PUSH20 0xFFFFFFFFFFFFFFFFFFFFFFFFFFFFFFFFFFFFFFFF AND EQ PUSH2 0x84F JUMPI PUSH0 DUP1 REVERT JUMPDEST PUSH1 0x3 DUP1 DUP2 GT ISZERO PUSH2 0x862 JUMPI PUSH2 0x861 PUSH2 0x10B8 JUMP JUMPDEST JUMPDEST PUSH1 0x5 PUSH0 SWAP1 SLOAD SWAP1 PUSH2 0x100 EXP SWAP1 DIV PUSH1 0xFF AND PUSH1 0x3 DUP2 GT ISZERO PUSH2 0x883 JUMPI PUSH2 0x882 PUSH2 0x10B8 JUMP JUMPDEST JUMPDEST EQ PUSH2 0x88C JUMPI PUSH0 DUP1 REVERT JUMPDEST PUSH0 DUP1 JUMPDEST PUSH1 0x2 DUP1 SLOAD SWAP1 POP DUP2 LT ISZERO PUSH2 0xA56 JUMPI PUSH0 PUSH1 0x2 DUP3 DUP2 SLOAD DUP2 LT PUSH2 0x8B1 JUMPI PUSH2 0x8B0 PUSH2 0x122E JUMP JUMPDEST JUMPDEST SWAP1 PUSH0 MSTORE PUSH1 0x20 PUSH0 KECCAK256 SWAP1 PUSH1 0x2 MUL ADD PUSH1 0x1 ADD DUP1 SLOAD SWAP1 POP EQ PUSH2 0xA49 JUMPI PUSH1 0x2 DUP2 DUP2 SLOAD DUP2 LT PUSH2 0x8DD JUMPI PUSH2 0x8DC PUSH2 0x122E JUMP JUMPDEST JUMPDEST SWAP1 PUSH0 MSTORE PUSH1 0x20 PUSH0 KECCAK256 SWAP1 PUSH1 0x2 MUL ADD PUSH1 0x1 ADD DUP1 SLOAD SWAP1 POP PUSH1 0x2 DUP1 SLOAD SWAP1 POP TIMESTAMP PUSH2 0x901 SWAP2 SWAP1 PUSH2 0x1302 JUMP JUMPDEST PUSH1 0x2 DUP1 SLOAD SWAP1 POP NUMBER PUSH2 0x912 SWAP2 SWAP1 PUSH2 0x1302 JUMP JUMPDEST PUSH2 0x91C SWAP2 SWAP1 PUSH2 0x11FB JUMP JUMPDEST PUSH2 0x926 SWAP2 SWAP1 PUSH2 0x1332 JUMP JUMPDEST SWAP2 POP PUSH0 PUSH1 0x3 DUP4 DUP2 SLOAD DUP2 LT PUSH2 0x93D JUMPI PUSH2 0x93C PUSH2 0x122E JUMP JUMPDEST JUMPDEST SWAP1 PUSH0 MSTORE PUSH1 0x20 PUSH0 KECCAK256 SWAP1 PUSH1 0x3 MUL ADD PUSH1 0x1 ADD PUSH0 SWAP1 SLOAD SWAP1 PUSH2 0x100 EXP SWAP1 DIV PUSH20 0xFFFFFFFFFFFFFFFFFFFFFFFFFFFFFFFFFFFFFFFF AND SWAP1 DUP1 PUSH1 0x1 DUP2 SLOAD ADD DUP1 DUP3 SSTORE DUP1 SWAP2 POP POP PUSH1 0x1 SWAP1 SUB SWAP1 PUSH0 MSTORE PUSH1 0x20 PUSH0 KECCAK256 ADD PUSH0 SWAP1 SWAP2 SWAP1 SWAP2 SWAP1 SWAP2 PUSH2 0x100 EXP DUP2 SLOAD DUP2 PUSH20 0xFFFFFFFFFFFFFFFFFFFFFFFFFFFFFFFFFFFFFFFF MUL NOT AND SWAP1 DUP4 PUSH20 0xFFFFFFFFFFFFFFFFFFFFFFFFFFFFFFFFFFFFFFFF AND MUL OR SWAP1 SSTORE POP PUSH32 0xC20F09C8F5012D640A5F76343B381EC2CDA38BDE00D2D177EAA02B21D449EC46 PUSH1 0x3 DUP4 DUP2 SLOAD DUP2 LT PUSH2 0x9FE JUMPI PUSH2 0x9FD PUSH2 0x122E JUMP JUMPDEST JUMPDEST SWAP1 PUSH0 MSTORE PUSH1 0x20 PUSH0 KECCAK256 SWAP1 PUSH1 0x3 MUL ADD PUSH1 0x1 ADD PUSH0 SWAP1 SLOAD SWAP1 PUSH2 0x100 EXP SWAP1 DIV PUSH20 0xFFFFFFFFFFFFFFFFFFFFFFFFFFFFFFFFFFFFFFFF AND DUP3 PUSH1 0x4 SLOAD PUSH1 0x40 MLOAD PUSH2 0xA40 SWAP4 SWAP3 SWAP2 SWAP1 PUSH2 0x1362 JUMP JUMPDEST PUSH1 0x40 MLOAD DUP1 SWAP2 SUB SWAP1 LOG1 JUMPDEST DUP1 DUP1 PUSH1 0x1 ADD SWAP2 POP POP PUSH2 0x88F JUMP JUMPDEST POP POP JUMP JUMPDEST PUSH0 DUP2 DUP2 SLOAD DUP2 LT PUSH2 0xA68 JUMPI PUSH0 DUP1 REVERT JUMPDEST SWAP1 PUSH0 MSTORE PUSH1 0x20 PUSH0 KECCAK256 ADD PUSH0 SWAP2 POP SLOAD SWAP1 PUSH2 0x100 EXP SWAP1 DIV PUSH20 0xFFFFFFFFFFFFFFFFFFFFFFFFFFFFFFFFFFFFFFFF AND DUP2 JUMP JUMPDEST PUSH1 0x4 SLOAD DUP2 JUMP JUMPDEST PUSH1 0x2 DUP2 DUP2 SLOAD DUP2 LT PUSH2 0xAA9 JUMPI PUSH0 DUP1 REVERT JUMPDEST SWAP1 PUSH0 MSTORE PUSH1 0x20 PUSH0 KECCAK256 SWAP1 PUSH1 0x2 MUL ADD PUSH0 SWAP2 POP SWAP1 POP DUP1 PUSH0 ADD SLOAD SWAP1 POP DUP2 JUMP JUMPDEST PUSH1 0x5 PUSH0 SWAP1 SLOAD SWAP1 PUSH2 0x100 EXP SWAP1 DIV PUSH1 0xFF AND DUP2 JUMP JUMPDEST PUSH1 0x5 PUSH1 0x1 SWAP1 SLOAD SWAP1 PUSH2 0x100 EXP SWAP1 DIV PUSH20 0xFFFFFFFFFFFFFFFFFFFFFFFFFFFFFFFFFFFFFFFF AND PUSH20 0xFFFFFFFFFFFFFFFFFFFFFFFFFFFFFFFFFFFFFFFF AND CALLER PUSH20 0xFFFFFFFFFFFFFFFFFFFFFFFFFFFFFFFFFFFFFFFF AND EQ PUSH2 0xB2E JUMPI PUSH0 DUP1 REVERT JUMPDEST PUSH1 0x3 DUP1 DUP2 GT ISZERO PUSH2 0xB41 JUMPI PUSH2 0xB40 PUSH2 0x10B8 JUMP JUMPDEST JUMPDEST PUSH1 0x5 PUSH0 SWAP1 SLOAD SWAP1 PUSH2 0x100 EXP SWAP1 DIV PUSH1 0xFF AND PUSH1 0x3 DUP2 GT ISZERO PUSH2 0xB62 JUMPI PUSH2 0xB61 PUSH2 0x10B8 JUMP JUMPDEST JUMPDEST LT PUSH2 0xB6B JUMPI PUSH0 DUP1 REVERT JUMPDEST PUSH1 0x1 PUSH1 0x5 PUSH0 SWAP1 SLOAD SWAP1 PUSH2 0x100 EXP SWAP1 DIV PUSH1 0xFF AND PUSH1 0x3 DUP2 GT ISZERO PUSH2 0xB8E JUMPI PUSH2 0xB8D PUSH2 0x10B8 JUMP JUMPDEST JUMPDEST PUSH2 0xB98 SWAP2 SWAP1 PUSH2 0x11FB JUMP JUMPDEST PUSH1 0x3 DUP2 GT ISZERO PUSH2 0xBAA JUMPI PUSH2 0xBA9 PUSH2 0x10B8 JUMP JUMPDEST JUMPDEST PUSH1 0x5 PUSH0 PUSH2 0x100 EXP DUP2 SLOAD DUP2 PUSH1 0xFF MUL NOT AND SWAP1 DUP4 PUSH1 0x3 DUP2 GT ISZERO PUSH2 0xBCD JUMPI PUSH2 0xBCC PUSH2 0x10B8 JUMP JUMPDEST JUMPDEST MUL OR SWAP1 SSTORE POP JUMP JUMPDEST PUSH1 0x5 PUSH1 0x1 SWAP1 SLOAD SWAP1 PUSH2 0x100 EXP SWAP1 DIV PUSH20 0xFFFFFFFFFFFFFFFFFFFFFFFFFFFFFFFFFFFFFFFF AND PUSH20 0xFFFFFFFFFFFFFFFFFFFFFFFFFFFFFFFFFFFFFFFF AND CALLER PUSH20 0xFFFFFFFFFFFFFFFFFFFFFFFFFFFFFFFFFFFFFFFF AND EQ PUSH2 0xC2D JUMPI PUSH0 DUP1 REVERT JUMPDEST PUSH1 0x3 PUSH0 PUSH2 0xC3A SWAP2 SWAP1 PUSH2 0xE3E JUMP JUMPDEST PUSH1 0x2 PUSH0 PUSH2 0xC47 SWAP2 SWAP1 PUSH2 0xE5F JUMP JUMPDEST PUSH0 DUP1 PUSH2 0xC53 SWAP2 SWAP1 PUSH2 0xE80 JUMP JUMPDEST PUSH0 PUSH1 0x6 DUP2 SWAP1 SSTORE POP PUSH0 PUSH1 0x5 PUSH0 PUSH2 0x100 EXP DUP2 SLOAD DUP2 PUSH1 0xFF MUL NOT AND SWAP1 DUP4 PUSH1 0x3 DUP2 GT ISZERO PUSH2 0xC7E JUMPI PUSH2 0xC7D PUSH2 0x10B8 JUMP JUMPDEST JUMPDEST MUL OR SWAP1 SSTORE POP PUSH1 0x4 PUSH0 DUP2 SLOAD DUP1 SWAP3 SWAP2 SWAP1 PUSH2 0xC95 SWAP1 PUSH2 0x125B JUMP JUMPDEST SWAP2 SWAP1 POP SSTORE POP JUMP JUMPDEST PUSH1 0x1 PUSH1 0x20 MSTORE DUP1 PUSH0 MSTORE PUSH1 0x40 PUSH0 KECCAK256 PUSH0 SWAP2 POP SWAP1 POP DUP1 PUSH0 ADD SLOAD SWAP1 DUP1 PUSH1 0x1 ADD PUSH0 SWAP1 SLOAD SWAP1 PUSH2 0x100 EXP SWAP1 DIV PUSH20 0xFFFFFFFFFFFFFFFFFFFFFFFFFFFFFFFFFFFFFFFF AND SWAP1 DUP1 PUSH1 0x2 ADD SLOAD SWAP1 POP DUP4 JUMP JUMPDEST PUSH1 0x5 PUSH1 0x1 SWAP1 SLOAD SWAP1 PUSH2 0x100 EXP SWAP1 DIV PUSH20 0xFFFFFFFFFFFFFFFFFFFFFFFFFFFFFFFFFFFFFFFF AND PUSH20 0xFFFFFFFFFFFFFFFFFFFFFFFFFFFFFFFFFFFFFFFF AND CALLER PUSH20 0xFFFFFFFFFFFFFFFFFFFFFFFFFFFFFFFFFFFFFFFF AND EQ PUSH2 0xD3A JUMPI PUSH0 DUP1 REVERT JUMPDEST PUSH0 PUSH1 0x3 DUP2 GT ISZERO PUSH2 0xD4D JUMPI PUSH2 0xD4C PUSH2 0x10B8 JUMP JUMPDEST JUMPDEST PUSH1 0x5 PUSH0 SWAP1 SLOAD SWAP1 PUSH2 0x100 EXP SWAP1 DIV PUSH1 0xFF AND PUSH1 0x3 DUP2 GT ISZERO PUSH2 0xD6E JUMPI PUSH2 0xD6D PUSH2 0x10B8 JUMP JUMPDEST JUMPDEST EQ PUSH2 0xD77 JUMPI PUSH0 DUP1 REVERT JUMPDEST PUSH0 JUMPDEST DUP2 DUP2 LT ISZERO PUSH2 0xE3A JUMPI PUSH1 0x2 PUSH1 0x40 MLOAD DUP1 PUSH1 0x40 ADD PUSH1 0x40 MSTORE DUP1 DUP4 DUP2 MSTORE PUSH1 0x20 ADD PUSH0 PUSH8 0xFFFFFFFFFFFFFFFF DUP2 GT ISZERO PUSH2 0xDAE JUMPI PUSH2 0xDAD PUSH2 0x1397 JUMP JUMPDEST JUMPDEST PUSH1 0x40 MLOAD SWAP1 DUP1 DUP3 MSTORE DUP1 PUSH1 0x20 MUL PUSH1 0x20 ADD DUP3 ADD PUSH1 0x40 MSTORE DUP1 ISZERO PUSH2 0xDDC JUMPI DUP2 PUSH1 0x20 ADD PUSH1 0x20 DUP3 MUL DUP1 CALLDATASIZE DUP4 CALLDATACOPY DUP1 DUP3 ADD SWAP2 POP POP SWAP1 POP JUMPDEST POP DUP2 MSTORE POP SWAP1 DUP1 PUSH1 0x1 DUP2 SLOAD ADD DUP1 DUP3 SSTORE DUP1 SWAP2 POP POP PUSH1 0x1 SWAP1 SUB SWAP1 PUSH0 MSTORE PUSH1 0x20 PUSH0 KECCAK256 SWAP1 PUSH1 0x2 MUL ADD PUSH0 SWAP1 SWAP2 SWAP1 SWAP2 SWAP1 SWAP2 POP PUSH0 DUP3 ADD MLOAD DUP2 PUSH0 ADD SSTORE PUSH1 0x20 DUP3 ADD MLOAD DUP2 PUSH1 0x1 ADD SWAP1 DUP1 MLOAD SWAP1 PUSH1 0x20 ADD SWAP1 PUSH2 0xE2A SWAP3 SWAP2 SWAP1 PUSH2 0xE9E JUMP JUMPDEST POP POP POP DUP1 DUP1 PUSH1 0x1 ADD SWAP2 POP POP PUSH2 0xD79 JUMP JUMPDEST POP POP JUMP JUMPDEST POP DUP1 SLOAD PUSH0 DUP3 SSTORE PUSH1 0x3 MUL SWAP1 PUSH0 MSTORE PUSH1 0x20 PUSH0 KECCAK256 SWAP1 DUP2 ADD SWAP1 PUSH2 0xE5C SWAP2 SWAP1 PUSH2 0xEE9 JUMP JUMPDEST POP JUMP JUMPDEST POP DUP1 SLOAD PUSH0 DUP3 SSTORE PUSH1 0x2 MUL SWAP1 PUSH0 MSTORE PUSH1 0x20 PUSH0 KECCAK256 SWAP1 DUP2 ADD SWAP1 PUSH2 0xE7D SWAP2 SWAP1 PUSH2 0xF33 JUMP JUMPDEST POP JUMP JUMPDEST POP DUP1 SLOAD PUSH0 DUP3 SSTORE SWAP1 PUSH0 MSTORE PUSH1 0x20 PUSH0 KECCAK256 SWAP1 DUP2 ADD SWAP1 PUSH2 0xE9B SWAP2 SWAP1 PUSH2 0xF5F JUMP JUMPDEST POP JUMP JUMPDEST DUP3 DUP1 SLOAD DUP3 DUP3 SSTORE SWAP1 PUSH0 MSTORE PUSH1 0x20 PUSH0 KECCAK256 SWAP1 DUP2 ADD SWAP3 DUP3 ISZERO PUSH2 0xED8 JUMPI SWAP2 PUSH1 0x20 MUL DUP3 ADD JUMPDEST DUP3 DUP2 GT ISZERO PUSH2 0xED7 JUMPI DUP3 MLOAD DUP3 SSTORE SWAP2 PUSH1 0x20 ADD SWAP2 SWAP1 PUSH1 0x1 ADD SWAP1 PUSH2 0xEBC JUMP JUMPDEST JUMPDEST POP SWAP1 POP PUSH2 0xEE5 SWAP2 SWAP1 PUSH2 0xF5F JUMP JUMPDEST POP SWAP1 JUMP JUMPDEST JUMPDEST DUP1 DUP3 GT ISZERO PUSH2 0xF2F JUMPI PUSH0 DUP1 DUP3 ADD PUSH0 SWAP1 SSTORE PUSH1 0x1 DUP3 ADD PUSH0 PUSH2 0x100 EXP DUP2 SLOAD SWAP1 PUSH20 0xFFFFFFFFFFFFFFFFFFFFFFFFFFFFFFFFFFFFFFFF MUL NOT AND SWAP1 SSTORE PUSH1 0x2 DUP3 ADD PUSH0 SWAP1 SSTORE POP PUSH1 0x3 ADD PUSH2 0xEEA JUMP JUMPDEST POP SWAP1 JUMP JUMPDEST JUMPDEST DUP1 DUP3 GT ISZERO PUSH2 0xF5B JUMPI PUSH0 DUP1 DUP3 ADD PUSH0 SWAP1 SSTORE PUSH1 0x1 DUP3 ADD PUSH0 PUSH2 0xF52 SWAP2 SWAP1 PUSH2 0xF7A JUMP JUMPDEST POP PUSH1 0x2 ADD PUSH2 0xF34 JUMP JUMPDEST POP SWAP1 JUMP JUMPDEST JUMPDEST DUP1 DUP3 GT ISZERO PUSH2 0xF76 JUMPI PUSH0 DUP2 PUSH0 SWAP1 SSTORE POP PUSH1 0x1 ADD PUSH2 0xF60 JUMP JUMPDEST POP SWAP1 JUMP JUMPDEST POP DUP1 SLOAD PUSH0 DUP3 SSTORE SWAP1 PUSH0 MSTORE PUSH1 0x20 PUSH0 KECCAK256 SWAP1 DUP2 ADD SWAP1 PUSH2 0xF95 SWAP2 SWAP1 PUSH2 0xF5F JUMP JUMPDEST POP JUMP JUMPDEST PUSH0 DUP2 SWAP1 POP SWAP2 SWAP1 POP JUMP JUMPDEST PUSH2 0xFAA DUP2 PUSH2 0xF98 JUMP JUMPDEST DUP3 MSTORE POP POP JUMP JUMPDEST PUSH0 PUSH1 0x20 DUP3 ADD SWAP1 POP PUSH2 0xFC3 PUSH0 DUP4 ADD DUP5 PUSH2 0xFA1 JUMP JUMPDEST SWAP3 SWAP2 POP POP JUMP JUMPDEST PUSH0 PUSH20 0xFFFFFFFFFFFFFFFFFFFFFFFFFFFFFFFFFFFFFFFF DUP3 AND SWAP1 POP SWAP2 SWAP1 POP JUMP JUMPDEST PUSH0 PUSH2 0xFF2 DUP3 PUSH2 0xFC9 JUMP JUMPDEST SWAP1 POP SWAP2 SWAP1 POP JUMP JUMPDEST PUSH2 0x1002 DUP2 PUSH2 0xFE8 JUMP JUMPDEST DUP3 MSTORE POP POP JUMP JUMPDEST PUSH0 PUSH1 0x20 DUP3 ADD SWAP1 POP PUSH2 0x101B PUSH0 DUP4 ADD DUP5 PUSH2 0xFF9 JUMP JUMPDEST SWAP3 SWAP2 POP POP JUMP JUMPDEST PUSH0 DUP1 REVERT JUMPDEST PUSH2 0x102E DUP2 PUSH2 0xF98 JUMP JUMPDEST DUP2 EQ PUSH2 0x1038 JUMPI PUSH0 DUP1 REVERT JUMPDEST POP JUMP JUMPDEST PUSH0 DUP2 CALLDATALOAD SWAP1 POP PUSH2 0x1049 DUP2 PUSH2 0x1025 JUMP JUMPDEST SWAP3 SWAP2 POP POP JUMP JUMPDEST PUSH0 DUP1 PUSH1 0x40 DUP4 DUP6 SUB SLT ISZERO PUSH2 0x1065 JUMPI PUSH2 0x1064 PUSH2 0x1021 JUMP JUMPDEST JUMPDEST PUSH0 PUSH2 0x1072 DUP6 DUP3 DUP7 ADD PUSH2 0x103B JUMP JUMPDEST SWAP3 POP POP PUSH1 0x20 PUSH2 0x1083 DUP6 DUP3 DUP7 ADD PUSH2 0x103B JUMP JUMPDEST SWAP2 POP POP SWAP3 POP SWAP3 SWAP1 POP JUMP JUMPDEST PUSH0 PUSH1 0x20 DUP3 DUP5 SUB SLT ISZERO PUSH2 0x10A2 JUMPI PUSH2 0x10A1 PUSH2 0x1021 JUMP JUMPDEST JUMPDEST PUSH0 PUSH2 0x10AF DUP5 DUP3 DUP6 ADD PUSH2 0x103B JUMP JUMPDEST SWAP2 POP POP SWAP3 SWAP2 POP POP JUMP JUMPDEST PUSH32 0x4E487B7100000000000000000000000000000000000000000000000000000000 PUSH0 MSTORE PUSH1 0x21 PUSH1 0x4 MSTORE PUSH1 0x24 PUSH0 REVERT JUMPDEST PUSH1 0x4 DUP2 LT PUSH2 0x10F6 JUMPI PUSH2 0x10F5 PUSH2 0x10B8 JUMP JUMPDEST JUMPDEST POP JUMP JUMPDEST PUSH0 DUP2 SWAP1 POP PUSH2 0x1106 DUP3 PUSH2 0x10E5 JUMP JUMPDEST SWAP2 SWAP1 POP JUMP JUMPDEST PUSH0 PUSH2 0x1115 DUP3 PUSH2 0x10F9 JUMP JUMPDEST SWAP1 POP SWAP2 SWAP1 POP JUMP JUMPDEST PUSH2 0x1125 DUP2 PUSH2 0x110B JUMP JUMPDEST DUP3 MSTORE POP POP JUMP JUMPDEST PUSH0 PUSH1 0x20 DUP3 ADD SWAP1 POP PUSH2 0x113E PUSH0 DUP4 ADD DUP5 PUSH2 0x111C JUMP JUMPDEST SWAP3 SWAP2 POP POP JUMP JUMPDEST PUSH2 0x114D DUP2 PUSH2 0xFE8 JUMP JUMPDEST DUP2 EQ PUSH2 0x1157 JUMPI PUSH0 DUP1 REVERT JUMPDEST POP JUMP JUMPDEST PUSH0 DUP2 CALLDATALOAD SWAP1 POP PUSH2 0x1168 DUP2 PUSH2 0x1144 JUMP JUMPDEST SWAP3 SWAP2 POP POP JUMP JUMPDEST PUSH0 PUSH1 0x20 DUP3 DUP5 SUB SLT ISZERO PUSH2 0x1183 JUMPI PUSH2 0x1182 PUSH2 0x1021 JUMP JUMPDEST JUMPDEST PUSH0 PUSH2 0x1190 DUP5 DUP3 DUP6 ADD PUSH2 0x115A JUMP JUMPDEST SWAP2 POP POP SWAP3 SWAP2 POP POP JUMP JUMPDEST PUSH0 PUSH1 0x60 DUP3 ADD SWAP1 POP PUSH2 0x11AC PUSH0 DUP4 ADD DUP7 PUSH2 0xFA1 JUMP JUMPDEST PUSH2 0x11B9 PUSH1 0x20 DUP4 ADD DUP6 PUSH2 0xFF9 JUMP JUMPDEST PUSH2 0x11C6 PUSH1 0x40 DUP4 ADD DUP5 PUSH2 0xFA1 JUMP JUMPDEST SWAP5 SWAP4 POP POP POP POP JUMP JUMPDEST PUSH32 0x4E487B7100000000000000000000000000000000000000000000000000000000 PUSH0 MSTORE PUSH1 0x11 PUSH1 0x4 MSTORE PUSH1 0x24 PUSH0 REVERT JUMPDEST PUSH0 PUSH2 0x1205 DUP3 PUSH2 0xF98 JUMP JUMPDEST SWAP2 POP PUSH2 0x1210 DUP4 PUSH2 0xF98 JUMP JUMPDEST SWAP3 POP DUP3 DUP3 ADD SWAP1 POP DUP1 DUP3 GT ISZERO PUSH2 0x1228 JUMPI PUSH2 0x1227 PUSH2 0x11CE JUMP JUMPDEST JUMPDEST SWAP3 SWAP2 POP POP JUMP JUMPDEST PUSH32 0x4E487B7100000000000000000000000000000000000000000000000000000000 PUSH0 MSTORE PUSH1 0x32 PUSH1 0x4 MSTORE PUSH1 0x24 PUSH0 REVERT JUMPDEST PUSH0 PUSH2 0x1265 DUP3 PUSH2 0xF98 JUMP JUMPDEST SWAP2 POP PUSH32 0xFFFFFFFFFFFFFFFFFFFFFFFFFFFFFFFFFFFFFFFFFFFFFFFFFFFFFFFFFFFFFFFF DUP3 SUB PUSH2 0x1297 JUMPI PUSH2 0x1296 PUSH2 0x11CE JUMP JUMPDEST JUMPDEST PUSH1 0x1 DUP3 ADD SWAP1 POP SWAP2 SWAP1 POP JUMP JUMPDEST PUSH0 PUSH2 0x12AC DUP3 PUSH2 0xF98 JUMP JUMPDEST SWAP2 POP PUSH2 0x12B7 DUP4 PUSH2 0xF98 JUMP JUMPDEST SWAP3 POP DUP3 DUP3 SUB SWAP1 POP DUP2 DUP2 GT ISZERO PUSH2 0x12CF JUMPI PUSH2 0x12CE PUSH2 0x11CE JUMP JUMPDEST JUMPDEST SWAP3 SWAP2 POP POP JUMP JUMPDEST PUSH32 0x4E487B7100000000000000000000000000000000000000000000000000000000 PUSH0 MSTORE PUSH1 0x12 PUSH1 0x4 MSTORE PUSH1 0x24 PUSH0 REVERT JUMPDEST PUSH0 PUSH2 0x130C DUP3 PUSH2 0xF98 JUMP JUMPDEST SWAP2 POP PUSH2 0x1317 DUP4 PUSH2 0xF98 JUMP JUMPDEST SWAP3 POP DUP3 PUSH2 0x1327 JUMPI PUSH2 0x1326 PUSH2 0x12D5 JUMP JUMPDEST JUMPDEST DUP3 DUP3 DIV SWAP1 POP SWAP3 SWAP2 POP POP JUMP JUMPDEST PUSH0 PUSH2 0x133C DUP3 PUSH2 0xF98 JUMP JUMPDEST SWAP2 POP PUSH2 0x1347 DUP4 PUSH2 0xF98 JUMP JUMPDEST SWAP3 POP DUP3 PUSH2 0x1357 JUMPI PUSH2 0x1356 PUSH2 0x12D5 JUMP JUMPDEST JUMPDEST DUP3 DUP3 MOD SWAP1 POP SWAP3 SWAP2 POP POP JUMP JUMPDEST PUSH0 PUSH1 0x60 DUP3 ADD SWAP1 POP PUSH2 0x1375 PUSH0 DUP4 ADD DUP7 PUSH2 0xFF9 JUMP JUMPDEST PUSH2 0x1382 PUSH1 0x20 DUP4 ADD DUP6 PUSH2 0xFA1 JUMP JUMPDEST PUSH2 0x138F PUSH1 0x40 DUP4 ADD DUP5 PUSH2 0xFA1 JUMP JUMPDEST SWAP5 SWAP4 POP POP POP POP JUMP JUMPDEST PUSH32 0x4E487B7100000000000000000000000000000000000000000000000000000000 PUSH0 MSTORE PUSH1 0x41 PUSH1 0x4 MSTORE PUSH1 0x24 PUSH0 REVERT INVALID LOG2 PUSH5 0x6970667358 0x22 SLT KECCAK256 DIV PUSH14 0xD48F4AF16200FE2FF940371174B8 NOT ADD 0xB6 PUSH17 0xC9B6C521F80F951292BA869864736F6C63 NUMBER STOP ADDMOD AND STOP CALLER "
				},
				"gasEstimates": {
					"creation": {
						"codeDepositCost": "1022800",
						"executionCost": "infinite",
						"totalCost": "infinite"
					},
					"external": {
						"addMoreItems(uint256)": "infinite",
						"advanceStage()": "infinite",
						"amountOfItems()": "2464",
						"beneficiary()": "2627",
						"bid(uint256,uint256)": "infinite",
						"items(uint256)": "infinite",
						"lotteryNumber()": "2448",
						"register()": "infinite",
						"reset()": "infinite",
						"revealWinners()": "infinite",
						"stage()": "2621",
						"tokenDetails(address)": "infinite",
						"winners(uint256)": "5032",
						"withdraw()": "infinite"
					}
				},
				"methodIdentifiers": {
					"addMoreItems(uint256)": "ddc48f7f",
					"advanceStage()": "c33f48fd",
					"amountOfItems()": "08704df2",
					"beneficiary()": "38af3eed",
					"bid(uint256,uint256)": "598647f8",
					"items(uint256)": "bfb231d2",
					"lotteryNumber()": "aa103e44",
					"register()": "1aa3a008",
					"reset()": "d826f88f",
					"revealWinners()": "952587d6",
					"stage()": "c040e6b8",
					"tokenDetails(address)": "dd4be683",
					"winners(uint256)": "a2fb1175",
					"withdraw()": "3ccfd60b"
				}
			},
			"storageLayout": {
				"storage": [
					{
						"astId": 22,
						"contract": "Lottery.sol:Lottery",
						"label": "winners",
						"offset": 0,
						"slot": "0",
						"type": "t_array(t_address)dyn_storage"
					},
					{
						"astId": 27,
						"contract": "Lottery.sol:Lottery",
						"label": "tokenDetails",
						"offset": 0,
						"slot": "1",
						"type": "t_mapping(t_address,t_struct(Person)14_storage)"
					},
					{
						"astId": 31,
						"contract": "Lottery.sol:Lottery",
						"label": "items",
						"offset": 0,
						"slot": "2",
						"type": "t_array(t_struct(Item)7_storage)dyn_storage"
					},
					{
						"astId": 35,
						"contract": "Lottery.sol:Lottery",
						"label": "bidders",
						"offset": 0,
						"slot": "3",
						"type": "t_array(t_struct(Person)14_storage)dyn_storage"
					},
					{
						"astId": 38,
						"contract": "Lottery.sol:Lottery",
						"label": "lotteryNumber",
						"offset": 0,
						"slot": "4",
						"type": "t_uint256"
					},
					{
						"astId": 43,
						"contract": "Lottery.sol:Lottery",
						"label": "stage",
						"offset": 0,
						"slot": "5",
						"type": "t_enum(Stage)19"
					},
					{
						"astId": 45,
						"contract": "Lottery.sol:Lottery",
						"label": "beneficiary",
						"offset": 1,
						"slot": "5",
						"type": "t_address"
					},
					{
						"astId": 59,
						"contract": "Lottery.sol:Lottery",
						"label": "bidderCount",
						"offset": 0,
						"slot": "6",
						"type": "t_uint256"
					}
				],
				"types": {
					"t_address": {
						"encoding": "inplace",
						"label": "address",
						"numberOfBytes": "20"
					},
					"t_array(t_address)dyn_storage": {
						"base": "t_address",
						"encoding": "dynamic_array",
						"label": "address[]",
						"numberOfBytes": "32"
					},
					"t_array(t_struct(Item)7_storage)dyn_storage": {
						"base": "t_struct(Item)7_storage",
						"encoding": "dynamic_array",
						"label": "struct Item[]",
						"numberOfBytes": "32"
					},
					"t_array(t_struct(Person)14_storage)dyn_storage": {
						"base": "t_struct(Person)14_storage",
						"encoding": "dynamic_array",
						"label": "struct Person[]",
						"numberOfBytes": "32"
					},
					"t_array(t_uint256)dyn_storage": {
						"base": "t_uint256",
						"encoding": "dynamic_array",
						"label": "uint256[]",
						"numberOfBytes": "32"
					},
					"t_enum(Stage)19": {
						"encoding": "inplace",
						"label": "enum Stage",
						"numberOfBytes": "1"
					},
					"t_mapping(t_address,t_struct(Person)14_storage)": {
						"encoding": "mapping",
						"key": "t_address",
						"label": "mapping(address => struct Person)",
						"numberOfBytes": "32",
						"value": "t_struct(Person)14_storage"
					},
					"t_struct(Item)7_storage": {
						"encoding": "inplace",
						"label": "struct Item",
						"members": [
							{
								"astId": 3,
								"contract": "Lottery.sol:Lottery",
								"label": "itemId",
								"offset": 0,
								"slot": "0",
								"type": "t_uint256"
							},
							{
								"astId": 6,
								"contract": "Lottery.sol:Lottery",
								"label": "itemTokens",
								"offset": 0,
								"slot": "1",
								"type": "t_array(t_uint256)dyn_storage"
							}
						],
						"numberOfBytes": "64"
					},
					"t_struct(Person)14_storage": {
						"encoding": "inplace",
						"label": "struct Person",
						"members": [
							{
								"astId": 9,
								"contract": "Lottery.sol:Lottery",
								"label": "personId",
								"offset": 0,
								"slot": "0",
								"type": "t_uint256"
							},
							{
								"astId": 11,
								"contract": "Lottery.sol:Lottery",
								"label": "addr",
								"offset": 0,
								"slot": "1",
								"type": "t_address"
							},
							{
								"astId": 13,
								"contract": "Lottery.sol:Lottery",
								"label": "remainingTokens",
								"offset": 0,
								"slot": "2",
								"type": "t_uint256"
							}
						],
						"numberOfBytes": "96"
					},
					"t_uint256": {
						"encoding": "inplace",
						"label": "uint256",
						"numberOfBytes": "32"
					}
				}
			},
			"userdoc": {
				"kind": "user",
				"methods": {},
				"version": 1
			}
		}
	}
}