{
	"Lottery.sol": {
		"Lottery": {
			"abi": [
				{
					"inputs": [
						{
							"internalType": "uint256",
							"name": "_itemCount",
							"type": "uint256"
						}
					],
					"stateMutability": "nonpayable",
					"type": "constructor"
				},
				{
					"anonymous": false,
					"inputs": [
						{
							"indexed": false,
							"internalType": "address",
							"name": "winner",
							"type": "address"
						},
						{
							"indexed": false,
							"internalType": "uint256",
							"name": "item",
							"type": "uint256"
						},
						{
							"indexed": false,
							"internalType": "uint256",
							"name": "lotteryNumber",
							"type": "uint256"
						}
					],
					"name": "WinnerEvent",
					"type": "event"
				},
				{
					"inputs": [
						{
							"internalType": "uint256",
							"name": "_itemCount",
							"type": "uint256"
						}
					],
					"name": "addMoreItems",
					"outputs": [],
					"stateMutability": "nonpayable",
					"type": "function"
				},
				{
					"inputs": [],
					"name": "advanceStage",
					"outputs": [],
					"stateMutability": "nonpayable",
					"type": "function"
				},
				{
					"inputs": [],
					"name": "amountOfItems",
					"outputs": [
						{
							"internalType": "uint256",
							"name": "count",
							"type": "uint256"
						}
					],
					"stateMutability": "view",
					"type": "function"
				},
				{
					"inputs": [],
					"name": "beneficiary",
					"outputs": [
						{
							"internalType": "address",
							"name": "",
							"type": "address"
						}
					],
					"stateMutability": "view",
					"type": "function"
				},
				{
					"inputs": [
						{
							"internalType": "uint256",
							"name": "_itemId",
							"type": "uint256"
						},
						{
							"internalType": "uint256",
							"name": "_count",
							"type": "uint256"
						}
					],
					"name": "bid",
					"outputs": [],
					"stateMutability": "payable",
					"type": "function"
				},
				{
					"inputs": [
						{
							"internalType": "uint256",
							"name": "",
							"type": "uint256"
						}
					],
					"name": "items",
					"outputs": [
						{
							"internalType": "uint256",
							"name": "itemId",
							"type": "uint256"
						}
					],
					"stateMutability": "view",
					"type": "function"
				},
				{
					"inputs": [],
					"name": "lotteryNumber",
					"outputs": [
						{
							"internalType": "uint256",
							"name": "",
							"type": "uint256"
						}
					],
					"stateMutability": "view",
					"type": "function"
				},
				{
					"inputs": [],
					"name": "register",
					"outputs": [],
					"stateMutability": "payable",
					"type": "function"
				},
				{
					"inputs": [
						{
							"internalType": "uint256",
							"name": "_itemCount",
							"type": "uint256"
						}
					],
					"name": "reset",
					"outputs": [],
					"stateMutability": "nonpayable",
					"type": "function"
				},
				{
					"inputs": [],
					"name": "revealWinners",
					"outputs": [],
					"stateMutability": "nonpayable",
					"type": "function"
				},
				{
					"inputs": [],
					"name": "stage",
					"outputs": [
						{
							"internalType": "enum Stage",
							"name": "",
							"type": "uint8"
						}
					],
					"stateMutability": "view",
					"type": "function"
				},
				{
					"inputs": [
						{
							"internalType": "address",
							"name": "",
							"type": "address"
						}
					],
					"name": "tokenDetails",
					"outputs": [
						{
							"internalType": "uint256",
							"name": "personId",
							"type": "uint256"
						},
						{
							"internalType": "address",
							"name": "addr",
							"type": "address"
						},
						{
							"internalType": "uint256",
							"name": "remainingTokens",
							"type": "uint256"
						}
					],
					"stateMutability": "view",
					"type": "function"
				},
				{
					"inputs": [],
					"name": "winnerGetter",
					"outputs": [
						{
							"internalType": "address[]",
							"name": "",
							"type": "address[]"
						}
					],
					"stateMutability": "view",
					"type": "function"
				},
				{
					"inputs": [
						{
							"internalType": "uint256",
							"name": "",
							"type": "uint256"
						}
					],
					"name": "winners",
					"outputs": [
						{
							"internalType": "address",
							"name": "",
							"type": "address"
						}
					],
					"stateMutability": "view",
					"type": "function"
				},
				{
					"inputs": [],
					"name": "withdraw",
					"outputs": [],
					"stateMutability": "nonpayable",
					"type": "function"
				}
			],
			"devdoc": {
				"kind": "dev",
				"methods": {},
				"version": 1
			},
			"evm": {
				"assembly": "    /* \"Lottery.sol\":296:4089  contract Lottery{... */\n  mstore(0x40, 0x80)\n    /* \"Lottery.sol\":476:477  0 */\n  0x00\n    /* \"Lottery.sol\":448:477  uint public lotteryNumber = 0 */\n  0x04\n  sstore\n    /* \"Lottery.sol\":504:514  Stage.Init */\n  0x00\n    /* \"Lottery.sol\":483:514  Stage public stage = Stage.Init */\n  0x05\n  exp(0x0100, 0x00)\n  dup2\n  sload\n  dup2\n  0xff\n  mul\n  not\n  and\n  swap1\n  dup4\n  0x03\n  dup2\n  gt\n  iszero\n  tag_1\n  jumpi\n  tag_2\n  tag_3\n  jump\t// in\ntag_2:\ntag_1:\n  mul\n  or\n  swap1\n  sstore\n  pop\n    /* \"Lottery.sol\":704:705  0 */\n  0x00\n    /* \"Lottery.sol\":685:705  uint bidderCount = 0 */\n  0x06\n  sstore\n    /* \"Lottery.sol\":712:890  constructor(uint _itemCount) {... */\n  callvalue\n  dup1\n  iszero\n  tag_4\n  jumpi\n  0x00\n  dup1\n  revert\ntag_4:\n  pop\n  mload(0x40)\n  sub(codesize, bytecodeSize)\n  dup1\n  bytecodeSize\n  dup4\n  codecopy\n  dup2\n  dup2\n  add\n  0x40\n  mstore\n  dup2\n  add\n  swap1\n  tag_5\n  swap2\n  swap1\n  tag_6\n  jump\t// in\ntag_5:\n    /* \"Lottery.sol\":765:775  msg.sender */\n  caller\n    /* \"Lottery.sol\":751:762  beneficiary */\n  0x05\n  0x01\n    /* \"Lottery.sol\":751:775  beneficiary = msg.sender */\n  0x0100\n  exp\n  dup2\n  sload\n  dup2\n  0xffffffffffffffffffffffffffffffffffffffff\n  mul\n  not\n  and\n  swap1\n  dup4\n  0xffffffffffffffffffffffffffffffffffffffff\n  and\n  mul\n  or\n  swap1\n  sstore\n  pop\n    /* \"Lottery.sol\":789:795  uint i */\n  0x00\n    /* \"Lottery.sol\":785:884  for(uint i = 0; i < _itemCount; i++) {... */\ntag_9:\n    /* \"Lottery.sol\":805:815  _itemCount */\n  dup2\n    /* \"Lottery.sol\":801:802  i */\n  dup2\n    /* \"Lottery.sol\":801:815  i < _itemCount */\n  lt\n    /* \"Lottery.sol\":785:884  for(uint i = 0; i < _itemCount; i++) {... */\n  iszero\n  tag_10\n  jumpi\n    /* \"Lottery.sol\":836:841  items */\n  0x02\n    /* \"Lottery.sol\":847:872  Item(i, new address[](0)) */\n  mload(0x40)\n  dup1\n  0x40\n  add\n  0x40\n  mstore\n  dup1\n    /* \"Lottery.sol\":852:853  i */\n  dup4\n    /* \"Lottery.sol\":847:872  Item(i, new address[](0)) */\n  dup2\n  mstore\n  0x20\n  add\n    /* \"Lottery.sol\":869:870  0 */\n  0x00\n    /* \"Lottery.sol\":855:871  new address[](0) */\n  0xffffffffffffffff\n  dup2\n  gt\n  iszero\n  tag_12\n  jumpi\n  tag_13\n  tag_14\n  jump\t// in\ntag_13:\ntag_12:\n  mload(0x40)\n  swap1\n  dup1\n  dup3\n  mstore\n  dup1\n  0x20\n  mul\n  0x20\n  add\n  dup3\n  add\n  0x40\n  mstore\n  dup1\n  iszero\n  tag_15\n  jumpi\n  dup2\n  0x20\n  add\n  0x20\n  dup3\n  mul\n  dup1\n  calldatasize\n  dup4\n  calldatacopy\n  dup1\n  dup3\n  add\n  swap2\n  pop\n  pop\n  swap1\n  pop\ntag_15:\n  pop\n    /* \"Lottery.sol\":847:872  Item(i, new address[](0)) */\n  dup2\n  mstore\n  pop\n    /* \"Lottery.sol\":836:873  items.push(Item(i, new address[](0))) */\n  swap1\n  dup1\n  0x01\n  dup2\n  sload\n  add\n  dup1\n  dup3\n  sstore\n  dup1\n  swap2\n  pop\n  pop\n  0x01\n  swap1\n  sub\n  swap1\n  0x00\n  mstore\n  keccak256(0x00, 0x20)\n  swap1\n  0x02\n  mul\n  add\n  0x00\n  swap1\n  swap2\n  swap1\n  swap2\n  swap1\n  swap2\n  pop\n  0x00\n  dup3\n  add\n  mload\n  dup2\n  0x00\n  add\n  sstore\n  0x20\n  dup3\n  add\n  mload\n  dup2\n  0x01\n  add\n  swap1\n  dup1\n  mload\n  swap1\n  0x20\n  add\n  swap1\n  tag_17\n  swap3\n  swap2\n  swap1\n  tag_18\n  jump\t// in\ntag_17:\n  pop\n  pop\n  pop\n    /* \"Lottery.sol\":817:820  i++ */\n  dup1\n  dup1\n  0x01\n  add\n  swap2\n  pop\n  pop\n    /* \"Lottery.sol\":785:884  for(uint i = 0; i < _itemCount; i++) {... */\n  jump(tag_9)\ntag_10:\n  pop\n    /* \"Lottery.sol\":712:890  constructor(uint _itemCount) {... */\n  pop\n    /* \"Lottery.sol\":296:4089  contract Lottery{... */\n  jump(tag_19)\ntag_18:\n  dup3\n  dup1\n  sload\n  dup3\n  dup3\n  sstore\n  swap1\n  0x00\n  mstore\n  keccak256(0x00, 0x20)\n  swap1\n  dup2\n  add\n  swap3\n  dup3\n  iszero\n  tag_20\n  jumpi\n  swap2\n  0x20\n  mul\n  dup3\n  add\ntag_21:\n  dup3\n  dup2\n  gt\n  iszero\n  tag_22\n  jumpi\n  dup3\n  mload\n  dup3\n  exp(0x0100, 0x00)\n  dup2\n  sload\n  dup2\n  0xffffffffffffffffffffffffffffffffffffffff\n  mul\n  not\n  and\n  swap1\n  dup4\n  0xffffffffffffffffffffffffffffffffffffffff\n  and\n  mul\n  or\n  swap1\n  sstore\n  pop\n  swap2\n  0x20\n  add\n  swap2\n  swap1\n  0x01\n  add\n  swap1\n  jump(tag_21)\ntag_22:\ntag_20:\n  pop\n  swap1\n  pop\n  tag_23\n  swap2\n  swap1\n  tag_24\n  jump\t// in\ntag_23:\n  pop\n  swap1\n  jump\t// out\ntag_24:\ntag_25:\n  dup1\n  dup3\n  gt\n  iszero\n  tag_26\n  jumpi\n  0x00\n  dup2\n  0x00\n  swap1\n  sstore\n  pop\n  0x01\n  add\n  jump(tag_25)\ntag_26:\n  pop\n  swap1\n  jump\t// out\n    /* \"#utility.yul\":7:187   */\ntag_3:\n    /* \"#utility.yul\":55:132   */\n  0x4e487b7100000000000000000000000000000000000000000000000000000000\n    /* \"#utility.yul\":52:53   */\n  0x00\n    /* \"#utility.yul\":45:133   */\n  mstore\n    /* \"#utility.yul\":152:156   */\n  0x21\n    /* \"#utility.yul\":149:150   */\n  0x04\n    /* \"#utility.yul\":142:157   */\n  mstore\n    /* \"#utility.yul\":176:180   */\n  0x24\n    /* \"#utility.yul\":173:174   */\n  0x00\n    /* \"#utility.yul\":166:181   */\n  revert\n    /* \"#utility.yul\":274:391   */\ntag_28:\n    /* \"#utility.yul\":383:384   */\n  0x00\n    /* \"#utility.yul\":380:381   */\n  dup1\n    /* \"#utility.yul\":373:385   */\n  revert\n    /* \"#utility.yul\":520:597   */\ntag_30:\n    /* \"#utility.yul\":557:564   */\n  0x00\n    /* \"#utility.yul\":586:591   */\n  dup2\n    /* \"#utility.yul\":575:591   */\n  swap1\n  pop\n    /* \"#utility.yul\":520:597   */\n  swap2\n  swap1\n  pop\n  jump\t// out\n    /* \"#utility.yul\":603:725   */\ntag_31:\n    /* \"#utility.yul\":676:700   */\n  tag_40\n    /* \"#utility.yul\":694:699   */\n  dup2\n    /* \"#utility.yul\":676:700   */\n  tag_30\n  jump\t// in\ntag_40:\n    /* \"#utility.yul\":669:674   */\n  dup2\n    /* \"#utility.yul\":666:701   */\n  eq\n    /* \"#utility.yul\":656:719   */\n  tag_41\n  jumpi\n    /* \"#utility.yul\":715:716   */\n  0x00\n    /* \"#utility.yul\":712:713   */\n  dup1\n    /* \"#utility.yul\":705:717   */\n  revert\n    /* \"#utility.yul\":656:719   */\ntag_41:\n    /* \"#utility.yul\":603:725   */\n  pop\n  jump\t// out\n    /* \"#utility.yul\":731:874   */\ntag_32:\n    /* \"#utility.yul\":788:793   */\n  0x00\n    /* \"#utility.yul\":819:825   */\n  dup2\n    /* \"#utility.yul\":813:826   */\n  mload\n    /* \"#utility.yul\":804:826   */\n  swap1\n  pop\n    /* \"#utility.yul\":835:868   */\n  tag_43\n    /* \"#utility.yul\":862:867   */\n  dup2\n    /* \"#utility.yul\":835:868   */\n  tag_31\n  jump\t// in\ntag_43:\n    /* \"#utility.yul\":731:874   */\n  swap3\n  swap2\n  pop\n  pop\n  jump\t// out\n    /* \"#utility.yul\":880:1231   */\ntag_6:\n    /* \"#utility.yul\":950:956   */\n  0x00\n    /* \"#utility.yul\":999:1001   */\n  0x20\n    /* \"#utility.yul\":987:996   */\n  dup3\n    /* \"#utility.yul\":978:985   */\n  dup5\n    /* \"#utility.yul\":974:997   */\n  sub\n    /* \"#utility.yul\":970:1002   */\n  slt\n    /* \"#utility.yul\":967:1086   */\n  iszero\n  tag_45\n  jumpi\n    /* \"#utility.yul\":1005:1084   */\n  tag_46\n  tag_28\n  jump\t// in\ntag_46:\n    /* \"#utility.yul\":967:1086   */\ntag_45:\n    /* \"#utility.yul\":1125:1126   */\n  0x00\n    /* \"#utility.yul\":1150:1214   */\n  tag_47\n    /* \"#utility.yul\":1206:1213   */\n  dup5\n    /* \"#utility.yul\":1197:1203   */\n  dup3\n    /* \"#utility.yul\":1186:1195   */\n  dup6\n    /* \"#utility.yul\":1182:1204   */\n  add\n    /* \"#utility.yul\":1150:1214   */\n  tag_32\n  jump\t// in\ntag_47:\n    /* \"#utility.yul\":1140:1214   */\n  swap2\n  pop\n    /* \"#utility.yul\":1096:1224   */\n  pop\n    /* \"#utility.yul\":880:1231   */\n  swap3\n  swap2\n  pop\n  pop\n  jump\t// out\n    /* \"#utility.yul\":1237:1417   */\ntag_14:\n    /* \"#utility.yul\":1285:1362   */\n  0x4e487b7100000000000000000000000000000000000000000000000000000000\n    /* \"#utility.yul\":1282:1283   */\n  0x00\n    /* \"#utility.yul\":1275:1363   */\n  mstore\n    /* \"#utility.yul\":1382:1386   */\n  0x41\n    /* \"#utility.yul\":1379:1380   */\n  0x04\n    /* \"#utility.yul\":1372:1387   */\n  mstore\n    /* \"#utility.yul\":1406:1410   */\n  0x24\n    /* \"#utility.yul\":1403:1404   */\n  0x00\n    /* \"#utility.yul\":1396:1411   */\n  revert\n    /* \"Lottery.sol\":296:4089  contract Lottery{... */\ntag_19:\n  dataSize(sub_0)\n  dup1\n  dataOffset(sub_0)\n  0x00\n  codecopy\n  0x00\n  return\nstop\n\nsub_0: assembly {\n        /* \"Lottery.sol\":296:4089  contract Lottery{... */\n      mstore(0x40, 0x80)\n      jumpi(tag_1, lt(calldatasize, 0x04))\n      shr(0xe0, calldataload(0x00))\n      dup1\n      0x952587d6\n      gt\n      tag_17\n      jumpi\n      dup1\n      0xc040e6b8\n      gt\n      tag_18\n      jumpi\n      dup1\n      0xc040e6b8\n      eq\n      tag_13\n      jumpi\n      dup1\n      0xc33f48fd\n      eq\n      tag_14\n      jumpi\n      dup1\n      0xdd4be683\n      eq\n      tag_15\n      jumpi\n      dup1\n      0xddc48f7f\n      eq\n      tag_16\n      jumpi\n      jump(tag_1)\n    tag_18:\n      dup1\n      0x952587d6\n      eq\n      tag_9\n      jumpi\n      dup1\n      0xa2fb1175\n      eq\n      tag_10\n      jumpi\n      dup1\n      0xaa103e44\n      eq\n      tag_11\n      jumpi\n      dup1\n      0xbfb231d2\n      eq\n      tag_12\n      jumpi\n      jump(tag_1)\n    tag_17:\n      dup1\n      0x38af3eed\n      gt\n      tag_19\n      jumpi\n      dup1\n      0x38af3eed\n      eq\n      tag_5\n      jumpi\n      dup1\n      0x3ccfd60b\n      eq\n      tag_6\n      jumpi\n      dup1\n      0x598647f8\n      eq\n      tag_7\n      jumpi\n      dup1\n      0x66235486\n      eq\n      tag_8\n      jumpi\n      jump(tag_1)\n    tag_19:\n      dup1\n      0x08704df2\n      eq\n      tag_2\n      jumpi\n      dup1\n      0x1aa3a008\n      eq\n      tag_3\n      jumpi\n      dup1\n      0x310bd74b\n      eq\n      tag_4\n      jumpi\n    tag_1:\n      0x00\n      dup1\n      revert\n        /* \"Lottery.sol\":896:989  function amountOfItems() public view returns(uint count) {... */\n    tag_2:\n      callvalue\n      dup1\n      iszero\n      tag_20\n      jumpi\n      0x00\n      dup1\n      revert\n    tag_20:\n      pop\n      tag_21\n      tag_22\n      jump\t// in\n    tag_21:\n      mload(0x40)\n      tag_23\n      swap2\n      swap1\n      tag_24\n      jump\t// in\n    tag_23:\n      mload(0x40)\n      dup1\n      swap2\n      sub\n      swap1\n      return\n        /* \"Lottery.sol\":1536:1813  function register() public payable registerable {... */\n    tag_3:\n      tag_25\n      tag_26\n      jump\t// in\n    tag_25:\n      stop\n        /* \"Lottery.sol\":3616:4082  function reset(uint _itemCount) public onlyOwner(){... */\n    tag_4:\n      callvalue\n      dup1\n      iszero\n      tag_27\n      jumpi\n      0x00\n      dup1\n      revert\n    tag_27:\n      pop\n      tag_28\n      0x04\n      dup1\n      calldatasize\n      sub\n      dup2\n      add\n      swap1\n      tag_29\n      swap2\n      swap1\n      tag_30\n      jump\t// in\n    tag_29:\n      tag_31\n      jump\t// in\n    tag_28:\n      stop\n        /* \"Lottery.sol\":521:547  address public beneficiary */\n    tag_5:\n      callvalue\n      dup1\n      iszero\n      tag_32\n      jumpi\n      0x00\n      dup1\n      revert\n    tag_32:\n      pop\n      tag_33\n      tag_34\n      jump\t// in\n    tag_33:\n      mload(0x40)\n      tag_35\n      swap2\n      swap1\n      tag_36\n      jump\t// in\n    tag_35:\n      mload(0x40)\n      dup1\n      swap2\n      sub\n      swap1\n      return\n        /* \"Lottery.sol\":3464:3610  function withdraw() public onlyOwner(){... */\n    tag_6:\n      callvalue\n      dup1\n      iszero\n      tag_37\n      jumpi\n      0x00\n      dup1\n      revert\n    tag_37:\n      pop\n      tag_38\n      tag_39\n      jump\t// in\n    tag_38:\n      stop\n        /* \"Lottery.sol\":2137:2466  function bid(uint _itemId, uint _count) public biddable(_count) payable {... */\n    tag_7:\n      tag_40\n      0x04\n      dup1\n      calldatasize\n      sub\n      dup2\n      add\n      swap1\n      tag_41\n      swap2\n      swap1\n      tag_42\n      jump\t// in\n    tag_41:\n      tag_43\n      jump\t// in\n    tag_40:\n      stop\n        /* \"Lottery.sol\":995:1088  function winnerGetter() public view returns(address[] memory) {... */\n    tag_8:\n      callvalue\n      dup1\n      iszero\n      tag_44\n      jumpi\n      0x00\n      dup1\n      revert\n    tag_44:\n      pop\n      tag_45\n      tag_46\n      jump\t// in\n    tag_45:\n      mload(0x40)\n      tag_47\n      swap2\n      swap1\n      tag_48\n      jump\t// in\n    tag_47:\n      mload(0x40)\n      dup1\n      swap2\n      sub\n      swap1\n      return\n        /* \"Lottery.sol\":2546:3315  function revealWinners() public onlyOwner {... */\n    tag_9:\n      callvalue\n      dup1\n      iszero\n      tag_49\n      jumpi\n      0x00\n      dup1\n      revert\n    tag_49:\n      pop\n      tag_50\n      tag_51\n      jump\t// in\n    tag_50:\n      stop\n        /* \"Lottery.sol\":319:343  address[] public winners */\n    tag_10:\n      callvalue\n      dup1\n      iszero\n      tag_52\n      jumpi\n      0x00\n      dup1\n      revert\n    tag_52:\n      pop\n      tag_53\n      0x04\n      dup1\n      calldatasize\n      sub\n      dup2\n      add\n      swap1\n      tag_54\n      swap2\n      swap1\n      tag_30\n      jump\t// in\n    tag_54:\n      tag_55\n      jump\t// in\n    tag_53:\n      mload(0x40)\n      tag_56\n      swap2\n      swap1\n      tag_36\n      jump\t// in\n    tag_56:\n      mload(0x40)\n      dup1\n      swap2\n      sub\n      swap1\n      return\n        /* \"Lottery.sol\":448:477  uint public lotteryNumber = 0 */\n    tag_11:\n      callvalue\n      dup1\n      iszero\n      tag_57\n      jumpi\n      0x00\n      dup1\n      revert\n    tag_57:\n      pop\n      tag_58\n      tag_59\n      jump\t// in\n    tag_58:\n      mload(0x40)\n      tag_60\n      swap2\n      swap1\n      tag_24\n      jump\t// in\n    tag_60:\n      mload(0x40)\n      dup1\n      swap2\n      sub\n      swap1\n      return\n        /* \"Lottery.sol\":401:420  Item[] public items */\n    tag_12:\n      callvalue\n      dup1\n      iszero\n      tag_61\n      jumpi\n      0x00\n      dup1\n      revert\n    tag_61:\n      pop\n      tag_62\n      0x04\n      dup1\n      calldatasize\n      sub\n      dup2\n      add\n      swap1\n      tag_63\n      swap2\n      swap1\n      tag_30\n      jump\t// in\n    tag_63:\n      tag_64\n      jump\t// in\n    tag_62:\n      mload(0x40)\n      tag_65\n      swap2\n      swap1\n      tag_24\n      jump\t// in\n    tag_65:\n      mload(0x40)\n      dup1\n      swap2\n      sub\n      swap1\n      return\n        /* \"Lottery.sol\":483:514  Stage public stage = Stage.Init */\n    tag_13:\n      callvalue\n      dup1\n      iszero\n      tag_66\n      jumpi\n      0x00\n      dup1\n      revert\n    tag_66:\n      pop\n      tag_67\n      tag_68\n      jump\t// in\n    tag_67:\n      mload(0x40)\n      tag_69\n      swap2\n      swap1\n      tag_70\n      jump\t// in\n    tag_69:\n      mload(0x40)\n      dup1\n      swap2\n      sub\n      swap1\n      return\n        /* \"Lottery.sol\":3321:3458  function advanceStage() public onlyOwner {... */\n    tag_14:\n      callvalue\n      dup1\n      iszero\n      tag_71\n      jumpi\n      0x00\n      dup1\n      revert\n    tag_71:\n      pop\n      tag_72\n      tag_73\n      jump\t// in\n    tag_72:\n      stop\n        /* \"Lottery.sol\":349:395  mapping(address => Person) public tokenDetails */\n    tag_15:\n      callvalue\n      dup1\n      iszero\n      tag_74\n      jumpi\n      0x00\n      dup1\n      revert\n    tag_74:\n      pop\n      tag_75\n      0x04\n      dup1\n      calldatasize\n      sub\n      dup2\n      add\n      swap1\n      tag_76\n      swap2\n      swap1\n      tag_77\n      jump\t// in\n    tag_76:\n      tag_78\n      jump\t// in\n    tag_75:\n      mload(0x40)\n      tag_79\n      swap4\n      swap3\n      swap2\n      swap1\n      tag_80\n      jump\t// in\n    tag_79:\n      mload(0x40)\n      dup1\n      swap2\n      sub\n      swap1\n      return\n        /* \"Lottery.sol\":1094:1303  function addMoreItems(uint _itemCount) public onlyOwner {... */\n    tag_16:\n      callvalue\n      dup1\n      iszero\n      tag_81\n      jumpi\n      0x00\n      dup1\n      revert\n    tag_81:\n      pop\n      tag_82\n      0x04\n      dup1\n      calldatasize\n      sub\n      dup2\n      add\n      swap1\n      tag_83\n      swap2\n      swap1\n      tag_30\n      jump\t// in\n    tag_83:\n      tag_84\n      jump\t// in\n    tag_82:\n      stop\n        /* \"Lottery.sol\":896:989  function amountOfItems() public view returns(uint count) {... */\n    tag_22:\n        /* \"Lottery.sol\":941:951  uint count */\n      0x00\n        /* \"Lottery.sol\":970:975  items */\n      0x02\n        /* \"Lottery.sol\":970:982  items.length */\n      dup1\n      sload\n      swap1\n      pop\n        /* \"Lottery.sol\":963:982  return items.length */\n      swap1\n      pop\n        /* \"Lottery.sol\":896:989  function amountOfItems() public view returns(uint count) {... */\n      swap1\n      jump\t// out\n        /* \"Lottery.sol\":1536:1813  function register() public payable registerable {... */\n    tag_26:\n        /* \"Lottery.sol\":1358:1367  Stage.Reg */\n      0x01\n        /* \"Lottery.sol\":1349:1367  stage == Stage.Reg */\n      0x03\n      dup2\n      gt\n      iszero\n      tag_87\n      jumpi\n      tag_88\n      tag_89\n      jump\t// in\n    tag_88:\n    tag_87:\n        /* \"Lottery.sol\":1349:1354  stage */\n      0x05\n      0x00\n      swap1\n      sload\n      swap1\n      0x0100\n      exp\n      swap1\n      div\n      0xff\n      and\n        /* \"Lottery.sol\":1349:1367  stage == Stage.Reg */\n      0x03\n      dup2\n      gt\n      iszero\n      tag_90\n      jumpi\n      tag_91\n      tag_89\n      jump\t// in\n    tag_91:\n    tag_90:\n      eq\n        /* \"Lottery.sol\":1341:1368  require(stage == Stage.Reg) */\n      tag_92\n      jumpi\n      0x00\n      dup1\n      revert\n    tag_92:\n        /* \"Lottery.sol\":1399:1410  0.005 ether */\n      0x11c37937e08000\n        /* \"Lottery.sol\":1386:1395  msg.value */\n      callvalue\n        /* \"Lottery.sol\":1386:1410  msg.value >= 0.005 ether */\n      lt\n      iszero\n        /* \"Lottery.sol\":1378:1411  require(msg.value >= 0.005 ether) */\n      tag_93\n      jumpi\n      0x00\n      dup1\n      revert\n    tag_93:\n        /* \"Lottery.sol\":1443:1454  beneficiary */\n      0x05\n      0x01\n      swap1\n      sload\n      swap1\n      0x0100\n      exp\n      swap1\n      div\n      0xffffffffffffffffffffffffffffffffffffffff\n      and\n        /* \"Lottery.sol\":1429:1454  msg.sender != beneficiary */\n      0xffffffffffffffffffffffffffffffffffffffff\n      and\n        /* \"Lottery.sol\":1429:1439  msg.sender */\n      caller\n        /* \"Lottery.sol\":1429:1454  msg.sender != beneficiary */\n      0xffffffffffffffffffffffffffffffffffffffff\n      and\n      sub\n        /* \"Lottery.sol\":1421:1455  require(msg.sender != beneficiary) */\n      tag_94\n      jumpi\n      0x00\n      dup1\n      revert\n    tag_94:\n        /* \"Lottery.sol\":1510:1511  0 */\n      0x00\n        /* \"Lottery.sol\":1473:1485  tokenDetails */\n      0x01\n        /* \"Lottery.sol\":1473:1497  tokenDetails[msg.sender] */\n      0x00\n        /* \"Lottery.sol\":1486:1496  msg.sender */\n      caller\n        /* \"Lottery.sol\":1473:1497  tokenDetails[msg.sender] */\n      0xffffffffffffffffffffffffffffffffffffffff\n      and\n      0xffffffffffffffffffffffffffffffffffffffff\n      and\n      dup2\n      mstore\n      0x20\n      add\n      swap1\n      dup2\n      mstore\n      0x20\n      add\n      0x00\n      keccak256\n        /* \"Lottery.sol\":1473:1506  tokenDetails[msg.sender].personId */\n      0x00\n      add\n      sload\n        /* \"Lottery.sol\":1473:1511  tokenDetails[msg.sender].personId == 0 */\n      eq\n        /* \"Lottery.sol\":1465:1512  require(tokenDetails[msg.sender].personId == 0) */\n      tag_95\n      jumpi\n      0x00\n      dup1\n      revert\n    tag_95:\n        /* \"Lottery.sol\":1676:1683  bidders */\n      0x03\n        /* \"Lottery.sol\":1689:1725  Person(bidderCount+1, msg.sender, 5) */\n      mload(0x40)\n      dup1\n      0x60\n      add\n      0x40\n      mstore\n      dup1\n        /* \"Lottery.sol\":1708:1709  1 */\n      0x01\n        /* \"Lottery.sol\":1696:1707  bidderCount */\n      sload(0x06)\n        /* \"Lottery.sol\":1696:1709  bidderCount+1 */\n      tag_97\n      swap2\n      swap1\n      tag_98\n      jump\t// in\n    tag_97:\n        /* \"Lottery.sol\":1689:1725  Person(bidderCount+1, msg.sender, 5) */\n      dup2\n      mstore\n      0x20\n      add\n        /* \"Lottery.sol\":1711:1721  msg.sender */\n      caller\n        /* \"Lottery.sol\":1689:1725  Person(bidderCount+1, msg.sender, 5) */\n      0xffffffffffffffffffffffffffffffffffffffff\n      and\n      dup2\n      mstore\n      0x20\n      add\n        /* \"Lottery.sol\":1723:1724  5 */\n      0x05\n        /* \"Lottery.sol\":1689:1725  Person(bidderCount+1, msg.sender, 5) */\n      dup2\n      mstore\n      pop\n        /* \"Lottery.sol\":1676:1726  bidders.push(Person(bidderCount+1, msg.sender, 5)) */\n      swap1\n      dup1\n      0x01\n      dup2\n      sload\n      add\n      dup1\n      dup3\n      sstore\n      dup1\n      swap2\n      pop\n      pop\n      0x01\n      swap1\n      sub\n      swap1\n      0x00\n      mstore\n      keccak256(0x00, 0x20)\n      swap1\n      0x03\n      mul\n      add\n      0x00\n      swap1\n      swap2\n      swap1\n      swap2\n      swap1\n      swap2\n      pop\n      0x00\n      dup3\n      add\n      mload\n      dup2\n      0x00\n      add\n      sstore\n      0x20\n      dup3\n      add\n      mload\n      dup2\n      0x01\n      add\n      exp(0x0100, 0x00)\n      dup2\n      sload\n      dup2\n      0xffffffffffffffffffffffffffffffffffffffff\n      mul\n      not\n      and\n      swap1\n      dup4\n      0xffffffffffffffffffffffffffffffffffffffff\n      and\n      mul\n      or\n      swap1\n      sstore\n      pop\n      0x40\n      dup3\n      add\n      mload\n      dup2\n      0x02\n      add\n      sstore\n      pop\n      pop\n        /* \"Lottery.sol\":1763:1770  bidders */\n      0x03\n        /* \"Lottery.sol\":1771:1782  bidderCount */\n      sload(0x06)\n        /* \"Lottery.sol\":1763:1783  bidders[bidderCount] */\n      dup2\n      sload\n      dup2\n      lt\n      tag_100\n      jumpi\n      tag_101\n      tag_102\n      jump\t// in\n    tag_101:\n    tag_100:\n      swap1\n      0x00\n      mstore\n      keccak256(0x00, 0x20)\n      swap1\n      0x03\n      mul\n      add\n        /* \"Lottery.sol\":1736:1748  tokenDetails */\n      0x01\n        /* \"Lottery.sol\":1736:1760  tokenDetails[msg.sender] */\n      0x00\n        /* \"Lottery.sol\":1749:1759  msg.sender */\n      caller\n        /* \"Lottery.sol\":1736:1760  tokenDetails[msg.sender] */\n      0xffffffffffffffffffffffffffffffffffffffff\n      and\n      0xffffffffffffffffffffffffffffffffffffffff\n      and\n      dup2\n      mstore\n      0x20\n      add\n      swap1\n      dup2\n      mstore\n      0x20\n      add\n      0x00\n      keccak256\n        /* \"Lottery.sol\":1736:1783  tokenDetails[msg.sender] = bidders[bidderCount] */\n      0x00\n      dup3\n      add\n      sload\n      dup2\n      0x00\n      add\n      sstore\n      0x01\n      dup3\n      add\n      0x00\n      swap1\n      sload\n      swap1\n      0x0100\n      exp\n      swap1\n      div\n      0xffffffffffffffffffffffffffffffffffffffff\n      and\n      dup2\n      0x01\n      add\n      exp(0x0100, 0x00)\n      dup2\n      sload\n      dup2\n      0xffffffffffffffffffffffffffffffffffffffff\n      mul\n      not\n      and\n      swap1\n      dup4\n      0xffffffffffffffffffffffffffffffffffffffff\n      and\n      mul\n      or\n      swap1\n      sstore\n      pop\n      0x02\n      dup3\n      add\n      sload\n      dup2\n      0x02\n      add\n      sstore\n      swap1\n      pop\n      pop\n        /* \"Lottery.sol\":1793:1804  bidderCount */\n      0x06\n      0x00\n        /* \"Lottery.sol\":1793:1806  bidderCount++ */\n      dup2\n      sload\n      dup1\n      swap3\n      swap2\n      swap1\n      tag_104\n      swap1\n      tag_105\n      jump\t// in\n    tag_104:\n      swap2\n      swap1\n      pop\n      sstore\n      pop\n        /* \"Lottery.sol\":1536:1813  function register() public payable registerable {... */\n      jump\t// out\n        /* \"Lottery.sol\":3616:4082  function reset(uint _itemCount) public onlyOwner(){... */\n    tag_31:\n        /* \"Lottery.sol\":649:660  beneficiary */\n      0x05\n      0x01\n      swap1\n      sload\n      swap1\n      0x0100\n      exp\n      swap1\n      div\n      0xffffffffffffffffffffffffffffffffffffffff\n      and\n        /* \"Lottery.sol\":635:660  msg.sender == beneficiary */\n      0xffffffffffffffffffffffffffffffffffffffff\n      and\n        /* \"Lottery.sol\":635:645  msg.sender */\n      caller\n        /* \"Lottery.sol\":635:660  msg.sender == beneficiary */\n      0xffffffffffffffffffffffffffffffffffffffff\n      and\n      eq\n        /* \"Lottery.sol\":627:661  require(msg.sender == beneficiary) */\n      tag_107\n      jumpi\n      0x00\n      dup1\n      revert\n    tag_107:\n        /* \"Lottery.sol\":3722:3728  uint i */\n      0x00\n        /* \"Lottery.sol\":3718:3820  for(uint i = 0; i < bidders.length; i++) {... */\n    tag_109:\n        /* \"Lottery.sol\":3738:3745  bidders */\n      0x03\n        /* \"Lottery.sol\":3738:3752  bidders.length */\n      dup1\n      sload\n      swap1\n      pop\n        /* \"Lottery.sol\":3734:3735  i */\n      dup2\n        /* \"Lottery.sol\":3734:3752  i < bidders.length */\n      lt\n        /* \"Lottery.sol\":3718:3820  for(uint i = 0; i < bidders.length; i++) {... */\n      iszero\n      tag_110\n      jumpi\n        /* \"Lottery.sol\":3780:3792  tokenDetails */\n      0x01\n        /* \"Lottery.sol\":3780:3809  tokenDetails[bidders[i].addr] */\n      0x00\n        /* \"Lottery.sol\":3793:3800  bidders */\n      0x03\n        /* \"Lottery.sol\":3801:3802  i */\n      dup4\n        /* \"Lottery.sol\":3793:3803  bidders[i] */\n      dup2\n      sload\n      dup2\n      lt\n      tag_112\n      jumpi\n      tag_113\n      tag_102\n      jump\t// in\n    tag_113:\n    tag_112:\n      swap1\n      0x00\n      mstore\n      keccak256(0x00, 0x20)\n      swap1\n      0x03\n      mul\n      add\n        /* \"Lottery.sol\":3793:3808  bidders[i].addr */\n      0x01\n      add\n      0x00\n      swap1\n      sload\n      swap1\n      0x0100\n      exp\n      swap1\n      div\n      0xffffffffffffffffffffffffffffffffffffffff\n      and\n        /* \"Lottery.sol\":3780:3809  tokenDetails[bidders[i].addr] */\n      0xffffffffffffffffffffffffffffffffffffffff\n      and\n      0xffffffffffffffffffffffffffffffffffffffff\n      and\n      dup2\n      mstore\n      0x20\n      add\n      swap1\n      dup2\n      mstore\n      0x20\n      add\n      0x00\n      keccak256\n      0x00\n        /* \"Lottery.sol\":3773:3809  delete tokenDetails[bidders[i].addr] */\n      dup1\n      dup3\n      add\n      0x00\n      swap1\n      sstore\n      0x01\n      dup3\n      add\n      exp(0x0100, 0x00)\n      dup2\n      sload\n      swap1\n      0xffffffffffffffffffffffffffffffffffffffff\n      mul\n      not\n      and\n      swap1\n      sstore\n      0x02\n      dup3\n      add\n      0x00\n      swap1\n      sstore\n      pop\n      pop\n        /* \"Lottery.sol\":3754:3757  i++ */\n      dup1\n      dup1\n      0x01\n      add\n      swap2\n      pop\n      pop\n        /* \"Lottery.sol\":3718:3820  for(uint i = 0; i < bidders.length; i++) {... */\n      jump(tag_109)\n    tag_110:\n      pop\n        /* \"Lottery.sol\":3836:3843  bidders */\n      0x03\n      0x00\n        /* \"Lottery.sol\":3829:3843  delete bidders */\n      tag_115\n      swap2\n      swap1\n      tag_116\n      jump\t// in\n    tag_115:\n        /* \"Lottery.sol\":3860:3865  items */\n      0x02\n      0x00\n        /* \"Lottery.sol\":3853:3865  delete items */\n      tag_117\n      swap2\n      swap1\n      tag_118\n      jump\t// in\n    tag_117:\n        /* \"Lottery.sol\":3882:3889  winners */\n      0x00\n      dup1\n        /* \"Lottery.sol\":3875:3889  delete winners */\n      tag_119\n      swap2\n      swap1\n      tag_120\n      jump\t// in\n    tag_119:\n        /* \"Lottery.sol\":3913:3914  0 */\n      0x00\n        /* \"Lottery.sol\":3899:3910  bidderCount */\n      0x06\n        /* \"Lottery.sol\":3899:3914  bidderCount = 0 */\n      dup2\n      swap1\n      sstore\n      pop\n        /* \"Lottery.sol\":3932:3942  Stage.Init */\n      0x00\n        /* \"Lottery.sol\":3924:3929  stage */\n      0x05\n      0x00\n        /* \"Lottery.sol\":3924:3942  stage = Stage.Init */\n      0x0100\n      exp\n      dup2\n      sload\n      dup2\n      0xff\n      mul\n      not\n      and\n      swap1\n      dup4\n      0x03\n      dup2\n      gt\n      iszero\n      tag_121\n      jumpi\n      tag_122\n      tag_89\n      jump\t// in\n    tag_122:\n    tag_121:\n      mul\n      or\n      swap1\n      sstore\n      pop\n        /* \"Lottery.sol\":3952:3965  lotteryNumber */\n      0x04\n      0x00\n        /* \"Lottery.sol\":3952:3967  lotteryNumber++ */\n      dup2\n      sload\n      dup1\n      swap3\n      swap2\n      swap1\n      tag_123\n      swap1\n      tag_105\n      jump\t// in\n    tag_123:\n      swap2\n      swap1\n      pop\n      sstore\n      pop\n        /* \"Lottery.sol\":3981:3987  uint i */\n      0x00\n        /* \"Lottery.sol\":3977:4076  for(uint i = 0; i < _itemCount; i++) {... */\n    tag_124:\n        /* \"Lottery.sol\":3997:4007  _itemCount */\n      dup2\n        /* \"Lottery.sol\":3993:3994  i */\n      dup2\n        /* \"Lottery.sol\":3993:4007  i < _itemCount */\n      lt\n        /* \"Lottery.sol\":3977:4076  for(uint i = 0; i < _itemCount; i++) {... */\n      iszero\n      tag_125\n      jumpi\n        /* \"Lottery.sol\":4028:4033  items */\n      0x02\n        /* \"Lottery.sol\":4039:4064  Item(i, new address[](0)) */\n      mload(0x40)\n      dup1\n      0x40\n      add\n      0x40\n      mstore\n      dup1\n        /* \"Lottery.sol\":4044:4045  i */\n      dup4\n        /* \"Lottery.sol\":4039:4064  Item(i, new address[](0)) */\n      dup2\n      mstore\n      0x20\n      add\n        /* \"Lottery.sol\":4061:4062  0 */\n      0x00\n        /* \"Lottery.sol\":4047:4063  new address[](0) */\n      0xffffffffffffffff\n      dup2\n      gt\n      iszero\n      tag_127\n      jumpi\n      tag_128\n      tag_129\n      jump\t// in\n    tag_128:\n    tag_127:\n      mload(0x40)\n      swap1\n      dup1\n      dup3\n      mstore\n      dup1\n      0x20\n      mul\n      0x20\n      add\n      dup3\n      add\n      0x40\n      mstore\n      dup1\n      iszero\n      tag_130\n      jumpi\n      dup2\n      0x20\n      add\n      0x20\n      dup3\n      mul\n      dup1\n      calldatasize\n      dup4\n      calldatacopy\n      dup1\n      dup3\n      add\n      swap2\n      pop\n      pop\n      swap1\n      pop\n    tag_130:\n      pop\n        /* \"Lottery.sol\":4039:4064  Item(i, new address[](0)) */\n      dup2\n      mstore\n      pop\n        /* \"Lottery.sol\":4028:4065  items.push(Item(i, new address[](0))) */\n      swap1\n      dup1\n      0x01\n      dup2\n      sload\n      add\n      dup1\n      dup3\n      sstore\n      dup1\n      swap2\n      pop\n      pop\n      0x01\n      swap1\n      sub\n      swap1\n      0x00\n      mstore\n      keccak256(0x00, 0x20)\n      swap1\n      0x02\n      mul\n      add\n      0x00\n      swap1\n      swap2\n      swap1\n      swap2\n      swap1\n      swap2\n      pop\n      0x00\n      dup3\n      add\n      mload\n      dup2\n      0x00\n      add\n      sstore\n      0x20\n      dup3\n      add\n      mload\n      dup2\n      0x01\n      add\n      swap1\n      dup1\n      mload\n      swap1\n      0x20\n      add\n      swap1\n      tag_132\n      swap3\n      swap2\n      swap1\n      tag_133\n      jump\t// in\n    tag_132:\n      pop\n      pop\n      pop\n        /* \"Lottery.sol\":4009:4012  i++ */\n      dup1\n      dup1\n      0x01\n      add\n      swap2\n      pop\n      pop\n        /* \"Lottery.sol\":3977:4076  for(uint i = 0; i < _itemCount; i++) {... */\n      jump(tag_124)\n    tag_125:\n      pop\n        /* \"Lottery.sol\":3616:4082  function reset(uint _itemCount) public onlyOwner(){... */\n      pop\n      jump\t// out\n        /* \"Lottery.sol\":521:547  address public beneficiary */\n    tag_34:\n      0x05\n      0x01\n      swap1\n      sload\n      swap1\n      0x0100\n      exp\n      swap1\n      div\n      0xffffffffffffffffffffffffffffffffffffffff\n      and\n      dup2\n      jump\t// out\n        /* \"Lottery.sol\":3464:3610  function withdraw() public onlyOwner(){... */\n    tag_39:\n        /* \"Lottery.sol\":649:660  beneficiary */\n      0x05\n      0x01\n      swap1\n      sload\n      swap1\n      0x0100\n      exp\n      swap1\n      div\n      0xffffffffffffffffffffffffffffffffffffffff\n      and\n        /* \"Lottery.sol\":635:660  msg.sender == beneficiary */\n      0xffffffffffffffffffffffffffffffffffffffff\n      and\n        /* \"Lottery.sol\":635:645  msg.sender */\n      caller\n        /* \"Lottery.sol\":635:660  msg.sender == beneficiary */\n      0xffffffffffffffffffffffffffffffffffffffff\n      and\n      eq\n        /* \"Lottery.sol\":627:661  require(msg.sender == beneficiary) */\n      tag_135\n      jumpi\n      0x00\n      dup1\n      revert\n    tag_135:\n        /* \"Lottery.sol\":3559:3570  beneficiary */\n      0x05\n      0x01\n      swap1\n      sload\n      swap1\n      0x0100\n      exp\n      swap1\n      div\n      0xffffffffffffffffffffffffffffffffffffffff\n      and\n        /* \"Lottery.sol\":3551:3580  payable(beneficiary).transfer */\n      0xffffffffffffffffffffffffffffffffffffffff\n      and\n        /* \"Lottery.sol\":3551:3603  payable(beneficiary).transfer(address(this).balance) */\n      0x08fc\n        /* \"Lottery.sol\":3581:3602  address(this).balance */\n      selfbalance\n        /* \"Lottery.sol\":3551:3603  payable(beneficiary).transfer(address(this).balance) */\n      swap1\n      dup2\n      iszero\n      mul\n      swap1\n      mload(0x40)\n      0x00\n      mload(0x40)\n      dup1\n      dup4\n      sub\n      dup2\n      dup6\n      dup9\n      dup9\n      call\n      swap4\n      pop\n      pop\n      pop\n      pop\n      iszero\n      dup1\n      iszero\n      tag_138\n      jumpi\n      returndatasize\n      0x00\n      dup1\n      returndatacopy\n      revert(0x00, returndatasize)\n    tag_138:\n      pop\n        /* \"Lottery.sol\":3464:3610  function withdraw() public onlyOwner(){... */\n      jump\t// out\n        /* \"Lottery.sol\":2137:2466  function bid(uint _itemId, uint _count) public biddable(_count) payable {... */\n    tag_43:\n        /* \"Lottery.sol\":2193:2199  _count */\n      dup1\n        /* \"Lottery.sol\":1878:1887  Stage.Bid */\n      0x02\n        /* \"Lottery.sol\":1869:1887  stage == Stage.Bid */\n      0x03\n      dup2\n      gt\n      iszero\n      tag_140\n      jumpi\n      tag_141\n      tag_89\n      jump\t// in\n    tag_141:\n    tag_140:\n        /* \"Lottery.sol\":1869:1874  stage */\n      0x05\n      0x00\n      swap1\n      sload\n      swap1\n      0x0100\n      exp\n      swap1\n      div\n      0xff\n      and\n        /* \"Lottery.sol\":1869:1887  stage == Stage.Bid */\n      0x03\n      dup2\n      gt\n      iszero\n      tag_142\n      jumpi\n      tag_143\n      tag_89\n      jump\t// in\n    tag_143:\n    tag_142:\n      eq\n        /* \"Lottery.sol\":1861:1888  require(stage == Stage.Bid) */\n      tag_144\n      jumpi\n      0x00\n      dup1\n      revert\n    tag_144:\n        /* \"Lottery.sol\":1987:1988  0 */\n      0x00\n        /* \"Lottery.sol\":1950:1962  tokenDetails */\n      0x01\n        /* \"Lottery.sol\":1950:1974  tokenDetails[msg.sender] */\n      0x00\n        /* \"Lottery.sol\":1963:1973  msg.sender */\n      caller\n        /* \"Lottery.sol\":1950:1974  tokenDetails[msg.sender] */\n      0xffffffffffffffffffffffffffffffffffffffff\n      and\n      0xffffffffffffffffffffffffffffffffffffffff\n      and\n      dup2\n      mstore\n      0x20\n      add\n      swap1\n      dup2\n      mstore\n      0x20\n      add\n      0x00\n      keccak256\n        /* \"Lottery.sol\":1950:1983  tokenDetails[msg.sender].personId */\n      0x00\n      add\n      sload\n        /* \"Lottery.sol\":1950:1988  tokenDetails[msg.sender].personId != 0 */\n      sub\n        /* \"Lottery.sol\":1942:1989  require(tokenDetails[msg.sender].personId != 0) */\n      tag_145\n      jumpi\n      0x00\n      dup1\n      revert\n    tag_145:\n        /* \"Lottery.sol\":2106:2112  _count */\n      dup1\n        /* \"Lottery.sol\":2062:2074  tokenDetails */\n      0x01\n        /* \"Lottery.sol\":2062:2086  tokenDetails[msg.sender] */\n      0x00\n        /* \"Lottery.sol\":2075:2085  msg.sender */\n      caller\n        /* \"Lottery.sol\":2062:2086  tokenDetails[msg.sender] */\n      0xffffffffffffffffffffffffffffffffffffffff\n      and\n      0xffffffffffffffffffffffffffffffffffffffff\n      and\n      dup2\n      mstore\n      0x20\n      add\n      swap1\n      dup2\n      mstore\n      0x20\n      add\n      0x00\n      keccak256\n        /* \"Lottery.sol\":2062:2102  tokenDetails[msg.sender].remainingTokens */\n      0x02\n      add\n      sload\n        /* \"Lottery.sol\":2062:2112  tokenDetails[msg.sender].remainingTokens >= _count */\n      lt\n      iszero\n        /* \"Lottery.sol\":2054:2113  require(tokenDetails[msg.sender].remainingTokens >= _count) */\n      tag_146\n      jumpi\n      0x00\n      dup1\n      revert\n    tag_146:\n        /* \"Lottery.sol\":2307:2313  _count */\n      dup2\n        /* \"Lottery.sol\":2263:2275  tokenDetails */\n      0x01\n        /* \"Lottery.sol\":2263:2287  tokenDetails[msg.sender] */\n      0x00\n        /* \"Lottery.sol\":2276:2286  msg.sender */\n      caller\n        /* \"Lottery.sol\":2263:2287  tokenDetails[msg.sender] */\n      0xffffffffffffffffffffffffffffffffffffffff\n      and\n      0xffffffffffffffffffffffffffffffffffffffff\n      and\n      dup2\n      mstore\n      0x20\n      add\n      swap1\n      dup2\n      mstore\n      0x20\n      add\n      0x00\n      keccak256\n        /* \"Lottery.sol\":2263:2303  tokenDetails[msg.sender].remainingTokens */\n      0x02\n      add\n      0x00\n        /* \"Lottery.sol\":2263:2313  tokenDetails[msg.sender].remainingTokens -= _count */\n      dup3\n      dup3\n      sload\n      tag_148\n      swap2\n      swap1\n      tag_149\n      jump\t// in\n    tag_148:\n      swap3\n      pop\n      pop\n      dup2\n      swap1\n      sstore\n      pop\n        /* \"Lottery.sol\":2364:2370  uint i */\n      0x00\n        /* \"Lottery.sol\":2360:2460  for(uint i = 0; i < _count; i++) {... */\n    tag_150:\n        /* \"Lottery.sol\":2380:2386  _count */\n      dup3\n        /* \"Lottery.sol\":2376:2377  i */\n      dup2\n        /* \"Lottery.sol\":2376:2386  i < _count */\n      lt\n        /* \"Lottery.sol\":2360:2460  for(uint i = 0; i < _count; i++) {... */\n      iszero\n      tag_151\n      jumpi\n        /* \"Lottery.sol\":2407:2412  items */\n      0x02\n        /* \"Lottery.sol\":2413:2420  _itemId */\n      dup5\n        /* \"Lottery.sol\":2407:2421  items[_itemId] */\n      dup2\n      sload\n      dup2\n      lt\n      tag_153\n      jumpi\n      tag_154\n      tag_102\n      jump\t// in\n    tag_154:\n    tag_153:\n      swap1\n      0x00\n      mstore\n      keccak256(0x00, 0x20)\n      swap1\n      0x02\n      mul\n      add\n        /* \"Lottery.sol\":2407:2432  items[_itemId].itemTokens */\n      0x01\n      add\n        /* \"Lottery.sol\":2438:2448  msg.sender */\n      caller\n        /* \"Lottery.sol\":2407:2449  items[_itemId].itemTokens.push(msg.sender) */\n      swap1\n      dup1\n      0x01\n      dup2\n      sload\n      add\n      dup1\n      dup3\n      sstore\n      dup1\n      swap2\n      pop\n      pop\n      0x01\n      swap1\n      sub\n      swap1\n      0x00\n      mstore\n      keccak256(0x00, 0x20)\n      add\n      0x00\n      swap1\n      swap2\n      swap1\n      swap2\n      swap1\n      swap2\n      0x0100\n      exp\n      dup2\n      sload\n      dup2\n      0xffffffffffffffffffffffffffffffffffffffff\n      mul\n      not\n      and\n      swap1\n      dup4\n      0xffffffffffffffffffffffffffffffffffffffff\n      and\n      mul\n      or\n      swap1\n      sstore\n      pop\n        /* \"Lottery.sol\":2388:2391  i++ */\n      dup1\n      dup1\n      0x01\n      add\n      swap2\n      pop\n      pop\n        /* \"Lottery.sol\":2360:2460  for(uint i = 0; i < _count; i++) {... */\n      jump(tag_150)\n    tag_151:\n      pop\n        /* \"Lottery.sol\":2137:2466  function bid(uint _itemId, uint _count) public biddable(_count) payable {... */\n      pop\n      pop\n      pop\n      jump\t// out\n        /* \"Lottery.sol\":995:1088  function winnerGetter() public view returns(address[] memory) {... */\n    tag_46:\n        /* \"Lottery.sol\":1039:1055  address[] memory */\n      0x60\n        /* \"Lottery.sol\":1074:1081  winners */\n      0x00\n        /* \"Lottery.sol\":1067:1081  return winners */\n      dup1\n      sload\n      dup1\n      0x20\n      mul\n      0x20\n      add\n      mload(0x40)\n      swap1\n      dup2\n      add\n      0x40\n      mstore\n      dup1\n      swap3\n      swap2\n      swap1\n      dup2\n      dup2\n      mstore\n      0x20\n      add\n      dup3\n      dup1\n      sload\n      dup1\n      iszero\n      tag_158\n      jumpi\n      0x20\n      mul\n      dup3\n      add\n      swap2\n      swap1\n      0x00\n      mstore\n      keccak256(0x00, 0x20)\n      swap1\n    tag_159:\n      dup2\n      0x00\n      swap1\n      sload\n      swap1\n      0x0100\n      exp\n      swap1\n      div\n      0xffffffffffffffffffffffffffffffffffffffff\n      and\n      0xffffffffffffffffffffffffffffffffffffffff\n      and\n      dup2\n      mstore\n      0x20\n      add\n      swap1\n      0x01\n      add\n      swap1\n      dup1\n      dup4\n      gt\n      tag_159\n      jumpi\n    tag_158:\n      pop\n      pop\n      pop\n      pop\n      pop\n      swap1\n      pop\n        /* \"Lottery.sol\":995:1088  function winnerGetter() public view returns(address[] memory) {... */\n      swap1\n      jump\t// out\n        /* \"Lottery.sol\":2546:3315  function revealWinners() public onlyOwner {... */\n    tag_51:\n        /* \"Lottery.sol\":649:660  beneficiary */\n      0x05\n      0x01\n      swap1\n      sload\n      swap1\n      0x0100\n      exp\n      swap1\n      div\n      0xffffffffffffffffffffffffffffffffffffffff\n      and\n        /* \"Lottery.sol\":635:660  msg.sender == beneficiary */\n      0xffffffffffffffffffffffffffffffffffffffff\n      and\n        /* \"Lottery.sol\":635:645  msg.sender */\n      caller\n        /* \"Lottery.sol\":635:660  msg.sender == beneficiary */\n      0xffffffffffffffffffffffffffffffffffffffff\n      and\n      eq\n        /* \"Lottery.sol\":627:661  require(msg.sender == beneficiary) */\n      tag_161\n      jumpi\n      0x00\n      dup1\n      revert\n    tag_161:\n        /* \"Lottery.sol\":2615:2625  Stage.Done */\n      0x03\n        /* \"Lottery.sol\":2606:2625  stage == Stage.Done */\n      dup1\n      dup2\n      gt\n      iszero\n      tag_163\n      jumpi\n      tag_164\n      tag_89\n      jump\t// in\n    tag_164:\n    tag_163:\n        /* \"Lottery.sol\":2606:2611  stage */\n      0x05\n      0x00\n      swap1\n      sload\n      swap1\n      0x0100\n      exp\n      swap1\n      div\n      0xff\n      and\n        /* \"Lottery.sol\":2606:2625  stage == Stage.Done */\n      0x03\n      dup2\n      gt\n      iszero\n      tag_165\n      jumpi\n      tag_166\n      tag_89\n      jump\t// in\n    tag_166:\n    tag_165:\n      eq\n        /* \"Lottery.sol\":2598:2626  require(stage == Stage.Done) */\n      tag_167\n      jumpi\n      0x00\n      dup1\n      revert\n    tag_167:\n        /* \"Lottery.sol\":2662:2667  items */\n      0x02\n        /* \"Lottery.sol\":2662:2674  items.length */\n      dup1\n      sload\n      swap1\n      pop\n        /* \"Lottery.sol\":2644:2651  winners */\n      0x00\n        /* \"Lottery.sol\":2644:2658  winners.length */\n      dup1\n      sload\n      swap1\n      pop\n        /* \"Lottery.sol\":2644:2674  winners.length <= items.length */\n      gt\n      iszero\n        /* \"Lottery.sol\":2636:2675  require(winners.length <= items.length) */\n      tag_168\n      jumpi\n      0x00\n      dup1\n      revert\n    tag_168:\n        /* \"Lottery.sol\":2713:2729  uint randomIndex */\n      0x00\n        /* \"Lottery.sol\":2747:2753  uint i */\n      dup1\n        /* \"Lottery.sol\":2756:2763  winners */\n      dup1\n        /* \"Lottery.sol\":2756:2770  winners.length */\n      dup1\n      sload\n      swap1\n      pop\n        /* \"Lottery.sol\":2747:2770  uint i = winners.length */\n      swap1\n      pop\n        /* \"Lottery.sol\":2743:3309  for(uint i = winners.length; i < items.length; i++) {... */\n    tag_169:\n        /* \"Lottery.sol\":2776:2781  items */\n      0x02\n        /* \"Lottery.sol\":2776:2788  items.length */\n      dup1\n      sload\n      swap1\n      pop\n        /* \"Lottery.sol\":2772:2773  i */\n      dup2\n        /* \"Lottery.sol\":2772:2788  i < items.length */\n      lt\n        /* \"Lottery.sol\":2743:3309  for(uint i = winners.length; i < items.length; i++) {... */\n      iszero\n      tag_170\n      jumpi\n        /* \"Lottery.sol\":2842:2843  0 */\n      0x00\n        /* \"Lottery.sol\":2812:2817  items */\n      0x02\n        /* \"Lottery.sol\":2818:2819  i */\n      dup3\n        /* \"Lottery.sol\":2812:2820  items[i] */\n      dup2\n      sload\n      dup2\n      lt\n      tag_172\n      jumpi\n      tag_173\n      tag_102\n      jump\t// in\n    tag_173:\n    tag_172:\n      swap1\n      0x00\n      mstore\n      keccak256(0x00, 0x20)\n      swap1\n      0x02\n      mul\n      add\n        /* \"Lottery.sol\":2812:2831  items[i].itemTokens */\n      0x01\n      add\n        /* \"Lottery.sol\":2812:2838  items[i].itemTokens.length */\n      dup1\n      sload\n      swap1\n      pop\n        /* \"Lottery.sol\":2812:2843  items[i].itemTokens.length != 0 */\n      eq\n        /* \"Lottery.sol\":2809:3131  if(items[i].itemTokens.length != 0) {... */\n      tag_175\n      jumpi\n        /* \"Lottery.sol\":2942:2947  items */\n      0x02\n        /* \"Lottery.sol\":2948:2949  i */\n      dup2\n        /* \"Lottery.sol\":2942:2950  items[i] */\n      dup2\n      sload\n      dup2\n      lt\n      tag_176\n      jumpi\n      tag_177\n      tag_102\n      jump\t// in\n    tag_177:\n    tag_176:\n      swap1\n      0x00\n      mstore\n      keccak256(0x00, 0x20)\n      swap1\n      0x02\n      mul\n      add\n        /* \"Lottery.sol\":2942:2961  items[i].itemTokens */\n      0x01\n      add\n        /* \"Lottery.sol\":2942:2968  items[i].itemTokens.length */\n      dup1\n      sload\n      swap1\n      pop\n        /* \"Lottery.sol\":2926:2931  items */\n      0x02\n        /* \"Lottery.sol\":2926:2938  items.length */\n      dup1\n      sload\n      swap1\n      pop\n        /* \"Lottery.sol\":2908:2923  block.timestamp */\n      timestamp\n        /* \"Lottery.sol\":2908:2938  block.timestamp / items.length */\n      tag_179\n      swap2\n      swap1\n      tag_180\n      jump\t// in\n    tag_179:\n        /* \"Lottery.sol\":2893:2898  items */\n      0x02\n        /* \"Lottery.sol\":2893:2905  items.length */\n      dup1\n      sload\n      swap1\n      pop\n        /* \"Lottery.sol\":2878:2890  block.number */\n      number\n        /* \"Lottery.sol\":2878:2905  block.number / items.length */\n      tag_181\n      swap2\n      swap1\n      tag_180\n      jump\t// in\n    tag_181:\n        /* \"Lottery.sol\":2878:2938  block.number / items.length + block.timestamp / items.length */\n      tag_182\n      swap2\n      swap1\n      tag_98\n      jump\t// in\n    tag_182:\n        /* \"Lottery.sol\":2877:2968  (block.number / items.length + block.timestamp / items.length) % items[i].itemTokens.length */\n      tag_183\n      swap2\n      swap1\n      tag_184\n      jump\t// in\n    tag_183:\n        /* \"Lottery.sol\":2863:2968  randomIndex = (block.number / items.length + block.timestamp / items.length) % items[i].itemTokens.length */\n      swap2\n      pop\n        /* \"Lottery.sol\":2986:2993  winners */\n      0x00\n        /* \"Lottery.sol\":2999:3004  items */\n      0x02\n        /* \"Lottery.sol\":3005:3006  i */\n      dup3\n        /* \"Lottery.sol\":2999:3007  items[i] */\n      dup2\n      sload\n      dup2\n      lt\n      tag_185\n      jumpi\n      tag_186\n      tag_102\n      jump\t// in\n    tag_186:\n    tag_185:\n      swap1\n      0x00\n      mstore\n      keccak256(0x00, 0x20)\n      swap1\n      0x02\n      mul\n      add\n        /* \"Lottery.sol\":2999:3018  items[i].itemTokens */\n      0x01\n      add\n        /* \"Lottery.sol\":3019:3030  randomIndex */\n      dup4\n        /* \"Lottery.sol\":2999:3031  items[i].itemTokens[randomIndex] */\n      dup2\n      sload\n      dup2\n      lt\n      tag_188\n      jumpi\n      tag_189\n      tag_102\n      jump\t// in\n    tag_189:\n    tag_188:\n      swap1\n      0x00\n      mstore\n      keccak256(0x00, 0x20)\n      add\n      0x00\n      swap1\n      sload\n      swap1\n      0x0100\n      exp\n      swap1\n      div\n      0xffffffffffffffffffffffffffffffffffffffff\n      and\n        /* \"Lottery.sol\":2986:3032  winners.push(items[i].itemTokens[randomIndex]) */\n      swap1\n      dup1\n      0x01\n      dup2\n      sload\n      add\n      dup1\n      dup3\n      sstore\n      dup1\n      swap2\n      pop\n      pop\n      0x01\n      swap1\n      sub\n      swap1\n      0x00\n      mstore\n      keccak256(0x00, 0x20)\n      add\n      0x00\n      swap1\n      swap2\n      swap1\n      swap2\n      swap1\n      swap2\n      0x0100\n      exp\n      dup2\n      sload\n      dup2\n      0xffffffffffffffffffffffffffffffffffffffff\n      mul\n      not\n      and\n      swap1\n      dup4\n      0xffffffffffffffffffffffffffffffffffffffff\n      and\n      mul\n      or\n      swap1\n      sstore\n      pop\n        /* \"Lottery.sol\":3055:3116  WinnerEvent(items[i].itemTokens[randomIndex],i,lotteryNumber) */\n      0xc20f09c8f5012d640a5f76343b381ec2cda38bde00d2d177eaa02b21d449ec46\n        /* \"Lottery.sol\":3067:3072  items */\n      0x02\n        /* \"Lottery.sol\":3073:3074  i */\n      dup3\n        /* \"Lottery.sol\":3067:3075  items[i] */\n      dup2\n      sload\n      dup2\n      lt\n      tag_192\n      jumpi\n      tag_193\n      tag_102\n      jump\t// in\n    tag_193:\n    tag_192:\n      swap1\n      0x00\n      mstore\n      keccak256(0x00, 0x20)\n      swap1\n      0x02\n      mul\n      add\n        /* \"Lottery.sol\":3067:3086  items[i].itemTokens */\n      0x01\n      add\n        /* \"Lottery.sol\":3087:3098  randomIndex */\n      dup4\n        /* \"Lottery.sol\":3067:3099  items[i].itemTokens[randomIndex] */\n      dup2\n      sload\n      dup2\n      lt\n      tag_195\n      jumpi\n      tag_196\n      tag_102\n      jump\t// in\n    tag_196:\n    tag_195:\n      swap1\n      0x00\n      mstore\n      keccak256(0x00, 0x20)\n      add\n      0x00\n      swap1\n      sload\n      swap1\n      0x0100\n      exp\n      swap1\n      div\n      0xffffffffffffffffffffffffffffffffffffffff\n      and\n        /* \"Lottery.sol\":3100:3101  i */\n      dup3\n        /* \"Lottery.sol\":3102:3115  lotteryNumber */\n      sload(0x04)\n        /* \"Lottery.sol\":3055:3116  WinnerEvent(items[i].itemTokens[randomIndex],i,lotteryNumber) */\n      mload(0x40)\n      tag_198\n      swap4\n      swap3\n      swap2\n      swap1\n      tag_199\n      jump\t// in\n    tag_198:\n      mload(0x40)\n      dup1\n      swap2\n      sub\n      swap1\n      log1\n        /* \"Lottery.sol\":2809:3131  if(items[i].itemTokens.length != 0) {... */\n    tag_175:\n        /* \"Lottery.sol\":3177:3178  0 */\n      0x00\n        /* \"Lottery.sol\":3147:3152  items */\n      0x02\n        /* \"Lottery.sol\":3153:3154  i */\n      dup3\n        /* \"Lottery.sol\":3147:3155  items[i] */\n      dup2\n      sload\n      dup2\n      lt\n      tag_200\n      jumpi\n      tag_201\n      tag_102\n      jump\t// in\n    tag_201:\n    tag_200:\n      swap1\n      0x00\n      mstore\n      keccak256(0x00, 0x20)\n      swap1\n      0x02\n      mul\n      add\n        /* \"Lottery.sol\":3147:3166  items[i].itemTokens */\n      0x01\n      add\n        /* \"Lottery.sol\":3147:3173  items[i].itemTokens.length */\n      dup1\n      sload\n      swap1\n      pop\n        /* \"Lottery.sol\":3147:3178  items[i].itemTokens.length == 0 */\n      sub\n        /* \"Lottery.sol\":3144:3299  if(items[i].itemTokens.length == 0) {... */\n      tag_203\n      jumpi\n        /* \"Lottery.sol\":3198:3205  winners */\n      0x00\n        /* \"Lottery.sol\":3219:3220  0 */\n      dup1\n        /* \"Lottery.sol\":3198:3222  winners.push(address(0)) */\n      dup1\n      0x01\n      dup2\n      sload\n      add\n      dup1\n      dup3\n      sstore\n      dup1\n      swap2\n      pop\n      pop\n      0x01\n      swap1\n      sub\n      swap1\n      0x00\n      mstore\n      keccak256(0x00, 0x20)\n      add\n      0x00\n      swap1\n      swap2\n      swap1\n      swap2\n      swap1\n      swap2\n      0x0100\n      exp\n      dup2\n      sload\n      dup2\n      0xffffffffffffffffffffffffffffffffffffffff\n      mul\n      not\n      and\n      swap1\n      dup4\n      0xffffffffffffffffffffffffffffffffffffffff\n      and\n      mul\n      or\n      swap1\n      sstore\n      pop\n        /* \"Lottery.sol\":3245:3284  WinnerEvent(address(0),i,lotteryNumber) */\n      0xc20f09c8f5012d640a5f76343b381ec2cda38bde00d2d177eaa02b21d449ec46\n        /* \"Lottery.sol\":3265:3266  0 */\n      0x00\n        /* \"Lottery.sol\":3268:3269  i */\n      dup3\n        /* \"Lottery.sol\":3270:3283  lotteryNumber */\n      sload(0x04)\n        /* \"Lottery.sol\":3245:3284  WinnerEvent(address(0),i,lotteryNumber) */\n      mload(0x40)\n      tag_205\n      swap4\n      swap3\n      swap2\n      swap1\n      tag_199\n      jump\t// in\n    tag_205:\n      mload(0x40)\n      dup1\n      swap2\n      sub\n      swap1\n      log1\n        /* \"Lottery.sol\":3144:3299  if(items[i].itemTokens.length == 0) {... */\n    tag_203:\n        /* \"Lottery.sol\":2790:2793  i++ */\n      dup1\n      dup1\n      0x01\n      add\n      swap2\n      pop\n      pop\n        /* \"Lottery.sol\":2743:3309  for(uint i = winners.length; i < items.length; i++) {... */\n      jump(tag_169)\n    tag_170:\n      pop\n        /* \"Lottery.sol\":2588:3315  {... */\n      pop\n        /* \"Lottery.sol\":2546:3315  function revealWinners() public onlyOwner {... */\n      jump\t// out\n        /* \"Lottery.sol\":319:343  address[] public winners */\n    tag_55:\n      0x00\n      dup2\n      dup2\n      sload\n      dup2\n      lt\n      tag_206\n      jumpi\n      0x00\n      dup1\n      revert\n    tag_206:\n      swap1\n      0x00\n      mstore\n      keccak256(0x00, 0x20)\n      add\n      0x00\n      swap2\n      pop\n      sload\n      swap1\n      0x0100\n      exp\n      swap1\n      div\n      0xffffffffffffffffffffffffffffffffffffffff\n      and\n      dup2\n      jump\t// out\n        /* \"Lottery.sol\":448:477  uint public lotteryNumber = 0 */\n    tag_59:\n      sload(0x04)\n      dup2\n      jump\t// out\n        /* \"Lottery.sol\":401:420  Item[] public items */\n    tag_64:\n      0x02\n      dup2\n      dup2\n      sload\n      dup2\n      lt\n      tag_208\n      jumpi\n      0x00\n      dup1\n      revert\n    tag_208:\n      swap1\n      0x00\n      mstore\n      keccak256(0x00, 0x20)\n      swap1\n      0x02\n      mul\n      add\n      0x00\n      swap2\n      pop\n      swap1\n      pop\n      dup1\n      0x00\n      add\n      sload\n      swap1\n      pop\n      dup2\n      jump\t// out\n        /* \"Lottery.sol\":483:514  Stage public stage = Stage.Init */\n    tag_68:\n      0x05\n      0x00\n      swap1\n      sload\n      swap1\n      0x0100\n      exp\n      swap1\n      div\n      0xff\n      and\n      dup2\n      jump\t// out\n        /* \"Lottery.sol\":3321:3458  function advanceStage() public onlyOwner {... */\n    tag_73:\n        /* \"Lottery.sol\":649:660  beneficiary */\n      0x05\n      0x01\n      swap1\n      sload\n      swap1\n      0x0100\n      exp\n      swap1\n      div\n      0xffffffffffffffffffffffffffffffffffffffff\n      and\n        /* \"Lottery.sol\":635:660  msg.sender == beneficiary */\n      0xffffffffffffffffffffffffffffffffffffffff\n      and\n        /* \"Lottery.sol\":635:645  msg.sender */\n      caller\n        /* \"Lottery.sol\":635:660  msg.sender == beneficiary */\n      0xffffffffffffffffffffffffffffffffffffffff\n      and\n      eq\n        /* \"Lottery.sol\":627:661  require(msg.sender == beneficiary) */\n      tag_211\n      jumpi\n      0x00\n      dup1\n      revert\n    tag_211:\n        /* \"Lottery.sol\":3399:3409  Stage.Done */\n      0x03\n        /* \"Lottery.sol\":3394:3410  uint(Stage.Done) */\n      dup1\n      dup2\n      gt\n      iszero\n      tag_213\n      jumpi\n      tag_214\n      tag_89\n      jump\t// in\n    tag_214:\n    tag_213:\n        /* \"Lottery.sol\":3385:3390  stage */\n      0x05\n      0x00\n      swap1\n      sload\n      swap1\n      0x0100\n      exp\n      swap1\n      div\n      0xff\n      and\n        /* \"Lottery.sol\":3380:3391  uint(stage) */\n      0x03\n      dup2\n      gt\n      iszero\n      tag_215\n      jumpi\n      tag_216\n      tag_89\n      jump\t// in\n    tag_216:\n    tag_215:\n        /* \"Lottery.sol\":3380:3410  uint(stage) < uint(Stage.Done) */\n      lt\n        /* \"Lottery.sol\":3372:3411  require(uint(stage) < uint(Stage.Done)) */\n      tag_217\n      jumpi\n      0x00\n      dup1\n      revert\n    tag_217:\n        /* \"Lottery.sol\":3449:3450  1 */\n      0x01\n        /* \"Lottery.sol\":3440:3445  stage */\n      0x05\n      0x00\n      swap1\n      sload\n      swap1\n      0x0100\n      exp\n      swap1\n      div\n      0xff\n      and\n        /* \"Lottery.sol\":3435:3446  uint(stage) */\n      0x03\n      dup2\n      gt\n      iszero\n      tag_218\n      jumpi\n      tag_219\n      tag_89\n      jump\t// in\n    tag_219:\n    tag_218:\n        /* \"Lottery.sol\":3435:3450  uint(stage) + 1 */\n      tag_220\n      swap2\n      swap1\n      tag_98\n      jump\t// in\n    tag_220:\n        /* \"Lottery.sol\":3429:3451  Stage(uint(stage) + 1) */\n      0x03\n      dup2\n      gt\n      iszero\n      tag_221\n      jumpi\n      tag_222\n      tag_89\n      jump\t// in\n    tag_222:\n    tag_221:\n        /* \"Lottery.sol\":3421:3426  stage */\n      0x05\n      0x00\n        /* \"Lottery.sol\":3421:3451  stage = Stage(uint(stage) + 1) */\n      0x0100\n      exp\n      dup2\n      sload\n      dup2\n      0xff\n      mul\n      not\n      and\n      swap1\n      dup4\n      0x03\n      dup2\n      gt\n      iszero\n      tag_223\n      jumpi\n      tag_224\n      tag_89\n      jump\t// in\n    tag_224:\n    tag_223:\n      mul\n      or\n      swap1\n      sstore\n      pop\n        /* \"Lottery.sol\":3321:3458  function advanceStage() public onlyOwner {... */\n      jump\t// out\n        /* \"Lottery.sol\":349:395  mapping(address => Person) public tokenDetails */\n    tag_78:\n      mstore(0x20, 0x01)\n      dup1\n      0x00\n      mstore\n      keccak256(0x00, 0x40)\n      0x00\n      swap2\n      pop\n      swap1\n      pop\n      dup1\n      0x00\n      add\n      sload\n      swap1\n      dup1\n      0x01\n      add\n      0x00\n      swap1\n      sload\n      swap1\n      0x0100\n      exp\n      swap1\n      div\n      0xffffffffffffffffffffffffffffffffffffffff\n      and\n      swap1\n      dup1\n      0x02\n      add\n      sload\n      swap1\n      pop\n      dup4\n      jump\t// out\n        /* \"Lottery.sol\":1094:1303  function addMoreItems(uint _itemCount) public onlyOwner {... */\n    tag_84:\n        /* \"Lottery.sol\":649:660  beneficiary */\n      0x05\n      0x01\n      swap1\n      sload\n      swap1\n      0x0100\n      exp\n      swap1\n      div\n      0xffffffffffffffffffffffffffffffffffffffff\n      and\n        /* \"Lottery.sol\":635:660  msg.sender == beneficiary */\n      0xffffffffffffffffffffffffffffffffffffffff\n      and\n        /* \"Lottery.sol\":635:645  msg.sender */\n      caller\n        /* \"Lottery.sol\":635:660  msg.sender == beneficiary */\n      0xffffffffffffffffffffffffffffffffffffffff\n      and\n      eq\n        /* \"Lottery.sol\":627:661  require(msg.sender == beneficiary) */\n      tag_226\n      jumpi\n      0x00\n      dup1\n      revert\n    tag_226:\n        /* \"Lottery.sol\":1177:1187  Stage.Init */\n      0x00\n        /* \"Lottery.sol\":1168:1187  stage == Stage.Init */\n      0x03\n      dup2\n      gt\n      iszero\n      tag_228\n      jumpi\n      tag_229\n      tag_89\n      jump\t// in\n    tag_229:\n    tag_228:\n        /* \"Lottery.sol\":1168:1173  stage */\n      0x05\n      0x00\n      swap1\n      sload\n      swap1\n      0x0100\n      exp\n      swap1\n      div\n      0xff\n      and\n        /* \"Lottery.sol\":1168:1187  stage == Stage.Init */\n      0x03\n      dup2\n      gt\n      iszero\n      tag_230\n      jumpi\n      tag_231\n      tag_89\n      jump\t// in\n    tag_231:\n    tag_230:\n      eq\n        /* \"Lottery.sol\":1160:1188  require(stage == Stage.Init) */\n      tag_232\n      jumpi\n      0x00\n      dup1\n      revert\n    tag_232:\n        /* \"Lottery.sol\":1202:1208  uint i */\n      0x00\n        /* \"Lottery.sol\":1198:1297  for(uint i = 0; i < _itemCount; i++) {... */\n    tag_233:\n        /* \"Lottery.sol\":1218:1228  _itemCount */\n      dup2\n        /* \"Lottery.sol\":1214:1215  i */\n      dup2\n        /* \"Lottery.sol\":1214:1228  i < _itemCount */\n      lt\n        /* \"Lottery.sol\":1198:1297  for(uint i = 0; i < _itemCount; i++) {... */\n      iszero\n      tag_234\n      jumpi\n        /* \"Lottery.sol\":1249:1254  items */\n      0x02\n        /* \"Lottery.sol\":1260:1285  Item(i, new address[](0)) */\n      mload(0x40)\n      dup1\n      0x40\n      add\n      0x40\n      mstore\n      dup1\n        /* \"Lottery.sol\":1265:1266  i */\n      dup4\n        /* \"Lottery.sol\":1260:1285  Item(i, new address[](0)) */\n      dup2\n      mstore\n      0x20\n      add\n        /* \"Lottery.sol\":1282:1283  0 */\n      0x00\n        /* \"Lottery.sol\":1268:1284  new address[](0) */\n      0xffffffffffffffff\n      dup2\n      gt\n      iszero\n      tag_236\n      jumpi\n      tag_237\n      tag_129\n      jump\t// in\n    tag_237:\n    tag_236:\n      mload(0x40)\n      swap1\n      dup1\n      dup3\n      mstore\n      dup1\n      0x20\n      mul\n      0x20\n      add\n      dup3\n      add\n      0x40\n      mstore\n      dup1\n      iszero\n      tag_238\n      jumpi\n      dup2\n      0x20\n      add\n      0x20\n      dup3\n      mul\n      dup1\n      calldatasize\n      dup4\n      calldatacopy\n      dup1\n      dup3\n      add\n      swap2\n      pop\n      pop\n      swap1\n      pop\n    tag_238:\n      pop\n        /* \"Lottery.sol\":1260:1285  Item(i, new address[](0)) */\n      dup2\n      mstore\n      pop\n        /* \"Lottery.sol\":1249:1286  items.push(Item(i, new address[](0))) */\n      swap1\n      dup1\n      0x01\n      dup2\n      sload\n      add\n      dup1\n      dup3\n      sstore\n      dup1\n      swap2\n      pop\n      pop\n      0x01\n      swap1\n      sub\n      swap1\n      0x00\n      mstore\n      keccak256(0x00, 0x20)\n      swap1\n      0x02\n      mul\n      add\n      0x00\n      swap1\n      swap2\n      swap1\n      swap2\n      swap1\n      swap2\n      pop\n      0x00\n      dup3\n      add\n      mload\n      dup2\n      0x00\n      add\n      sstore\n      0x20\n      dup3\n      add\n      mload\n      dup2\n      0x01\n      add\n      swap1\n      dup1\n      mload\n      swap1\n      0x20\n      add\n      swap1\n      tag_240\n      swap3\n      swap2\n      swap1\n      tag_133\n      jump\t// in\n    tag_240:\n      pop\n      pop\n      pop\n        /* \"Lottery.sol\":1230:1233  i++ */\n      dup1\n      dup1\n      0x01\n      add\n      swap2\n      pop\n      pop\n        /* \"Lottery.sol\":1198:1297  for(uint i = 0; i < _itemCount; i++) {... */\n      jump(tag_233)\n    tag_234:\n      pop\n        /* \"Lottery.sol\":1094:1303  function addMoreItems(uint _itemCount) public onlyOwner {... */\n      pop\n      jump\t// out\n    tag_116:\n      pop\n      dup1\n      sload\n      0x00\n      dup3\n      sstore\n      0x03\n      mul\n      swap1\n      0x00\n      mstore\n      keccak256(0x00, 0x20)\n      swap1\n      dup2\n      add\n      swap1\n      tag_242\n      swap2\n      swap1\n      tag_243\n      jump\t// in\n    tag_242:\n      pop\n      jump\t// out\n    tag_118:\n      pop\n      dup1\n      sload\n      0x00\n      dup3\n      sstore\n      0x02\n      mul\n      swap1\n      0x00\n      mstore\n      keccak256(0x00, 0x20)\n      swap1\n      dup2\n      add\n      swap1\n      tag_245\n      swap2\n      swap1\n      tag_246\n      jump\t// in\n    tag_245:\n      pop\n      jump\t// out\n    tag_120:\n      pop\n      dup1\n      sload\n      0x00\n      dup3\n      sstore\n      swap1\n      0x00\n      mstore\n      keccak256(0x00, 0x20)\n      swap1\n      dup2\n      add\n      swap1\n      tag_248\n      swap2\n      swap1\n      tag_249\n      jump\t// in\n    tag_248:\n      pop\n      jump\t// out\n    tag_133:\n      dup3\n      dup1\n      sload\n      dup3\n      dup3\n      sstore\n      swap1\n      0x00\n      mstore\n      keccak256(0x00, 0x20)\n      swap1\n      dup2\n      add\n      swap3\n      dup3\n      iszero\n      tag_250\n      jumpi\n      swap2\n      0x20\n      mul\n      dup3\n      add\n    tag_251:\n      dup3\n      dup2\n      gt\n      iszero\n      tag_252\n      jumpi\n      dup3\n      mload\n      dup3\n      exp(0x0100, 0x00)\n      dup2\n      sload\n      dup2\n      0xffffffffffffffffffffffffffffffffffffffff\n      mul\n      not\n      and\n      swap1\n      dup4\n      0xffffffffffffffffffffffffffffffffffffffff\n      and\n      mul\n      or\n      swap1\n      sstore\n      pop\n      swap2\n      0x20\n      add\n      swap2\n      swap1\n      0x01\n      add\n      swap1\n      jump(tag_251)\n    tag_252:\n    tag_250:\n      pop\n      swap1\n      pop\n      tag_253\n      swap2\n      swap1\n      tag_249\n      jump\t// in\n    tag_253:\n      pop\n      swap1\n      jump\t// out\n    tag_243:\n    tag_254:\n      dup1\n      dup3\n      gt\n      iszero\n      tag_255\n      jumpi\n      0x00\n      dup1\n      dup3\n      add\n      0x00\n      swap1\n      sstore\n      0x01\n      dup3\n      add\n      exp(0x0100, 0x00)\n      dup2\n      sload\n      swap1\n      0xffffffffffffffffffffffffffffffffffffffff\n      mul\n      not\n      and\n      swap1\n      sstore\n      0x02\n      dup3\n      add\n      0x00\n      swap1\n      sstore\n      pop\n      0x03\n      add\n      jump(tag_254)\n    tag_255:\n      pop\n      swap1\n      jump\t// out\n    tag_246:\n    tag_256:\n      dup1\n      dup3\n      gt\n      iszero\n      tag_257\n      jumpi\n      0x00\n      dup1\n      dup3\n      add\n      0x00\n      swap1\n      sstore\n      0x01\n      dup3\n      add\n      0x00\n      tag_258\n      swap2\n      swap1\n      tag_120\n      jump\t// in\n    tag_258:\n      pop\n      0x02\n      add\n      jump(tag_256)\n    tag_257:\n      pop\n      swap1\n      jump\t// out\n    tag_249:\n    tag_259:\n      dup1\n      dup3\n      gt\n      iszero\n      tag_260\n      jumpi\n      0x00\n      dup2\n      0x00\n      swap1\n      sstore\n      pop\n      0x01\n      add\n      jump(tag_259)\n    tag_260:\n      pop\n      swap1\n      jump\t// out\n        /* \"#utility.yul\":7:84   */\n    tag_261:\n        /* \"#utility.yul\":44:51   */\n      0x00\n        /* \"#utility.yul\":73:78   */\n      dup2\n        /* \"#utility.yul\":62:78   */\n      swap1\n      pop\n        /* \"#utility.yul\":7:84   */\n      swap2\n      swap1\n      pop\n      jump\t// out\n        /* \"#utility.yul\":90:208   */\n    tag_262:\n        /* \"#utility.yul\":177:201   */\n      tag_289\n        /* \"#utility.yul\":195:200   */\n      dup2\n        /* \"#utility.yul\":177:201   */\n      tag_261\n      jump\t// in\n    tag_289:\n        /* \"#utility.yul\":172:175   */\n      dup3\n        /* \"#utility.yul\":165:202   */\n      mstore\n        /* \"#utility.yul\":90:208   */\n      pop\n      pop\n      jump\t// out\n        /* \"#utility.yul\":214:436   */\n    tag_24:\n        /* \"#utility.yul\":307:311   */\n      0x00\n        /* \"#utility.yul\":345:347   */\n      0x20\n        /* \"#utility.yul\":334:343   */\n      dup3\n        /* \"#utility.yul\":330:348   */\n      add\n        /* \"#utility.yul\":322:348   */\n      swap1\n      pop\n        /* \"#utility.yul\":358:429   */\n      tag_291\n        /* \"#utility.yul\":426:427   */\n      0x00\n        /* \"#utility.yul\":415:424   */\n      dup4\n        /* \"#utility.yul\":411:428   */\n      add\n        /* \"#utility.yul\":402:408   */\n      dup5\n        /* \"#utility.yul\":358:429   */\n      tag_262\n      jump\t// in\n    tag_291:\n        /* \"#utility.yul\":214:436   */\n      swap3\n      swap2\n      pop\n      pop\n      jump\t// out\n        /* \"#utility.yul\":523:640   */\n    tag_264:\n        /* \"#utility.yul\":632:633   */\n      0x00\n        /* \"#utility.yul\":629:630   */\n      dup1\n        /* \"#utility.yul\":622:634   */\n      revert\n        /* \"#utility.yul\":769:891   */\n    tag_266:\n        /* \"#utility.yul\":842:866   */\n      tag_296\n        /* \"#utility.yul\":860:865   */\n      dup2\n        /* \"#utility.yul\":842:866   */\n      tag_261\n      jump\t// in\n    tag_296:\n        /* \"#utility.yul\":835:840   */\n      dup2\n        /* \"#utility.yul\":832:867   */\n      eq\n        /* \"#utility.yul\":822:885   */\n      tag_297\n      jumpi\n        /* \"#utility.yul\":881:882   */\n      0x00\n        /* \"#utility.yul\":878:879   */\n      dup1\n        /* \"#utility.yul\":871:883   */\n      revert\n        /* \"#utility.yul\":822:885   */\n    tag_297:\n        /* \"#utility.yul\":769:891   */\n      pop\n      jump\t// out\n        /* \"#utility.yul\":897:1036   */\n    tag_267:\n        /* \"#utility.yul\":943:948   */\n      0x00\n        /* \"#utility.yul\":981:987   */\n      dup2\n        /* \"#utility.yul\":968:988   */\n      calldataload\n        /* \"#utility.yul\":959:988   */\n      swap1\n      pop\n        /* \"#utility.yul\":997:1030   */\n      tag_299\n        /* \"#utility.yul\":1024:1029   */\n      dup2\n        /* \"#utility.yul\":997:1030   */\n      tag_266\n      jump\t// in\n    tag_299:\n        /* \"#utility.yul\":897:1036   */\n      swap3\n      swap2\n      pop\n      pop\n      jump\t// out\n        /* \"#utility.yul\":1042:1371   */\n    tag_30:\n        /* \"#utility.yul\":1101:1107   */\n      0x00\n        /* \"#utility.yul\":1150:1152   */\n      0x20\n        /* \"#utility.yul\":1138:1147   */\n      dup3\n        /* \"#utility.yul\":1129:1136   */\n      dup5\n        /* \"#utility.yul\":1125:1148   */\n      sub\n        /* \"#utility.yul\":1121:1153   */\n      slt\n        /* \"#utility.yul\":1118:1237   */\n      iszero\n      tag_301\n      jumpi\n        /* \"#utility.yul\":1156:1235   */\n      tag_302\n      tag_264\n      jump\t// in\n    tag_302:\n        /* \"#utility.yul\":1118:1237   */\n    tag_301:\n        /* \"#utility.yul\":1276:1277   */\n      0x00\n        /* \"#utility.yul\":1301:1354   */\n      tag_303\n        /* \"#utility.yul\":1346:1353   */\n      dup5\n        /* \"#utility.yul\":1337:1343   */\n      dup3\n        /* \"#utility.yul\":1326:1335   */\n      dup6\n        /* \"#utility.yul\":1322:1344   */\n      add\n        /* \"#utility.yul\":1301:1354   */\n      tag_267\n      jump\t// in\n    tag_303:\n        /* \"#utility.yul\":1291:1354   */\n      swap2\n      pop\n        /* \"#utility.yul\":1247:1364   */\n      pop\n        /* \"#utility.yul\":1042:1371   */\n      swap3\n      swap2\n      pop\n      pop\n      jump\t// out\n        /* \"#utility.yul\":1377:1503   */\n    tag_268:\n        /* \"#utility.yul\":1414:1421   */\n      0x00\n        /* \"#utility.yul\":1454:1496   */\n      0xffffffffffffffffffffffffffffffffffffffff\n        /* \"#utility.yul\":1447:1452   */\n      dup3\n        /* \"#utility.yul\":1443:1497   */\n      and\n        /* \"#utility.yul\":1432:1497   */\n      swap1\n      pop\n        /* \"#utility.yul\":1377:1503   */\n      swap2\n      swap1\n      pop\n      jump\t// out\n        /* \"#utility.yul\":1509:1605   */\n    tag_269:\n        /* \"#utility.yul\":1546:1553   */\n      0x00\n        /* \"#utility.yul\":1575:1599   */\n      tag_306\n        /* \"#utility.yul\":1593:1598   */\n      dup3\n        /* \"#utility.yul\":1575:1599   */\n      tag_268\n      jump\t// in\n    tag_306:\n        /* \"#utility.yul\":1564:1599   */\n      swap1\n      pop\n        /* \"#utility.yul\":1509:1605   */\n      swap2\n      swap1\n      pop\n      jump\t// out\n        /* \"#utility.yul\":1611:1729   */\n    tag_270:\n        /* \"#utility.yul\":1698:1722   */\n      tag_308\n        /* \"#utility.yul\":1716:1721   */\n      dup2\n        /* \"#utility.yul\":1698:1722   */\n      tag_269\n      jump\t// in\n    tag_308:\n        /* \"#utility.yul\":1693:1696   */\n      dup3\n        /* \"#utility.yul\":1686:1723   */\n      mstore\n        /* \"#utility.yul\":1611:1729   */\n      pop\n      pop\n      jump\t// out\n        /* \"#utility.yul\":1735:1957   */\n    tag_36:\n        /* \"#utility.yul\":1828:1832   */\n      0x00\n        /* \"#utility.yul\":1866:1868   */\n      0x20\n        /* \"#utility.yul\":1855:1864   */\n      dup3\n        /* \"#utility.yul\":1851:1869   */\n      add\n        /* \"#utility.yul\":1843:1869   */\n      swap1\n      pop\n        /* \"#utility.yul\":1879:1950   */\n      tag_310\n        /* \"#utility.yul\":1947:1948   */\n      0x00\n        /* \"#utility.yul\":1936:1945   */\n      dup4\n        /* \"#utility.yul\":1932:1949   */\n      add\n        /* \"#utility.yul\":1923:1929   */\n      dup5\n        /* \"#utility.yul\":1879:1950   */\n      tag_270\n      jump\t// in\n    tag_310:\n        /* \"#utility.yul\":1735:1957   */\n      swap3\n      swap2\n      pop\n      pop\n      jump\t// out\n        /* \"#utility.yul\":1963:2437   */\n    tag_42:\n        /* \"#utility.yul\":2031:2037   */\n      0x00\n        /* \"#utility.yul\":2039:2045   */\n      dup1\n        /* \"#utility.yul\":2088:2090   */\n      0x40\n        /* \"#utility.yul\":2076:2085   */\n      dup4\n        /* \"#utility.yul\":2067:2074   */\n      dup6\n        /* \"#utility.yul\":2063:2086   */\n      sub\n        /* \"#utility.yul\":2059:2091   */\n      slt\n        /* \"#utility.yul\":2056:2175   */\n      iszero\n      tag_312\n      jumpi\n        /* \"#utility.yul\":2094:2173   */\n      tag_313\n      tag_264\n      jump\t// in\n    tag_313:\n        /* \"#utility.yul\":2056:2175   */\n    tag_312:\n        /* \"#utility.yul\":2214:2215   */\n      0x00\n        /* \"#utility.yul\":2239:2292   */\n      tag_314\n        /* \"#utility.yul\":2284:2291   */\n      dup6\n        /* \"#utility.yul\":2275:2281   */\n      dup3\n        /* \"#utility.yul\":2264:2273   */\n      dup7\n        /* \"#utility.yul\":2260:2282   */\n      add\n        /* \"#utility.yul\":2239:2292   */\n      tag_267\n      jump\t// in\n    tag_314:\n        /* \"#utility.yul\":2229:2292   */\n      swap3\n      pop\n        /* \"#utility.yul\":2185:2302   */\n      pop\n        /* \"#utility.yul\":2341:2343   */\n      0x20\n        /* \"#utility.yul\":2367:2420   */\n      tag_315\n        /* \"#utility.yul\":2412:2419   */\n      dup6\n        /* \"#utility.yul\":2403:2409   */\n      dup3\n        /* \"#utility.yul\":2392:2401   */\n      dup7\n        /* \"#utility.yul\":2388:2410   */\n      add\n        /* \"#utility.yul\":2367:2420   */\n      tag_267\n      jump\t// in\n    tag_315:\n        /* \"#utility.yul\":2357:2420   */\n      swap2\n      pop\n        /* \"#utility.yul\":2312:2430   */\n      pop\n        /* \"#utility.yul\":1963:2437   */\n      swap3\n      pop\n      swap3\n      swap1\n      pop\n      jump\t// out\n        /* \"#utility.yul\":2443:2557   */\n    tag_271:\n        /* \"#utility.yul\":2510:2516   */\n      0x00\n        /* \"#utility.yul\":2544:2549   */\n      dup2\n        /* \"#utility.yul\":2538:2550   */\n      mload\n        /* \"#utility.yul\":2528:2550   */\n      swap1\n      pop\n        /* \"#utility.yul\":2443:2557   */\n      swap2\n      swap1\n      pop\n      jump\t// out\n        /* \"#utility.yul\":2563:2747   */\n    tag_272:\n        /* \"#utility.yul\":2662:2673   */\n      0x00\n        /* \"#utility.yul\":2696:2702   */\n      dup3\n        /* \"#utility.yul\":2691:2694   */\n      dup3\n        /* \"#utility.yul\":2684:2703   */\n      mstore\n        /* \"#utility.yul\":2736:2740   */\n      0x20\n        /* \"#utility.yul\":2731:2734   */\n      dup3\n        /* \"#utility.yul\":2727:2741   */\n      add\n        /* \"#utility.yul\":2712:2741   */\n      swap1\n      pop\n        /* \"#utility.yul\":2563:2747   */\n      swap3\n      swap2\n      pop\n      pop\n      jump\t// out\n        /* \"#utility.yul\":2753:2885   */\n    tag_273:\n        /* \"#utility.yul\":2820:2824   */\n      0x00\n        /* \"#utility.yul\":2843:2846   */\n      dup2\n        /* \"#utility.yul\":2835:2846   */\n      swap1\n      pop\n        /* \"#utility.yul\":2873:2877   */\n      0x20\n        /* \"#utility.yul\":2868:2871   */\n      dup3\n        /* \"#utility.yul\":2864:2878   */\n      add\n        /* \"#utility.yul\":2856:2878   */\n      swap1\n      pop\n        /* \"#utility.yul\":2753:2885   */\n      swap2\n      swap1\n      pop\n      jump\t// out\n        /* \"#utility.yul\":2891:2999   */\n    tag_274:\n        /* \"#utility.yul\":2968:2992   */\n      tag_320\n        /* \"#utility.yul\":2986:2991   */\n      dup2\n        /* \"#utility.yul\":2968:2992   */\n      tag_269\n      jump\t// in\n    tag_320:\n        /* \"#utility.yul\":2963:2966   */\n      dup3\n        /* \"#utility.yul\":2956:2993   */\n      mstore\n        /* \"#utility.yul\":2891:2999   */\n      pop\n      pop\n      jump\t// out\n        /* \"#utility.yul\":3005:3184   */\n    tag_275:\n        /* \"#utility.yul\":3074:3084   */\n      0x00\n        /* \"#utility.yul\":3095:3141   */\n      tag_322\n        /* \"#utility.yul\":3137:3140   */\n      dup4\n        /* \"#utility.yul\":3129:3135   */\n      dup4\n        /* \"#utility.yul\":3095:3141   */\n      tag_274\n      jump\t// in\n    tag_322:\n        /* \"#utility.yul\":3173:3177   */\n      0x20\n        /* \"#utility.yul\":3168:3171   */\n      dup4\n        /* \"#utility.yul\":3164:3178   */\n      add\n        /* \"#utility.yul\":3150:3178   */\n      swap1\n      pop\n        /* \"#utility.yul\":3005:3184   */\n      swap3\n      swap2\n      pop\n      pop\n      jump\t// out\n        /* \"#utility.yul\":3190:3303   */\n    tag_276:\n        /* \"#utility.yul\":3260:3264   */\n      0x00\n        /* \"#utility.yul\":3292:3296   */\n      0x20\n        /* \"#utility.yul\":3287:3290   */\n      dup3\n        /* \"#utility.yul\":3283:3297   */\n      add\n        /* \"#utility.yul\":3275:3297   */\n      swap1\n      pop\n        /* \"#utility.yul\":3190:3303   */\n      swap2\n      swap1\n      pop\n      jump\t// out\n        /* \"#utility.yul\":3339:4071   */\n    tag_277:\n        /* \"#utility.yul\":3458:3461   */\n      0x00\n        /* \"#utility.yul\":3487:3541   */\n      tag_325\n        /* \"#utility.yul\":3535:3540   */\n      dup3\n        /* \"#utility.yul\":3487:3541   */\n      tag_271\n      jump\t// in\n    tag_325:\n        /* \"#utility.yul\":3557:3643   */\n      tag_326\n        /* \"#utility.yul\":3636:3642   */\n      dup2\n        /* \"#utility.yul\":3631:3634   */\n      dup6\n        /* \"#utility.yul\":3557:3643   */\n      tag_272\n      jump\t// in\n    tag_326:\n        /* \"#utility.yul\":3550:3643   */\n      swap4\n      pop\n        /* \"#utility.yul\":3667:3723   */\n      tag_327\n        /* \"#utility.yul\":3717:3722   */\n      dup4\n        /* \"#utility.yul\":3667:3723   */\n      tag_273\n      jump\t// in\n    tag_327:\n        /* \"#utility.yul\":3746:3753   */\n      dup1\n        /* \"#utility.yul\":3777:3778   */\n      0x00\n        /* \"#utility.yul\":3762:4046   */\n    tag_328:\n        /* \"#utility.yul\":3787:3793   */\n      dup4\n        /* \"#utility.yul\":3784:3785   */\n      dup2\n        /* \"#utility.yul\":3781:3794   */\n      lt\n        /* \"#utility.yul\":3762:4046   */\n      iszero\n      tag_330\n      jumpi\n        /* \"#utility.yul\":3863:3869   */\n      dup2\n        /* \"#utility.yul\":3857:3870   */\n      mload\n        /* \"#utility.yul\":3890:3953   */\n      tag_331\n        /* \"#utility.yul\":3949:3952   */\n      dup9\n        /* \"#utility.yul\":3934:3947   */\n      dup3\n        /* \"#utility.yul\":3890:3953   */\n      tag_275\n      jump\t// in\n    tag_331:\n        /* \"#utility.yul\":3883:3953   */\n      swap8\n      pop\n        /* \"#utility.yul\":3976:4036   */\n      tag_332\n        /* \"#utility.yul\":4029:4035   */\n      dup4\n        /* \"#utility.yul\":3976:4036   */\n      tag_276\n      jump\t// in\n    tag_332:\n        /* \"#utility.yul\":3966:4036   */\n      swap3\n      pop\n        /* \"#utility.yul\":3822:4046   */\n      pop\n        /* \"#utility.yul\":3809:3810   */\n      0x01\n        /* \"#utility.yul\":3806:3807   */\n      dup2\n        /* \"#utility.yul\":3802:3811   */\n      add\n        /* \"#utility.yul\":3797:3811   */\n      swap1\n      pop\n        /* \"#utility.yul\":3762:4046   */\n      jump(tag_328)\n    tag_330:\n        /* \"#utility.yul\":3766:3780   */\n      pop\n        /* \"#utility.yul\":4062:4065   */\n      dup6\n        /* \"#utility.yul\":4055:4065   */\n      swap4\n      pop\n        /* \"#utility.yul\":3463:4071   */\n      pop\n      pop\n      pop\n        /* \"#utility.yul\":3339:4071   */\n      swap3\n      swap2\n      pop\n      pop\n      jump\t// out\n        /* \"#utility.yul\":4077:4450   */\n    tag_48:\n        /* \"#utility.yul\":4220:4224   */\n      0x00\n        /* \"#utility.yul\":4258:4260   */\n      0x20\n        /* \"#utility.yul\":4247:4256   */\n      dup3\n        /* \"#utility.yul\":4243:4261   */\n      add\n        /* \"#utility.yul\":4235:4261   */\n      swap1\n      pop\n        /* \"#utility.yul\":4307:4316   */\n      dup2\n        /* \"#utility.yul\":4301:4305   */\n      dup2\n        /* \"#utility.yul\":4297:4317   */\n      sub\n        /* \"#utility.yul\":4293:4294   */\n      0x00\n        /* \"#utility.yul\":4282:4291   */\n      dup4\n        /* \"#utility.yul\":4278:4295   */\n      add\n        /* \"#utility.yul\":4271:4318   */\n      mstore\n        /* \"#utility.yul\":4335:4443   */\n      tag_334\n        /* \"#utility.yul\":4438:4442   */\n      dup2\n        /* \"#utility.yul\":4429:4435   */\n      dup5\n        /* \"#utility.yul\":4335:4443   */\n      tag_277\n      jump\t// in\n    tag_334:\n        /* \"#utility.yul\":4327:4443   */\n      swap1\n      pop\n        /* \"#utility.yul\":4077:4450   */\n      swap3\n      swap2\n      pop\n      pop\n      jump\t// out\n        /* \"#utility.yul\":4456:4636   */\n    tag_89:\n        /* \"#utility.yul\":4504:4581   */\n      0x4e487b7100000000000000000000000000000000000000000000000000000000\n        /* \"#utility.yul\":4501:4502   */\n      0x00\n        /* \"#utility.yul\":4494:4582   */\n      mstore\n        /* \"#utility.yul\":4601:4605   */\n      0x21\n        /* \"#utility.yul\":4598:4599   */\n      0x04\n        /* \"#utility.yul\":4591:4606   */\n      mstore\n        /* \"#utility.yul\":4625:4629   */\n      0x24\n        /* \"#utility.yul\":4622:4623   */\n      0x00\n        /* \"#utility.yul\":4615:4630   */\n      revert\n        /* \"#utility.yul\":4642:4755   */\n    tag_278:\n        /* \"#utility.yul\":4723:4724   */\n      0x04\n        /* \"#utility.yul\":4716:4721   */\n      dup2\n        /* \"#utility.yul\":4713:4725   */\n      lt\n        /* \"#utility.yul\":4703:4749   */\n      tag_337\n      jumpi\n        /* \"#utility.yul\":4729:4747   */\n      tag_338\n      tag_89\n      jump\t// in\n    tag_338:\n        /* \"#utility.yul\":4703:4749   */\n    tag_337:\n        /* \"#utility.yul\":4642:4755   */\n      pop\n      jump\t// out\n        /* \"#utility.yul\":4761:4888   */\n    tag_279:\n        /* \"#utility.yul\":4806:4813   */\n      0x00\n        /* \"#utility.yul\":4835:4840   */\n      dup2\n        /* \"#utility.yul\":4824:4840   */\n      swap1\n      pop\n        /* \"#utility.yul\":4841:4882   */\n      tag_340\n        /* \"#utility.yul\":4876:4881   */\n      dup3\n        /* \"#utility.yul\":4841:4882   */\n      tag_278\n      jump\t// in\n    tag_340:\n        /* \"#utility.yul\":4761:4888   */\n      swap2\n      swap1\n      pop\n      jump\t// out\n        /* \"#utility.yul\":4894:5021   */\n    tag_280:\n        /* \"#utility.yul\":4950:4959   */\n      0x00\n        /* \"#utility.yul\":4983:5015   */\n      tag_342\n        /* \"#utility.yul\":5009:5014   */\n      dup3\n        /* \"#utility.yul\":4983:5015   */\n      tag_279\n      jump\t// in\n    tag_342:\n        /* \"#utility.yul\":4970:5015   */\n      swap1\n      pop\n        /* \"#utility.yul\":4894:5021   */\n      swap2\n      swap1\n      pop\n      jump\t// out\n        /* \"#utility.yul\":5027:5170   */\n    tag_281:\n        /* \"#utility.yul\":5120:5163   */\n      tag_344\n        /* \"#utility.yul\":5157:5162   */\n      dup2\n        /* \"#utility.yul\":5120:5163   */\n      tag_280\n      jump\t// in\n    tag_344:\n        /* \"#utility.yul\":5115:5118   */\n      dup3\n        /* \"#utility.yul\":5108:5164   */\n      mstore\n        /* \"#utility.yul\":5027:5170   */\n      pop\n      pop\n      jump\t// out\n        /* \"#utility.yul\":5176:5410   */\n    tag_70:\n        /* \"#utility.yul\":5275:5279   */\n      0x00\n        /* \"#utility.yul\":5313:5315   */\n      0x20\n        /* \"#utility.yul\":5302:5311   */\n      dup3\n        /* \"#utility.yul\":5298:5316   */\n      add\n        /* \"#utility.yul\":5290:5316   */\n      swap1\n      pop\n        /* \"#utility.yul\":5326:5403   */\n      tag_346\n        /* \"#utility.yul\":5400:5401   */\n      0x00\n        /* \"#utility.yul\":5389:5398   */\n      dup4\n        /* \"#utility.yul\":5385:5402   */\n      add\n        /* \"#utility.yul\":5376:5382   */\n      dup5\n        /* \"#utility.yul\":5326:5403   */\n      tag_281\n      jump\t// in\n    tag_346:\n        /* \"#utility.yul\":5176:5410   */\n      swap3\n      swap2\n      pop\n      pop\n      jump\t// out\n        /* \"#utility.yul\":5416:5538   */\n    tag_282:\n        /* \"#utility.yul\":5489:5513   */\n      tag_348\n        /* \"#utility.yul\":5507:5512   */\n      dup2\n        /* \"#utility.yul\":5489:5513   */\n      tag_269\n      jump\t// in\n    tag_348:\n        /* \"#utility.yul\":5482:5487   */\n      dup2\n        /* \"#utility.yul\":5479:5514   */\n      eq\n        /* \"#utility.yul\":5469:5532   */\n      tag_349\n      jumpi\n        /* \"#utility.yul\":5528:5529   */\n      0x00\n        /* \"#utility.yul\":5525:5526   */\n      dup1\n        /* \"#utility.yul\":5518:5530   */\n      revert\n        /* \"#utility.yul\":5469:5532   */\n    tag_349:\n        /* \"#utility.yul\":5416:5538   */\n      pop\n      jump\t// out\n        /* \"#utility.yul\":5544:5683   */\n    tag_283:\n        /* \"#utility.yul\":5590:5595   */\n      0x00\n        /* \"#utility.yul\":5628:5634   */\n      dup2\n        /* \"#utility.yul\":5615:5635   */\n      calldataload\n        /* \"#utility.yul\":5606:5635   */\n      swap1\n      pop\n        /* \"#utility.yul\":5644:5677   */\n      tag_351\n        /* \"#utility.yul\":5671:5676   */\n      dup2\n        /* \"#utility.yul\":5644:5677   */\n      tag_282\n      jump\t// in\n    tag_351:\n        /* \"#utility.yul\":5544:5683   */\n      swap3\n      swap2\n      pop\n      pop\n      jump\t// out\n        /* \"#utility.yul\":5689:6018   */\n    tag_77:\n        /* \"#utility.yul\":5748:5754   */\n      0x00\n        /* \"#utility.yul\":5797:5799   */\n      0x20\n        /* \"#utility.yul\":5785:5794   */\n      dup3\n        /* \"#utility.yul\":5776:5783   */\n      dup5\n        /* \"#utility.yul\":5772:5795   */\n      sub\n        /* \"#utility.yul\":5768:5800   */\n      slt\n        /* \"#utility.yul\":5765:5884   */\n      iszero\n      tag_353\n      jumpi\n        /* \"#utility.yul\":5803:5882   */\n      tag_354\n      tag_264\n      jump\t// in\n    tag_354:\n        /* \"#utility.yul\":5765:5884   */\n    tag_353:\n        /* \"#utility.yul\":5923:5924   */\n      0x00\n        /* \"#utility.yul\":5948:6001   */\n      tag_355\n        /* \"#utility.yul\":5993:6000   */\n      dup5\n        /* \"#utility.yul\":5984:5990   */\n      dup3\n        /* \"#utility.yul\":5973:5982   */\n      dup6\n        /* \"#utility.yul\":5969:5991   */\n      add\n        /* \"#utility.yul\":5948:6001   */\n      tag_283\n      jump\t// in\n    tag_355:\n        /* \"#utility.yul\":5938:6001   */\n      swap2\n      pop\n        /* \"#utility.yul\":5894:6011   */\n      pop\n        /* \"#utility.yul\":5689:6018   */\n      swap3\n      swap2\n      pop\n      pop\n      jump\t// out\n        /* \"#utility.yul\":6024:6466   */\n    tag_80:\n        /* \"#utility.yul\":6173:6177   */\n      0x00\n        /* \"#utility.yul\":6211:6213   */\n      0x60\n        /* \"#utility.yul\":6200:6209   */\n      dup3\n        /* \"#utility.yul\":6196:6214   */\n      add\n        /* \"#utility.yul\":6188:6214   */\n      swap1\n      pop\n        /* \"#utility.yul\":6224:6295   */\n      tag_357\n        /* \"#utility.yul\":6292:6293   */\n      0x00\n        /* \"#utility.yul\":6281:6290   */\n      dup4\n        /* \"#utility.yul\":6277:6294   */\n      add\n        /* \"#utility.yul\":6268:6274   */\n      dup7\n        /* \"#utility.yul\":6224:6295   */\n      tag_262\n      jump\t// in\n    tag_357:\n        /* \"#utility.yul\":6305:6377   */\n      tag_358\n        /* \"#utility.yul\":6373:6375   */\n      0x20\n        /* \"#utility.yul\":6362:6371   */\n      dup4\n        /* \"#utility.yul\":6358:6376   */\n      add\n        /* \"#utility.yul\":6349:6355   */\n      dup6\n        /* \"#utility.yul\":6305:6377   */\n      tag_270\n      jump\t// in\n    tag_358:\n        /* \"#utility.yul\":6387:6459   */\n      tag_359\n        /* \"#utility.yul\":6455:6457   */\n      0x40\n        /* \"#utility.yul\":6444:6453   */\n      dup4\n        /* \"#utility.yul\":6440:6458   */\n      add\n        /* \"#utility.yul\":6431:6437   */\n      dup5\n        /* \"#utility.yul\":6387:6459   */\n      tag_262\n      jump\t// in\n    tag_359:\n        /* \"#utility.yul\":6024:6466   */\n      swap5\n      swap4\n      pop\n      pop\n      pop\n      pop\n      jump\t// out\n        /* \"#utility.yul\":6472:6652   */\n    tag_284:\n        /* \"#utility.yul\":6520:6597   */\n      0x4e487b7100000000000000000000000000000000000000000000000000000000\n        /* \"#utility.yul\":6517:6518   */\n      0x00\n        /* \"#utility.yul\":6510:6598   */\n      mstore\n        /* \"#utility.yul\":6617:6621   */\n      0x11\n        /* \"#utility.yul\":6614:6615   */\n      0x04\n        /* \"#utility.yul\":6607:6622   */\n      mstore\n        /* \"#utility.yul\":6641:6645   */\n      0x24\n        /* \"#utility.yul\":6638:6639   */\n      0x00\n        /* \"#utility.yul\":6631:6646   */\n      revert\n        /* \"#utility.yul\":6658:6849   */\n    tag_98:\n        /* \"#utility.yul\":6698:6701   */\n      0x00\n        /* \"#utility.yul\":6717:6737   */\n      tag_362\n        /* \"#utility.yul\":6735:6736   */\n      dup3\n        /* \"#utility.yul\":6717:6737   */\n      tag_261\n      jump\t// in\n    tag_362:\n        /* \"#utility.yul\":6712:6737   */\n      swap2\n      pop\n        /* \"#utility.yul\":6751:6771   */\n      tag_363\n        /* \"#utility.yul\":6769:6770   */\n      dup4\n        /* \"#utility.yul\":6751:6771   */\n      tag_261\n      jump\t// in\n    tag_363:\n        /* \"#utility.yul\":6746:6771   */\n      swap3\n      pop\n        /* \"#utility.yul\":6794:6795   */\n      dup3\n        /* \"#utility.yul\":6791:6792   */\n      dup3\n        /* \"#utility.yul\":6787:6796   */\n      add\n        /* \"#utility.yul\":6780:6796   */\n      swap1\n      pop\n        /* \"#utility.yul\":6815:6818   */\n      dup1\n        /* \"#utility.yul\":6812:6813   */\n      dup3\n        /* \"#utility.yul\":6809:6819   */\n      gt\n        /* \"#utility.yul\":6806:6842   */\n      iszero\n      tag_364\n      jumpi\n        /* \"#utility.yul\":6822:6840   */\n      tag_365\n      tag_284\n      jump\t// in\n    tag_365:\n        /* \"#utility.yul\":6806:6842   */\n    tag_364:\n        /* \"#utility.yul\":6658:6849   */\n      swap3\n      swap2\n      pop\n      pop\n      jump\t// out\n        /* \"#utility.yul\":6855:7035   */\n    tag_102:\n        /* \"#utility.yul\":6903:6980   */\n      0x4e487b7100000000000000000000000000000000000000000000000000000000\n        /* \"#utility.yul\":6900:6901   */\n      0x00\n        /* \"#utility.yul\":6893:6981   */\n      mstore\n        /* \"#utility.yul\":7000:7004   */\n      0x32\n        /* \"#utility.yul\":6997:6998   */\n      0x04\n        /* \"#utility.yul\":6990:7005   */\n      mstore\n        /* \"#utility.yul\":7024:7028   */\n      0x24\n        /* \"#utility.yul\":7021:7022   */\n      0x00\n        /* \"#utility.yul\":7014:7029   */\n      revert\n        /* \"#utility.yul\":7041:7274   */\n    tag_105:\n        /* \"#utility.yul\":7080:7083   */\n      0x00\n        /* \"#utility.yul\":7103:7127   */\n      tag_368\n        /* \"#utility.yul\":7121:7126   */\n      dup3\n        /* \"#utility.yul\":7103:7127   */\n      tag_261\n      jump\t// in\n    tag_368:\n        /* \"#utility.yul\":7094:7127   */\n      swap2\n      pop\n        /* \"#utility.yul\":7149:7215   */\n      0xffffffffffffffffffffffffffffffffffffffffffffffffffffffffffffffff\n        /* \"#utility.yul\":7142:7147   */\n      dup3\n        /* \"#utility.yul\":7139:7216   */\n      sub\n        /* \"#utility.yul\":7136:7239   */\n      tag_369\n      jumpi\n        /* \"#utility.yul\":7219:7237   */\n      tag_370\n      tag_284\n      jump\t// in\n    tag_370:\n        /* \"#utility.yul\":7136:7239   */\n    tag_369:\n        /* \"#utility.yul\":7266:7267   */\n      0x01\n        /* \"#utility.yul\":7259:7264   */\n      dup3\n        /* \"#utility.yul\":7255:7268   */\n      add\n        /* \"#utility.yul\":7248:7268   */\n      swap1\n      pop\n        /* \"#utility.yul\":7041:7274   */\n      swap2\n      swap1\n      pop\n      jump\t// out\n        /* \"#utility.yul\":7280:7460   */\n    tag_129:\n        /* \"#utility.yul\":7328:7405   */\n      0x4e487b7100000000000000000000000000000000000000000000000000000000\n        /* \"#utility.yul\":7325:7326   */\n      0x00\n        /* \"#utility.yul\":7318:7406   */\n      mstore\n        /* \"#utility.yul\":7425:7429   */\n      0x41\n        /* \"#utility.yul\":7422:7423   */\n      0x04\n        /* \"#utility.yul\":7415:7430   */\n      mstore\n        /* \"#utility.yul\":7449:7453   */\n      0x24\n        /* \"#utility.yul\":7446:7447   */\n      0x00\n        /* \"#utility.yul\":7439:7454   */\n      revert\n        /* \"#utility.yul\":7466:7660   */\n    tag_149:\n        /* \"#utility.yul\":7506:7510   */\n      0x00\n        /* \"#utility.yul\":7526:7546   */\n      tag_373\n        /* \"#utility.yul\":7544:7545   */\n      dup3\n        /* \"#utility.yul\":7526:7546   */\n      tag_261\n      jump\t// in\n    tag_373:\n        /* \"#utility.yul\":7521:7546   */\n      swap2\n      pop\n        /* \"#utility.yul\":7560:7580   */\n      tag_374\n        /* \"#utility.yul\":7578:7579   */\n      dup4\n        /* \"#utility.yul\":7560:7580   */\n      tag_261\n      jump\t// in\n    tag_374:\n        /* \"#utility.yul\":7555:7580   */\n      swap3\n      pop\n        /* \"#utility.yul\":7604:7605   */\n      dup3\n        /* \"#utility.yul\":7601:7602   */\n      dup3\n        /* \"#utility.yul\":7597:7606   */\n      sub\n        /* \"#utility.yul\":7589:7606   */\n      swap1\n      pop\n        /* \"#utility.yul\":7628:7629   */\n      dup2\n        /* \"#utility.yul\":7622:7626   */\n      dup2\n        /* \"#utility.yul\":7619:7630   */\n      gt\n        /* \"#utility.yul\":7616:7653   */\n      iszero\n      tag_375\n      jumpi\n        /* \"#utility.yul\":7633:7651   */\n      tag_376\n      tag_284\n      jump\t// in\n    tag_376:\n        /* \"#utility.yul\":7616:7653   */\n    tag_375:\n        /* \"#utility.yul\":7466:7660   */\n      swap3\n      swap2\n      pop\n      pop\n      jump\t// out\n        /* \"#utility.yul\":7666:7846   */\n    tag_285:\n        /* \"#utility.yul\":7714:7791   */\n      0x4e487b7100000000000000000000000000000000000000000000000000000000\n        /* \"#utility.yul\":7711:7712   */\n      0x00\n        /* \"#utility.yul\":7704:7792   */\n      mstore\n        /* \"#utility.yul\":7811:7815   */\n      0x12\n        /* \"#utility.yul\":7808:7809   */\n      0x04\n        /* \"#utility.yul\":7801:7816   */\n      mstore\n        /* \"#utility.yul\":7835:7839   */\n      0x24\n        /* \"#utility.yul\":7832:7833   */\n      0x00\n        /* \"#utility.yul\":7825:7840   */\n      revert\n        /* \"#utility.yul\":7852:8037   */\n    tag_180:\n        /* \"#utility.yul\":7892:7893   */\n      0x00\n        /* \"#utility.yul\":7909:7929   */\n      tag_379\n        /* \"#utility.yul\":7927:7928   */\n      dup3\n        /* \"#utility.yul\":7909:7929   */\n      tag_261\n      jump\t// in\n    tag_379:\n        /* \"#utility.yul\":7904:7929   */\n      swap2\n      pop\n        /* \"#utility.yul\":7943:7963   */\n      tag_380\n        /* \"#utility.yul\":7961:7962   */\n      dup4\n        /* \"#utility.yul\":7943:7963   */\n      tag_261\n      jump\t// in\n    tag_380:\n        /* \"#utility.yul\":7938:7963   */\n      swap3\n      pop\n        /* \"#utility.yul\":7982:7983   */\n      dup3\n        /* \"#utility.yul\":7972:8007   */\n      tag_381\n      jumpi\n        /* \"#utility.yul\":7987:8005   */\n      tag_382\n      tag_285\n      jump\t// in\n    tag_382:\n        /* \"#utility.yul\":7972:8007   */\n    tag_381:\n        /* \"#utility.yul\":8029:8030   */\n      dup3\n        /* \"#utility.yul\":8026:8027   */\n      dup3\n        /* \"#utility.yul\":8022:8031   */\n      div\n        /* \"#utility.yul\":8017:8031   */\n      swap1\n      pop\n        /* \"#utility.yul\":7852:8037   */\n      swap3\n      swap2\n      pop\n      pop\n      jump\t// out\n        /* \"#utility.yul\":8043:8219   */\n    tag_184:\n        /* \"#utility.yul\":8075:8076   */\n      0x00\n        /* \"#utility.yul\":8092:8112   */\n      tag_384\n        /* \"#utility.yul\":8110:8111   */\n      dup3\n        /* \"#utility.yul\":8092:8112   */\n      tag_261\n      jump\t// in\n    tag_384:\n        /* \"#utility.yul\":8087:8112   */\n      swap2\n      pop\n        /* \"#utility.yul\":8126:8146   */\n      tag_385\n        /* \"#utility.yul\":8144:8145   */\n      dup4\n        /* \"#utility.yul\":8126:8146   */\n      tag_261\n      jump\t// in\n    tag_385:\n        /* \"#utility.yul\":8121:8146   */\n      swap3\n      pop\n        /* \"#utility.yul\":8165:8166   */\n      dup3\n        /* \"#utility.yul\":8155:8190   */\n      tag_386\n      jumpi\n        /* \"#utility.yul\":8170:8188   */\n      tag_387\n      tag_285\n      jump\t// in\n    tag_387:\n        /* \"#utility.yul\":8155:8190   */\n    tag_386:\n        /* \"#utility.yul\":8211:8212   */\n      dup3\n        /* \"#utility.yul\":8208:8209   */\n      dup3\n        /* \"#utility.yul\":8204:8213   */\n      mod\n        /* \"#utility.yul\":8199:8213   */\n      swap1\n      pop\n        /* \"#utility.yul\":8043:8219   */\n      swap3\n      swap2\n      pop\n      pop\n      jump\t// out\n        /* \"#utility.yul\":8225:8667   */\n    tag_199:\n        /* \"#utility.yul\":8374:8378   */\n      0x00\n        /* \"#utility.yul\":8412:8414   */\n      0x60\n        /* \"#utility.yul\":8401:8410   */\n      dup3\n        /* \"#utility.yul\":8397:8415   */\n      add\n        /* \"#utility.yul\":8389:8415   */\n      swap1\n      pop\n        /* \"#utility.yul\":8425:8496   */\n      tag_389\n        /* \"#utility.yul\":8493:8494   */\n      0x00\n        /* \"#utility.yul\":8482:8491   */\n      dup4\n        /* \"#utility.yul\":8478:8495   */\n      add\n        /* \"#utility.yul\":8469:8475   */\n      dup7\n        /* \"#utility.yul\":8425:8496   */\n      tag_270\n      jump\t// in\n    tag_389:\n        /* \"#utility.yul\":8506:8578   */\n      tag_390\n        /* \"#utility.yul\":8574:8576   */\n      0x20\n        /* \"#utility.yul\":8563:8572   */\n      dup4\n        /* \"#utility.yul\":8559:8577   */\n      add\n        /* \"#utility.yul\":8550:8556   */\n      dup6\n        /* \"#utility.yul\":8506:8578   */\n      tag_262\n      jump\t// in\n    tag_390:\n        /* \"#utility.yul\":8588:8660   */\n      tag_391\n        /* \"#utility.yul\":8656:8658   */\n      0x40\n        /* \"#utility.yul\":8645:8654   */\n      dup4\n        /* \"#utility.yul\":8641:8659   */\n      add\n        /* \"#utility.yul\":8632:8638   */\n      dup5\n        /* \"#utility.yul\":8588:8660   */\n      tag_262\n      jump\t// in\n    tag_391:\n        /* \"#utility.yul\":8225:8667   */\n      swap5\n      swap4\n      pop\n      pop\n      pop\n      pop\n      jump\t// out\n\n    auxdata: 0xa2646970667358221220165c38d50ce4d69a5fc62212e06db53c897f205b7d4bdaa361b9f17604b6526664736f6c63430008160033\n}\n",
				"bytecode": {
					"linkReferences": {},
					"object": "60806040525f6004555f60055f6101000a81548160ff021916908360038111156200002f576200002e62000227565b5b02179055505f60065534801562000044575f80fd5b5060405162001bbd38038062001bbd83398181016040528101906200006a919062000290565b33600560016101000a81548173ffffffffffffffffffffffffffffffffffffffff021916908373ffffffffffffffffffffffffffffffffffffffff1602179055505f5b818110156200017657600260405180604001604052808381526020015f67ffffffffffffffff811115620000e657620000e5620002c0565b5b604051908082528060200260200182016040528015620001155781602001602082028036833780820191505090505b50815250908060018154018082558091505060019003905f5260205f2090600202015f909190919091505f820151815f01556020820151816001019080519060200190620001659291906200017e565b5050508080600101915050620000ad565b5050620002ed565b828054828255905f5260205f20908101928215620001f7579160200282015b82811115620001f6578251825f6101000a81548173ffffffffffffffffffffffffffffffffffffffff021916908373ffffffffffffffffffffffffffffffffffffffff160217905550916020019190600101906200019d565b5b5090506200020691906200020a565b5090565b5b8082111562000223575f815f9055506001016200020b565b5090565b7f4e487b71000000000000000000000000000000000000000000000000000000005f52602160045260245ffd5b5f80fd5b5f819050919050565b6200026c8162000258565b811462000277575f80fd5b50565b5f815190506200028a8162000261565b92915050565b5f60208284031215620002a857620002a762000254565b5b5f620002b7848285016200027a565b91505092915050565b7f4e487b71000000000000000000000000000000000000000000000000000000005f52604160045260245ffd5b6118c280620002fb5f395ff3fe6080604052600436106100e7575f3560e01c8063952587d611610089578063c040e6b811610058578063c040e6b814610285578063c33f48fd146102af578063dd4be683146102c5578063ddc48f7f14610303576100e7565b8063952587d6146101cd578063a2fb1175146101e3578063aa103e441461021f578063bfb231d214610249576100e7565b806338af3eed116100c557806338af3eed146101475780633ccfd60b14610171578063598647f81461018757806366235486146101a3576100e7565b806308704df2146100eb5780631aa3a00814610115578063310bd74b1461011f575b5f80fd5b3480156100f6575f80fd5b506100ff61032b565b60405161010c91906113a1565b60405180910390f35b61011d610337565b005b34801561012a575f80fd5b50610145600480360381019061014091906113e8565b6105df565b005b348015610152575f80fd5b5061015b61083e565b6040516101689190611452565b60405180910390f35b34801561017c575f80fd5b50610185610864565b005b6101a1600480360381019061019c919061146b565b610925565b005b3480156101ae575f80fd5b506101b7610aee565b6040516101c49190611560565b60405180910390f35b3480156101d8575f80fd5b506101e1610b78565b005b3480156101ee575f80fd5b50610209600480360381019061020491906113e8565b610ef5565b6040516102169190611452565b60405180910390f35b34801561022a575f80fd5b50610233610f2f565b60405161024091906113a1565b60405180910390f35b348015610254575f80fd5b5061026f600480360381019061026a91906113e8565b610f35565b60405161027c91906113a1565b60405180910390f35b348015610290575f80fd5b50610299610f5e565b6040516102a691906115f3565b60405180910390f35b3480156102ba575f80fd5b506102c3610f70565b005b3480156102d0575f80fd5b506102eb60048036038101906102e69190611636565b61106f565b6040516102fa93929190611661565b60405180910390f35b34801561030e575f80fd5b50610329600480360381019061032491906113e8565b6110b4565b005b5f600280549050905090565b6001600381111561034b5761034a611580565b5b60055f9054906101000a900460ff16600381111561036c5761036b611580565b5b14610375575f80fd5b6611c37937e08000341015610388575f80fd5b600560019054906101000a900473ffffffffffffffffffffffffffffffffffffffff1673ffffffffffffffffffffffffffffffffffffffff163373ffffffffffffffffffffffffffffffffffffffff16036103e1575f80fd5b5f60015f3373ffffffffffffffffffffffffffffffffffffffff1673ffffffffffffffffffffffffffffffffffffffff1681526020019081526020015f205f01541461042b575f80fd5b60036040518060600160405280600160065461044791906116c3565b81526020013373ffffffffffffffffffffffffffffffffffffffff1681526020016005815250908060018154018082558091505060019003905f5260205f2090600302015f909190919091505f820151815f01556020820151816001015f6101000a81548173ffffffffffffffffffffffffffffffffffffffff021916908373ffffffffffffffffffffffffffffffffffffffff160217905550604082015181600201555050600360065481548110610503576105026116f6565b5b905f5260205f20906003020160015f3373ffffffffffffffffffffffffffffffffffffffff1673ffffffffffffffffffffffffffffffffffffffff1681526020019081526020015f205f820154815f0155600182015f9054906101000a900473ffffffffffffffffffffffffffffffffffffffff16816001015f6101000a81548173ffffffffffffffffffffffffffffffffffffffff021916908373ffffffffffffffffffffffffffffffffffffffff1602179055506002820154816002015590505060065f8154809291906105d890611723565b9190505550565b600560019054906101000a900473ffffffffffffffffffffffffffffffffffffffff1673ffffffffffffffffffffffffffffffffffffffff163373ffffffffffffffffffffffffffffffffffffffff1614610638575f80fd5b5f5b6003805490508110156107095760015f6003838154811061065e5761065d6116f6565b5b905f5260205f2090600302016001015f9054906101000a900473ffffffffffffffffffffffffffffffffffffffff1673ffffffffffffffffffffffffffffffffffffffff1673ffffffffffffffffffffffffffffffffffffffff1681526020019081526020015f205f8082015f9055600182015f6101000a81549073ffffffffffffffffffffffffffffffffffffffff0219169055600282015f90555050808060010191505061063a565b5060035f6107179190611211565b60025f6107249190611232565b5f806107309190611253565b5f6006819055505f60055f6101000a81548160ff0219169083600381111561075b5761075a611580565b5b021790555060045f81548092919061077290611723565b91905055505f5b8181101561083a57600260405180604001604052808381526020015f67ffffffffffffffff8111156107ae576107ad61176a565b5b6040519080825280602002602001820160405280156107dc5781602001602082028036833780820191505090505b50815250908060018154018082558091505060019003905f5260205f2090600202015f909190919091505f820151815f0155602082015181600101908051906020019061082a929190611271565b5050508080600101915050610779565b5050565b600560019054906101000a900473ffffffffffffffffffffffffffffffffffffffff1681565b600560019054906101000a900473ffffffffffffffffffffffffffffffffffffffff1673ffffffffffffffffffffffffffffffffffffffff163373ffffffffffffffffffffffffffffffffffffffff16146108bd575f80fd5b600560019054906101000a900473ffffffffffffffffffffffffffffffffffffffff1673ffffffffffffffffffffffffffffffffffffffff166108fc4790811502906040515f60405180830381858888f19350505050158015610922573d5f803e3d5ffd5b50565b806002600381111561093a57610939611580565b5b60055f9054906101000a900460ff16600381111561095b5761095a611580565b5b14610964575f80fd5b5f60015f3373ffffffffffffffffffffffffffffffffffffffff1673ffffffffffffffffffffffffffffffffffffffff1681526020019081526020015f205f0154036109ae575f80fd5b8060015f3373ffffffffffffffffffffffffffffffffffffffff1673ffffffffffffffffffffffffffffffffffffffff1681526020019081526020015f206002015410156109fa575f80fd5b8160015f3373ffffffffffffffffffffffffffffffffffffffff1673ffffffffffffffffffffffffffffffffffffffff1681526020019081526020015f206002015f828254610a499190611797565b925050819055505f5b82811015610ae85760028481548110610a6e57610a6d6116f6565b5b905f5260205f20906002020160010133908060018154018082558091505060019003905f5260205f20015f9091909190916101000a81548173ffffffffffffffffffffffffffffffffffffffff021916908373ffffffffffffffffffffffffffffffffffffffff1602179055508080600101915050610a52565b50505050565b60605f805480602002602001604051908101604052809291908181526020018280548015610b6e57602002820191905f5260205f20905b815f9054906101000a900473ffffffffffffffffffffffffffffffffffffffff1673ffffffffffffffffffffffffffffffffffffffff1681526020019060010190808311610b25575b5050505050905090565b600560019054906101000a900473ffffffffffffffffffffffffffffffffffffffff1673ffffffffffffffffffffffffffffffffffffffff163373ffffffffffffffffffffffffffffffffffffffff1614610bd1575f80fd5b600380811115610be457610be3611580565b5b60055f9054906101000a900460ff166003811115610c0557610c04611580565b5b14610c0e575f80fd5b6002805490505f805490501115610c23575f80fd5b5f80808054905090505b600280549050811015610ef1575f60028281548110610c4f57610c4e6116f6565b5b905f5260205f2090600202016001018054905014610e1b5760028181548110610c7b57610c7a6116f6565b5b905f5260205f2090600202016001018054905060028054905042610c9f91906117f7565b60028054905043610cb091906117f7565b610cba91906116c3565b610cc49190611827565b91505f60028281548110610cdb57610cda6116f6565b5b905f5260205f2090600202016001018381548110610cfc57610cfb6116f6565b5b905f5260205f20015f9054906101000a900473ffffffffffffffffffffffffffffffffffffffff16908060018154018082558091505060019003905f5260205f20015f9091909190916101000a81548173ffffffffffffffffffffffffffffffffffffffff021916908373ffffffffffffffffffffffffffffffffffffffff1602179055507fc20f09c8f5012d640a5f76343b381ec2cda38bde00d2d177eaa02b21d449ec4660028281548110610db657610db56116f6565b5b905f5260205f2090600202016001018381548110610dd757610dd66116f6565b5b905f5260205f20015f9054906101000a900473ffffffffffffffffffffffffffffffffffffffff1682600454604051610e1293929190611857565b60405180910390a15b5f60028281548110610e3057610e2f6116f6565b5b905f5260205f2090600202016001018054905003610ee4575f808060018154018082558091505060019003905f5260205f20015f9091909190916101000a81548173ffffffffffffffffffffffffffffffffffffffff021916908373ffffffffffffffffffffffffffffffffffffffff1602179055507fc20f09c8f5012d640a5f76343b381ec2cda38bde00d2d177eaa02b21d449ec465f82600454604051610edb93929190611857565b60405180910390a15b8080600101915050610c2d565b5050565b5f8181548110610f03575f80fd5b905f5260205f20015f915054906101000a900473ffffffffffffffffffffffffffffffffffffffff1681565b60045481565b60028181548110610f44575f80fd5b905f5260205f2090600202015f91509050805f0154905081565b60055f9054906101000a900460ff1681565b600560019054906101000a900473ffffffffffffffffffffffffffffffffffffffff1673ffffffffffffffffffffffffffffffffffffffff163373ffffffffffffffffffffffffffffffffffffffff1614610fc9575f80fd5b600380811115610fdc57610fdb611580565b5b60055f9054906101000a900460ff166003811115610ffd57610ffc611580565b5b10611006575f80fd5b600160055f9054906101000a900460ff16600381111561102957611028611580565b5b61103391906116c3565b600381111561104557611044611580565b5b60055f6101000a81548160ff0219169083600381111561106857611067611580565b5b0217905550565b6001602052805f5260405f205f91509050805f015490806001015f9054906101000a900473ffffffffffffffffffffffffffffffffffffffff16908060020154905083565b600560019054906101000a900473ffffffffffffffffffffffffffffffffffffffff1673ffffffffffffffffffffffffffffffffffffffff163373ffffffffffffffffffffffffffffffffffffffff161461110d575f80fd5b5f60038111156111205761111f611580565b5b60055f9054906101000a900460ff16600381111561114157611140611580565b5b1461114a575f80fd5b5f5b8181101561120d57600260405180604001604052808381526020015f67ffffffffffffffff8111156111815761118061176a565b5b6040519080825280602002602001820160405280156111af5781602001602082028036833780820191505090505b50815250908060018154018082558091505060019003905f5260205f2090600202015f909190919091505f820151815f015560208201518160010190805190602001906111fd929190611271565b505050808060010191505061114c565b5050565b5080545f8255600302905f5260205f209081019061122f91906112f8565b50565b5080545f8255600202905f5260205f20908101906112509190611342565b50565b5080545f8255905f5260205f209081019061126e919061136e565b50565b828054828255905f5260205f209081019282156112e7579160200282015b828111156112e6578251825f6101000a81548173ffffffffffffffffffffffffffffffffffffffff021916908373ffffffffffffffffffffffffffffffffffffffff1602179055509160200191906001019061128f565b5b5090506112f4919061136e565b5090565b5b8082111561133e575f8082015f9055600182015f6101000a81549073ffffffffffffffffffffffffffffffffffffffff0219169055600282015f9055506003016112f9565b5090565b5b8082111561136a575f8082015f9055600182015f6113619190611253565b50600201611343565b5090565b5b80821115611385575f815f90555060010161136f565b5090565b5f819050919050565b61139b81611389565b82525050565b5f6020820190506113b45f830184611392565b92915050565b5f80fd5b6113c781611389565b81146113d1575f80fd5b50565b5f813590506113e2816113be565b92915050565b5f602082840312156113fd576113fc6113ba565b5b5f61140a848285016113d4565b91505092915050565b5f73ffffffffffffffffffffffffffffffffffffffff82169050919050565b5f61143c82611413565b9050919050565b61144c81611432565b82525050565b5f6020820190506114655f830184611443565b92915050565b5f8060408385031215611481576114806113ba565b5b5f61148e858286016113d4565b925050602061149f858286016113d4565b9150509250929050565b5f81519050919050565b5f82825260208201905092915050565b5f819050602082019050919050565b6114db81611432565b82525050565b5f6114ec83836114d2565b60208301905092915050565b5f602082019050919050565b5f61150e826114a9565b61151881856114b3565b9350611523836114c3565b805f5b8381101561155357815161153a88826114e1565b9750611545836114f8565b925050600181019050611526565b5085935050505092915050565b5f6020820190508181035f8301526115788184611504565b905092915050565b7f4e487b71000000000000000000000000000000000000000000000000000000005f52602160045260245ffd5b600481106115be576115bd611580565b5b50565b5f8190506115ce826115ad565b919050565b5f6115dd826115c1565b9050919050565b6115ed816115d3565b82525050565b5f6020820190506116065f8301846115e4565b92915050565b61161581611432565b811461161f575f80fd5b50565b5f813590506116308161160c565b92915050565b5f6020828403121561164b5761164a6113ba565b5b5f61165884828501611622565b91505092915050565b5f6060820190506116745f830186611392565b6116816020830185611443565b61168e6040830184611392565b949350505050565b7f4e487b71000000000000000000000000000000000000000000000000000000005f52601160045260245ffd5b5f6116cd82611389565b91506116d883611389565b92508282019050808211156116f0576116ef611696565b5b92915050565b7f4e487b71000000000000000000000000000000000000000000000000000000005f52603260045260245ffd5b5f61172d82611389565b91507fffffffffffffffffffffffffffffffffffffffffffffffffffffffffffffffff820361175f5761175e611696565b5b600182019050919050565b7f4e487b71000000000000000000000000000000000000000000000000000000005f52604160045260245ffd5b5f6117a182611389565b91506117ac83611389565b92508282039050818111156117c4576117c3611696565b5b92915050565b7f4e487b71000000000000000000000000000000000000000000000000000000005f52601260045260245ffd5b5f61180182611389565b915061180c83611389565b92508261181c5761181b6117ca565b5b828204905092915050565b5f61183182611389565b915061183c83611389565b92508261184c5761184b6117ca565b5b828206905092915050565b5f60608201905061186a5f830186611443565b6118776020830185611392565b6118846040830184611392565b94935050505056fea2646970667358221220165c38d50ce4d69a5fc62212e06db53c897f205b7d4bdaa361b9f17604b6526664736f6c63430008160033",
					"opcodes": "PUSH1 0x80 PUSH1 0x40 MSTORE PUSH0 PUSH1 0x4 SSTORE PUSH0 PUSH1 0x5 PUSH0 PUSH2 0x100 EXP DUP2 SLOAD DUP2 PUSH1 0xFF MUL NOT AND SWAP1 DUP4 PUSH1 0x3 DUP2 GT ISZERO PUSH3 0x2F JUMPI PUSH3 0x2E PUSH3 0x227 JUMP JUMPDEST JUMPDEST MUL OR SWAP1 SSTORE POP PUSH0 PUSH1 0x6 SSTORE CALLVALUE DUP1 ISZERO PUSH3 0x44 JUMPI PUSH0 DUP1 REVERT JUMPDEST POP PUSH1 0x40 MLOAD PUSH3 0x1BBD CODESIZE SUB DUP1 PUSH3 0x1BBD DUP4 CODECOPY DUP2 DUP2 ADD PUSH1 0x40 MSTORE DUP2 ADD SWAP1 PUSH3 0x6A SWAP2 SWAP1 PUSH3 0x290 JUMP JUMPDEST CALLER PUSH1 0x5 PUSH1 0x1 PUSH2 0x100 EXP DUP2 SLOAD DUP2 PUSH20 0xFFFFFFFFFFFFFFFFFFFFFFFFFFFFFFFFFFFFFFFF MUL NOT AND SWAP1 DUP4 PUSH20 0xFFFFFFFFFFFFFFFFFFFFFFFFFFFFFFFFFFFFFFFF AND MUL OR SWAP1 SSTORE POP PUSH0 JUMPDEST DUP2 DUP2 LT ISZERO PUSH3 0x176 JUMPI PUSH1 0x2 PUSH1 0x40 MLOAD DUP1 PUSH1 0x40 ADD PUSH1 0x40 MSTORE DUP1 DUP4 DUP2 MSTORE PUSH1 0x20 ADD PUSH0 PUSH8 0xFFFFFFFFFFFFFFFF DUP2 GT ISZERO PUSH3 0xE6 JUMPI PUSH3 0xE5 PUSH3 0x2C0 JUMP JUMPDEST JUMPDEST PUSH1 0x40 MLOAD SWAP1 DUP1 DUP3 MSTORE DUP1 PUSH1 0x20 MUL PUSH1 0x20 ADD DUP3 ADD PUSH1 0x40 MSTORE DUP1 ISZERO PUSH3 0x115 JUMPI DUP2 PUSH1 0x20 ADD PUSH1 0x20 DUP3 MUL DUP1 CALLDATASIZE DUP4 CALLDATACOPY DUP1 DUP3 ADD SWAP2 POP POP SWAP1 POP JUMPDEST POP DUP2 MSTORE POP SWAP1 DUP1 PUSH1 0x1 DUP2 SLOAD ADD DUP1 DUP3 SSTORE DUP1 SWAP2 POP POP PUSH1 0x1 SWAP1 SUB SWAP1 PUSH0 MSTORE PUSH1 0x20 PUSH0 KECCAK256 SWAP1 PUSH1 0x2 MUL ADD PUSH0 SWAP1 SWAP2 SWAP1 SWAP2 SWAP1 SWAP2 POP PUSH0 DUP3 ADD MLOAD DUP2 PUSH0 ADD SSTORE PUSH1 0x20 DUP3 ADD MLOAD DUP2 PUSH1 0x1 ADD SWAP1 DUP1 MLOAD SWAP1 PUSH1 0x20 ADD SWAP1 PUSH3 0x165 SWAP3 SWAP2 SWAP1 PUSH3 0x17E JUMP JUMPDEST POP POP POP DUP1 DUP1 PUSH1 0x1 ADD SWAP2 POP POP PUSH3 0xAD JUMP JUMPDEST POP POP PUSH3 0x2ED JUMP JUMPDEST DUP3 DUP1 SLOAD DUP3 DUP3 SSTORE SWAP1 PUSH0 MSTORE PUSH1 0x20 PUSH0 KECCAK256 SWAP1 DUP2 ADD SWAP3 DUP3 ISZERO PUSH3 0x1F7 JUMPI SWAP2 PUSH1 0x20 MUL DUP3 ADD JUMPDEST DUP3 DUP2 GT ISZERO PUSH3 0x1F6 JUMPI DUP3 MLOAD DUP3 PUSH0 PUSH2 0x100 EXP DUP2 SLOAD DUP2 PUSH20 0xFFFFFFFFFFFFFFFFFFFFFFFFFFFFFFFFFFFFFFFF MUL NOT AND SWAP1 DUP4 PUSH20 0xFFFFFFFFFFFFFFFFFFFFFFFFFFFFFFFFFFFFFFFF AND MUL OR SWAP1 SSTORE POP SWAP2 PUSH1 0x20 ADD SWAP2 SWAP1 PUSH1 0x1 ADD SWAP1 PUSH3 0x19D JUMP JUMPDEST JUMPDEST POP SWAP1 POP PUSH3 0x206 SWAP2 SWAP1 PUSH3 0x20A JUMP JUMPDEST POP SWAP1 JUMP JUMPDEST JUMPDEST DUP1 DUP3 GT ISZERO PUSH3 0x223 JUMPI PUSH0 DUP2 PUSH0 SWAP1 SSTORE POP PUSH1 0x1 ADD PUSH3 0x20B JUMP JUMPDEST POP SWAP1 JUMP JUMPDEST PUSH32 0x4E487B7100000000000000000000000000000000000000000000000000000000 PUSH0 MSTORE PUSH1 0x21 PUSH1 0x4 MSTORE PUSH1 0x24 PUSH0 REVERT JUMPDEST PUSH0 DUP1 REVERT JUMPDEST PUSH0 DUP2 SWAP1 POP SWAP2 SWAP1 POP JUMP JUMPDEST PUSH3 0x26C DUP2 PUSH3 0x258 JUMP JUMPDEST DUP2 EQ PUSH3 0x277 JUMPI PUSH0 DUP1 REVERT JUMPDEST POP JUMP JUMPDEST PUSH0 DUP2 MLOAD SWAP1 POP PUSH3 0x28A DUP2 PUSH3 0x261 JUMP JUMPDEST SWAP3 SWAP2 POP POP JUMP JUMPDEST PUSH0 PUSH1 0x20 DUP3 DUP5 SUB SLT ISZERO PUSH3 0x2A8 JUMPI PUSH3 0x2A7 PUSH3 0x254 JUMP JUMPDEST JUMPDEST PUSH0 PUSH3 0x2B7 DUP5 DUP3 DUP6 ADD PUSH3 0x27A JUMP JUMPDEST SWAP2 POP POP SWAP3 SWAP2 POP POP JUMP JUMPDEST PUSH32 0x4E487B7100000000000000000000000000000000000000000000000000000000 PUSH0 MSTORE PUSH1 0x41 PUSH1 0x4 MSTORE PUSH1 0x24 PUSH0 REVERT JUMPDEST PUSH2 0x18C2 DUP1 PUSH3 0x2FB PUSH0 CODECOPY PUSH0 RETURN INVALID PUSH1 0x80 PUSH1 0x40 MSTORE PUSH1 0x4 CALLDATASIZE LT PUSH2 0xE7 JUMPI PUSH0 CALLDATALOAD PUSH1 0xE0 SHR DUP1 PUSH4 0x952587D6 GT PUSH2 0x89 JUMPI DUP1 PUSH4 0xC040E6B8 GT PUSH2 0x58 JUMPI DUP1 PUSH4 0xC040E6B8 EQ PUSH2 0x285 JUMPI DUP1 PUSH4 0xC33F48FD EQ PUSH2 0x2AF JUMPI DUP1 PUSH4 0xDD4BE683 EQ PUSH2 0x2C5 JUMPI DUP1 PUSH4 0xDDC48F7F EQ PUSH2 0x303 JUMPI PUSH2 0xE7 JUMP JUMPDEST DUP1 PUSH4 0x952587D6 EQ PUSH2 0x1CD JUMPI DUP1 PUSH4 0xA2FB1175 EQ PUSH2 0x1E3 JUMPI DUP1 PUSH4 0xAA103E44 EQ PUSH2 0x21F JUMPI DUP1 PUSH4 0xBFB231D2 EQ PUSH2 0x249 JUMPI PUSH2 0xE7 JUMP JUMPDEST DUP1 PUSH4 0x38AF3EED GT PUSH2 0xC5 JUMPI DUP1 PUSH4 0x38AF3EED EQ PUSH2 0x147 JUMPI DUP1 PUSH4 0x3CCFD60B EQ PUSH2 0x171 JUMPI DUP1 PUSH4 0x598647F8 EQ PUSH2 0x187 JUMPI DUP1 PUSH4 0x66235486 EQ PUSH2 0x1A3 JUMPI PUSH2 0xE7 JUMP JUMPDEST DUP1 PUSH4 0x8704DF2 EQ PUSH2 0xEB JUMPI DUP1 PUSH4 0x1AA3A008 EQ PUSH2 0x115 JUMPI DUP1 PUSH4 0x310BD74B EQ PUSH2 0x11F JUMPI JUMPDEST PUSH0 DUP1 REVERT JUMPDEST CALLVALUE DUP1 ISZERO PUSH2 0xF6 JUMPI PUSH0 DUP1 REVERT JUMPDEST POP PUSH2 0xFF PUSH2 0x32B JUMP JUMPDEST PUSH1 0x40 MLOAD PUSH2 0x10C SWAP2 SWAP1 PUSH2 0x13A1 JUMP JUMPDEST PUSH1 0x40 MLOAD DUP1 SWAP2 SUB SWAP1 RETURN JUMPDEST PUSH2 0x11D PUSH2 0x337 JUMP JUMPDEST STOP JUMPDEST CALLVALUE DUP1 ISZERO PUSH2 0x12A JUMPI PUSH0 DUP1 REVERT JUMPDEST POP PUSH2 0x145 PUSH1 0x4 DUP1 CALLDATASIZE SUB DUP2 ADD SWAP1 PUSH2 0x140 SWAP2 SWAP1 PUSH2 0x13E8 JUMP JUMPDEST PUSH2 0x5DF JUMP JUMPDEST STOP JUMPDEST CALLVALUE DUP1 ISZERO PUSH2 0x152 JUMPI PUSH0 DUP1 REVERT JUMPDEST POP PUSH2 0x15B PUSH2 0x83E JUMP JUMPDEST PUSH1 0x40 MLOAD PUSH2 0x168 SWAP2 SWAP1 PUSH2 0x1452 JUMP JUMPDEST PUSH1 0x40 MLOAD DUP1 SWAP2 SUB SWAP1 RETURN JUMPDEST CALLVALUE DUP1 ISZERO PUSH2 0x17C JUMPI PUSH0 DUP1 REVERT JUMPDEST POP PUSH2 0x185 PUSH2 0x864 JUMP JUMPDEST STOP JUMPDEST PUSH2 0x1A1 PUSH1 0x4 DUP1 CALLDATASIZE SUB DUP2 ADD SWAP1 PUSH2 0x19C SWAP2 SWAP1 PUSH2 0x146B JUMP JUMPDEST PUSH2 0x925 JUMP JUMPDEST STOP JUMPDEST CALLVALUE DUP1 ISZERO PUSH2 0x1AE JUMPI PUSH0 DUP1 REVERT JUMPDEST POP PUSH2 0x1B7 PUSH2 0xAEE JUMP JUMPDEST PUSH1 0x40 MLOAD PUSH2 0x1C4 SWAP2 SWAP1 PUSH2 0x1560 JUMP JUMPDEST PUSH1 0x40 MLOAD DUP1 SWAP2 SUB SWAP1 RETURN JUMPDEST CALLVALUE DUP1 ISZERO PUSH2 0x1D8 JUMPI PUSH0 DUP1 REVERT JUMPDEST POP PUSH2 0x1E1 PUSH2 0xB78 JUMP JUMPDEST STOP JUMPDEST CALLVALUE DUP1 ISZERO PUSH2 0x1EE JUMPI PUSH0 DUP1 REVERT JUMPDEST POP PUSH2 0x209 PUSH1 0x4 DUP1 CALLDATASIZE SUB DUP2 ADD SWAP1 PUSH2 0x204 SWAP2 SWAP1 PUSH2 0x13E8 JUMP JUMPDEST PUSH2 0xEF5 JUMP JUMPDEST PUSH1 0x40 MLOAD PUSH2 0x216 SWAP2 SWAP1 PUSH2 0x1452 JUMP JUMPDEST PUSH1 0x40 MLOAD DUP1 SWAP2 SUB SWAP1 RETURN JUMPDEST CALLVALUE DUP1 ISZERO PUSH2 0x22A JUMPI PUSH0 DUP1 REVERT JUMPDEST POP PUSH2 0x233 PUSH2 0xF2F JUMP JUMPDEST PUSH1 0x40 MLOAD PUSH2 0x240 SWAP2 SWAP1 PUSH2 0x13A1 JUMP JUMPDEST PUSH1 0x40 MLOAD DUP1 SWAP2 SUB SWAP1 RETURN JUMPDEST CALLVALUE DUP1 ISZERO PUSH2 0x254 JUMPI PUSH0 DUP1 REVERT JUMPDEST POP PUSH2 0x26F PUSH1 0x4 DUP1 CALLDATASIZE SUB DUP2 ADD SWAP1 PUSH2 0x26A SWAP2 SWAP1 PUSH2 0x13E8 JUMP JUMPDEST PUSH2 0xF35 JUMP JUMPDEST PUSH1 0x40 MLOAD PUSH2 0x27C SWAP2 SWAP1 PUSH2 0x13A1 JUMP JUMPDEST PUSH1 0x40 MLOAD DUP1 SWAP2 SUB SWAP1 RETURN JUMPDEST CALLVALUE DUP1 ISZERO PUSH2 0x290 JUMPI PUSH0 DUP1 REVERT JUMPDEST POP PUSH2 0x299 PUSH2 0xF5E JUMP JUMPDEST PUSH1 0x40 MLOAD PUSH2 0x2A6 SWAP2 SWAP1 PUSH2 0x15F3 JUMP JUMPDEST PUSH1 0x40 MLOAD DUP1 SWAP2 SUB SWAP1 RETURN JUMPDEST CALLVALUE DUP1 ISZERO PUSH2 0x2BA JUMPI PUSH0 DUP1 REVERT JUMPDEST POP PUSH2 0x2C3 PUSH2 0xF70 JUMP JUMPDEST STOP JUMPDEST CALLVALUE DUP1 ISZERO PUSH2 0x2D0 JUMPI PUSH0 DUP1 REVERT JUMPDEST POP PUSH2 0x2EB PUSH1 0x4 DUP1 CALLDATASIZE SUB DUP2 ADD SWAP1 PUSH2 0x2E6 SWAP2 SWAP1 PUSH2 0x1636 JUMP JUMPDEST PUSH2 0x106F JUMP JUMPDEST PUSH1 0x40 MLOAD PUSH2 0x2FA SWAP4 SWAP3 SWAP2 SWAP1 PUSH2 0x1661 JUMP JUMPDEST PUSH1 0x40 MLOAD DUP1 SWAP2 SUB SWAP1 RETURN JUMPDEST CALLVALUE DUP1 ISZERO PUSH2 0x30E JUMPI PUSH0 DUP1 REVERT JUMPDEST POP PUSH2 0x329 PUSH1 0x4 DUP1 CALLDATASIZE SUB DUP2 ADD SWAP1 PUSH2 0x324 SWAP2 SWAP1 PUSH2 0x13E8 JUMP JUMPDEST PUSH2 0x10B4 JUMP JUMPDEST STOP JUMPDEST PUSH0 PUSH1 0x2 DUP1 SLOAD SWAP1 POP SWAP1 POP SWAP1 JUMP JUMPDEST PUSH1 0x1 PUSH1 0x3 DUP2 GT ISZERO PUSH2 0x34B JUMPI PUSH2 0x34A PUSH2 0x1580 JUMP JUMPDEST JUMPDEST PUSH1 0x5 PUSH0 SWAP1 SLOAD SWAP1 PUSH2 0x100 EXP SWAP1 DIV PUSH1 0xFF AND PUSH1 0x3 DUP2 GT ISZERO PUSH2 0x36C JUMPI PUSH2 0x36B PUSH2 0x1580 JUMP JUMPDEST JUMPDEST EQ PUSH2 0x375 JUMPI PUSH0 DUP1 REVERT JUMPDEST PUSH7 0x11C37937E08000 CALLVALUE LT ISZERO PUSH2 0x388 JUMPI PUSH0 DUP1 REVERT JUMPDEST PUSH1 0x5 PUSH1 0x1 SWAP1 SLOAD SWAP1 PUSH2 0x100 EXP SWAP1 DIV PUSH20 0xFFFFFFFFFFFFFFFFFFFFFFFFFFFFFFFFFFFFFFFF AND PUSH20 0xFFFFFFFFFFFFFFFFFFFFFFFFFFFFFFFFFFFFFFFF AND CALLER PUSH20 0xFFFFFFFFFFFFFFFFFFFFFFFFFFFFFFFFFFFFFFFF AND SUB PUSH2 0x3E1 JUMPI PUSH0 DUP1 REVERT JUMPDEST PUSH0 PUSH1 0x1 PUSH0 CALLER PUSH20 0xFFFFFFFFFFFFFFFFFFFFFFFFFFFFFFFFFFFFFFFF AND PUSH20 0xFFFFFFFFFFFFFFFFFFFFFFFFFFFFFFFFFFFFFFFF AND DUP2 MSTORE PUSH1 0x20 ADD SWAP1 DUP2 MSTORE PUSH1 0x20 ADD PUSH0 KECCAK256 PUSH0 ADD SLOAD EQ PUSH2 0x42B JUMPI PUSH0 DUP1 REVERT JUMPDEST PUSH1 0x3 PUSH1 0x40 MLOAD DUP1 PUSH1 0x60 ADD PUSH1 0x40 MSTORE DUP1 PUSH1 0x1 PUSH1 0x6 SLOAD PUSH2 0x447 SWAP2 SWAP1 PUSH2 0x16C3 JUMP JUMPDEST DUP2 MSTORE PUSH1 0x20 ADD CALLER PUSH20 0xFFFFFFFFFFFFFFFFFFFFFFFFFFFFFFFFFFFFFFFF AND DUP2 MSTORE PUSH1 0x20 ADD PUSH1 0x5 DUP2 MSTORE POP SWAP1 DUP1 PUSH1 0x1 DUP2 SLOAD ADD DUP1 DUP3 SSTORE DUP1 SWAP2 POP POP PUSH1 0x1 SWAP1 SUB SWAP1 PUSH0 MSTORE PUSH1 0x20 PUSH0 KECCAK256 SWAP1 PUSH1 0x3 MUL ADD PUSH0 SWAP1 SWAP2 SWAP1 SWAP2 SWAP1 SWAP2 POP PUSH0 DUP3 ADD MLOAD DUP2 PUSH0 ADD SSTORE PUSH1 0x20 DUP3 ADD MLOAD DUP2 PUSH1 0x1 ADD PUSH0 PUSH2 0x100 EXP DUP2 SLOAD DUP2 PUSH20 0xFFFFFFFFFFFFFFFFFFFFFFFFFFFFFFFFFFFFFFFF MUL NOT AND SWAP1 DUP4 PUSH20 0xFFFFFFFFFFFFFFFFFFFFFFFFFFFFFFFFFFFFFFFF AND MUL OR SWAP1 SSTORE POP PUSH1 0x40 DUP3 ADD MLOAD DUP2 PUSH1 0x2 ADD SSTORE POP POP PUSH1 0x3 PUSH1 0x6 SLOAD DUP2 SLOAD DUP2 LT PUSH2 0x503 JUMPI PUSH2 0x502 PUSH2 0x16F6 JUMP JUMPDEST JUMPDEST SWAP1 PUSH0 MSTORE PUSH1 0x20 PUSH0 KECCAK256 SWAP1 PUSH1 0x3 MUL ADD PUSH1 0x1 PUSH0 CALLER PUSH20 0xFFFFFFFFFFFFFFFFFFFFFFFFFFFFFFFFFFFFFFFF AND PUSH20 0xFFFFFFFFFFFFFFFFFFFFFFFFFFFFFFFFFFFFFFFF AND DUP2 MSTORE PUSH1 0x20 ADD SWAP1 DUP2 MSTORE PUSH1 0x20 ADD PUSH0 KECCAK256 PUSH0 DUP3 ADD SLOAD DUP2 PUSH0 ADD SSTORE PUSH1 0x1 DUP3 ADD PUSH0 SWAP1 SLOAD SWAP1 PUSH2 0x100 EXP SWAP1 DIV PUSH20 0xFFFFFFFFFFFFFFFFFFFFFFFFFFFFFFFFFFFFFFFF AND DUP2 PUSH1 0x1 ADD PUSH0 PUSH2 0x100 EXP DUP2 SLOAD DUP2 PUSH20 0xFFFFFFFFFFFFFFFFFFFFFFFFFFFFFFFFFFFFFFFF MUL NOT AND SWAP1 DUP4 PUSH20 0xFFFFFFFFFFFFFFFFFFFFFFFFFFFFFFFFFFFFFFFF AND MUL OR SWAP1 SSTORE POP PUSH1 0x2 DUP3 ADD SLOAD DUP2 PUSH1 0x2 ADD SSTORE SWAP1 POP POP PUSH1 0x6 PUSH0 DUP2 SLOAD DUP1 SWAP3 SWAP2 SWAP1 PUSH2 0x5D8 SWAP1 PUSH2 0x1723 JUMP JUMPDEST SWAP2 SWAP1 POP SSTORE POP JUMP JUMPDEST PUSH1 0x5 PUSH1 0x1 SWAP1 SLOAD SWAP1 PUSH2 0x100 EXP SWAP1 DIV PUSH20 0xFFFFFFFFFFFFFFFFFFFFFFFFFFFFFFFFFFFFFFFF AND PUSH20 0xFFFFFFFFFFFFFFFFFFFFFFFFFFFFFFFFFFFFFFFF AND CALLER PUSH20 0xFFFFFFFFFFFFFFFFFFFFFFFFFFFFFFFFFFFFFFFF AND EQ PUSH2 0x638 JUMPI PUSH0 DUP1 REVERT JUMPDEST PUSH0 JUMPDEST PUSH1 0x3 DUP1 SLOAD SWAP1 POP DUP2 LT ISZERO PUSH2 0x709 JUMPI PUSH1 0x1 PUSH0 PUSH1 0x3 DUP4 DUP2 SLOAD DUP2 LT PUSH2 0x65E JUMPI PUSH2 0x65D PUSH2 0x16F6 JUMP JUMPDEST JUMPDEST SWAP1 PUSH0 MSTORE PUSH1 0x20 PUSH0 KECCAK256 SWAP1 PUSH1 0x3 MUL ADD PUSH1 0x1 ADD PUSH0 SWAP1 SLOAD SWAP1 PUSH2 0x100 EXP SWAP1 DIV PUSH20 0xFFFFFFFFFFFFFFFFFFFFFFFFFFFFFFFFFFFFFFFF AND PUSH20 0xFFFFFFFFFFFFFFFFFFFFFFFFFFFFFFFFFFFFFFFF AND PUSH20 0xFFFFFFFFFFFFFFFFFFFFFFFFFFFFFFFFFFFFFFFF AND DUP2 MSTORE PUSH1 0x20 ADD SWAP1 DUP2 MSTORE PUSH1 0x20 ADD PUSH0 KECCAK256 PUSH0 DUP1 DUP3 ADD PUSH0 SWAP1 SSTORE PUSH1 0x1 DUP3 ADD PUSH0 PUSH2 0x100 EXP DUP2 SLOAD SWAP1 PUSH20 0xFFFFFFFFFFFFFFFFFFFFFFFFFFFFFFFFFFFFFFFF MUL NOT AND SWAP1 SSTORE PUSH1 0x2 DUP3 ADD PUSH0 SWAP1 SSTORE POP POP DUP1 DUP1 PUSH1 0x1 ADD SWAP2 POP POP PUSH2 0x63A JUMP JUMPDEST POP PUSH1 0x3 PUSH0 PUSH2 0x717 SWAP2 SWAP1 PUSH2 0x1211 JUMP JUMPDEST PUSH1 0x2 PUSH0 PUSH2 0x724 SWAP2 SWAP1 PUSH2 0x1232 JUMP JUMPDEST PUSH0 DUP1 PUSH2 0x730 SWAP2 SWAP1 PUSH2 0x1253 JUMP JUMPDEST PUSH0 PUSH1 0x6 DUP2 SWAP1 SSTORE POP PUSH0 PUSH1 0x5 PUSH0 PUSH2 0x100 EXP DUP2 SLOAD DUP2 PUSH1 0xFF MUL NOT AND SWAP1 DUP4 PUSH1 0x3 DUP2 GT ISZERO PUSH2 0x75B JUMPI PUSH2 0x75A PUSH2 0x1580 JUMP JUMPDEST JUMPDEST MUL OR SWAP1 SSTORE POP PUSH1 0x4 PUSH0 DUP2 SLOAD DUP1 SWAP3 SWAP2 SWAP1 PUSH2 0x772 SWAP1 PUSH2 0x1723 JUMP JUMPDEST SWAP2 SWAP1 POP SSTORE POP PUSH0 JUMPDEST DUP2 DUP2 LT ISZERO PUSH2 0x83A JUMPI PUSH1 0x2 PUSH1 0x40 MLOAD DUP1 PUSH1 0x40 ADD PUSH1 0x40 MSTORE DUP1 DUP4 DUP2 MSTORE PUSH1 0x20 ADD PUSH0 PUSH8 0xFFFFFFFFFFFFFFFF DUP2 GT ISZERO PUSH2 0x7AE JUMPI PUSH2 0x7AD PUSH2 0x176A JUMP JUMPDEST JUMPDEST PUSH1 0x40 MLOAD SWAP1 DUP1 DUP3 MSTORE DUP1 PUSH1 0x20 MUL PUSH1 0x20 ADD DUP3 ADD PUSH1 0x40 MSTORE DUP1 ISZERO PUSH2 0x7DC JUMPI DUP2 PUSH1 0x20 ADD PUSH1 0x20 DUP3 MUL DUP1 CALLDATASIZE DUP4 CALLDATACOPY DUP1 DUP3 ADD SWAP2 POP POP SWAP1 POP JUMPDEST POP DUP2 MSTORE POP SWAP1 DUP1 PUSH1 0x1 DUP2 SLOAD ADD DUP1 DUP3 SSTORE DUP1 SWAP2 POP POP PUSH1 0x1 SWAP1 SUB SWAP1 PUSH0 MSTORE PUSH1 0x20 PUSH0 KECCAK256 SWAP1 PUSH1 0x2 MUL ADD PUSH0 SWAP1 SWAP2 SWAP1 SWAP2 SWAP1 SWAP2 POP PUSH0 DUP3 ADD MLOAD DUP2 PUSH0 ADD SSTORE PUSH1 0x20 DUP3 ADD MLOAD DUP2 PUSH1 0x1 ADD SWAP1 DUP1 MLOAD SWAP1 PUSH1 0x20 ADD SWAP1 PUSH2 0x82A SWAP3 SWAP2 SWAP1 PUSH2 0x1271 JUMP JUMPDEST POP POP POP DUP1 DUP1 PUSH1 0x1 ADD SWAP2 POP POP PUSH2 0x779 JUMP JUMPDEST POP POP JUMP JUMPDEST PUSH1 0x5 PUSH1 0x1 SWAP1 SLOAD SWAP1 PUSH2 0x100 EXP SWAP1 DIV PUSH20 0xFFFFFFFFFFFFFFFFFFFFFFFFFFFFFFFFFFFFFFFF AND DUP2 JUMP JUMPDEST PUSH1 0x5 PUSH1 0x1 SWAP1 SLOAD SWAP1 PUSH2 0x100 EXP SWAP1 DIV PUSH20 0xFFFFFFFFFFFFFFFFFFFFFFFFFFFFFFFFFFFFFFFF AND PUSH20 0xFFFFFFFFFFFFFFFFFFFFFFFFFFFFFFFFFFFFFFFF AND CALLER PUSH20 0xFFFFFFFFFFFFFFFFFFFFFFFFFFFFFFFFFFFFFFFF AND EQ PUSH2 0x8BD JUMPI PUSH0 DUP1 REVERT JUMPDEST PUSH1 0x5 PUSH1 0x1 SWAP1 SLOAD SWAP1 PUSH2 0x100 EXP SWAP1 DIV PUSH20 0xFFFFFFFFFFFFFFFFFFFFFFFFFFFFFFFFFFFFFFFF AND PUSH20 0xFFFFFFFFFFFFFFFFFFFFFFFFFFFFFFFFFFFFFFFF AND PUSH2 0x8FC SELFBALANCE SWAP1 DUP2 ISZERO MUL SWAP1 PUSH1 0x40 MLOAD PUSH0 PUSH1 0x40 MLOAD DUP1 DUP4 SUB DUP2 DUP6 DUP9 DUP9 CALL SWAP4 POP POP POP POP ISZERO DUP1 ISZERO PUSH2 0x922 JUMPI RETURNDATASIZE PUSH0 DUP1 RETURNDATACOPY RETURNDATASIZE PUSH0 REVERT JUMPDEST POP JUMP JUMPDEST DUP1 PUSH1 0x2 PUSH1 0x3 DUP2 GT ISZERO PUSH2 0x93A JUMPI PUSH2 0x939 PUSH2 0x1580 JUMP JUMPDEST JUMPDEST PUSH1 0x5 PUSH0 SWAP1 SLOAD SWAP1 PUSH2 0x100 EXP SWAP1 DIV PUSH1 0xFF AND PUSH1 0x3 DUP2 GT ISZERO PUSH2 0x95B JUMPI PUSH2 0x95A PUSH2 0x1580 JUMP JUMPDEST JUMPDEST EQ PUSH2 0x964 JUMPI PUSH0 DUP1 REVERT JUMPDEST PUSH0 PUSH1 0x1 PUSH0 CALLER PUSH20 0xFFFFFFFFFFFFFFFFFFFFFFFFFFFFFFFFFFFFFFFF AND PUSH20 0xFFFFFFFFFFFFFFFFFFFFFFFFFFFFFFFFFFFFFFFF AND DUP2 MSTORE PUSH1 0x20 ADD SWAP1 DUP2 MSTORE PUSH1 0x20 ADD PUSH0 KECCAK256 PUSH0 ADD SLOAD SUB PUSH2 0x9AE JUMPI PUSH0 DUP1 REVERT JUMPDEST DUP1 PUSH1 0x1 PUSH0 CALLER PUSH20 0xFFFFFFFFFFFFFFFFFFFFFFFFFFFFFFFFFFFFFFFF AND PUSH20 0xFFFFFFFFFFFFFFFFFFFFFFFFFFFFFFFFFFFFFFFF AND DUP2 MSTORE PUSH1 0x20 ADD SWAP1 DUP2 MSTORE PUSH1 0x20 ADD PUSH0 KECCAK256 PUSH1 0x2 ADD SLOAD LT ISZERO PUSH2 0x9FA JUMPI PUSH0 DUP1 REVERT JUMPDEST DUP2 PUSH1 0x1 PUSH0 CALLER PUSH20 0xFFFFFFFFFFFFFFFFFFFFFFFFFFFFFFFFFFFFFFFF AND PUSH20 0xFFFFFFFFFFFFFFFFFFFFFFFFFFFFFFFFFFFFFFFF AND DUP2 MSTORE PUSH1 0x20 ADD SWAP1 DUP2 MSTORE PUSH1 0x20 ADD PUSH0 KECCAK256 PUSH1 0x2 ADD PUSH0 DUP3 DUP3 SLOAD PUSH2 0xA49 SWAP2 SWAP1 PUSH2 0x1797 JUMP JUMPDEST SWAP3 POP POP DUP2 SWAP1 SSTORE POP PUSH0 JUMPDEST DUP3 DUP2 LT ISZERO PUSH2 0xAE8 JUMPI PUSH1 0x2 DUP5 DUP2 SLOAD DUP2 LT PUSH2 0xA6E JUMPI PUSH2 0xA6D PUSH2 0x16F6 JUMP JUMPDEST JUMPDEST SWAP1 PUSH0 MSTORE PUSH1 0x20 PUSH0 KECCAK256 SWAP1 PUSH1 0x2 MUL ADD PUSH1 0x1 ADD CALLER SWAP1 DUP1 PUSH1 0x1 DUP2 SLOAD ADD DUP1 DUP3 SSTORE DUP1 SWAP2 POP POP PUSH1 0x1 SWAP1 SUB SWAP1 PUSH0 MSTORE PUSH1 0x20 PUSH0 KECCAK256 ADD PUSH0 SWAP1 SWAP2 SWAP1 SWAP2 SWAP1 SWAP2 PUSH2 0x100 EXP DUP2 SLOAD DUP2 PUSH20 0xFFFFFFFFFFFFFFFFFFFFFFFFFFFFFFFFFFFFFFFF MUL NOT AND SWAP1 DUP4 PUSH20 0xFFFFFFFFFFFFFFFFFFFFFFFFFFFFFFFFFFFFFFFF AND MUL OR SWAP1 SSTORE POP DUP1 DUP1 PUSH1 0x1 ADD SWAP2 POP POP PUSH2 0xA52 JUMP JUMPDEST POP POP POP POP JUMP JUMPDEST PUSH1 0x60 PUSH0 DUP1 SLOAD DUP1 PUSH1 0x20 MUL PUSH1 0x20 ADD PUSH1 0x40 MLOAD SWAP1 DUP2 ADD PUSH1 0x40 MSTORE DUP1 SWAP3 SWAP2 SWAP1 DUP2 DUP2 MSTORE PUSH1 0x20 ADD DUP3 DUP1 SLOAD DUP1 ISZERO PUSH2 0xB6E JUMPI PUSH1 0x20 MUL DUP3 ADD SWAP2 SWAP1 PUSH0 MSTORE PUSH1 0x20 PUSH0 KECCAK256 SWAP1 JUMPDEST DUP2 PUSH0 SWAP1 SLOAD SWAP1 PUSH2 0x100 EXP SWAP1 DIV PUSH20 0xFFFFFFFFFFFFFFFFFFFFFFFFFFFFFFFFFFFFFFFF AND PUSH20 0xFFFFFFFFFFFFFFFFFFFFFFFFFFFFFFFFFFFFFFFF AND DUP2 MSTORE PUSH1 0x20 ADD SWAP1 PUSH1 0x1 ADD SWAP1 DUP1 DUP4 GT PUSH2 0xB25 JUMPI JUMPDEST POP POP POP POP POP SWAP1 POP SWAP1 JUMP JUMPDEST PUSH1 0x5 PUSH1 0x1 SWAP1 SLOAD SWAP1 PUSH2 0x100 EXP SWAP1 DIV PUSH20 0xFFFFFFFFFFFFFFFFFFFFFFFFFFFFFFFFFFFFFFFF AND PUSH20 0xFFFFFFFFFFFFFFFFFFFFFFFFFFFFFFFFFFFFFFFF AND CALLER PUSH20 0xFFFFFFFFFFFFFFFFFFFFFFFFFFFFFFFFFFFFFFFF AND EQ PUSH2 0xBD1 JUMPI PUSH0 DUP1 REVERT JUMPDEST PUSH1 0x3 DUP1 DUP2 GT ISZERO PUSH2 0xBE4 JUMPI PUSH2 0xBE3 PUSH2 0x1580 JUMP JUMPDEST JUMPDEST PUSH1 0x5 PUSH0 SWAP1 SLOAD SWAP1 PUSH2 0x100 EXP SWAP1 DIV PUSH1 0xFF AND PUSH1 0x3 DUP2 GT ISZERO PUSH2 0xC05 JUMPI PUSH2 0xC04 PUSH2 0x1580 JUMP JUMPDEST JUMPDEST EQ PUSH2 0xC0E JUMPI PUSH0 DUP1 REVERT JUMPDEST PUSH1 0x2 DUP1 SLOAD SWAP1 POP PUSH0 DUP1 SLOAD SWAP1 POP GT ISZERO PUSH2 0xC23 JUMPI PUSH0 DUP1 REVERT JUMPDEST PUSH0 DUP1 DUP1 DUP1 SLOAD SWAP1 POP SWAP1 POP JUMPDEST PUSH1 0x2 DUP1 SLOAD SWAP1 POP DUP2 LT ISZERO PUSH2 0xEF1 JUMPI PUSH0 PUSH1 0x2 DUP3 DUP2 SLOAD DUP2 LT PUSH2 0xC4F JUMPI PUSH2 0xC4E PUSH2 0x16F6 JUMP JUMPDEST JUMPDEST SWAP1 PUSH0 MSTORE PUSH1 0x20 PUSH0 KECCAK256 SWAP1 PUSH1 0x2 MUL ADD PUSH1 0x1 ADD DUP1 SLOAD SWAP1 POP EQ PUSH2 0xE1B JUMPI PUSH1 0x2 DUP2 DUP2 SLOAD DUP2 LT PUSH2 0xC7B JUMPI PUSH2 0xC7A PUSH2 0x16F6 JUMP JUMPDEST JUMPDEST SWAP1 PUSH0 MSTORE PUSH1 0x20 PUSH0 KECCAK256 SWAP1 PUSH1 0x2 MUL ADD PUSH1 0x1 ADD DUP1 SLOAD SWAP1 POP PUSH1 0x2 DUP1 SLOAD SWAP1 POP TIMESTAMP PUSH2 0xC9F SWAP2 SWAP1 PUSH2 0x17F7 JUMP JUMPDEST PUSH1 0x2 DUP1 SLOAD SWAP1 POP NUMBER PUSH2 0xCB0 SWAP2 SWAP1 PUSH2 0x17F7 JUMP JUMPDEST PUSH2 0xCBA SWAP2 SWAP1 PUSH2 0x16C3 JUMP JUMPDEST PUSH2 0xCC4 SWAP2 SWAP1 PUSH2 0x1827 JUMP JUMPDEST SWAP2 POP PUSH0 PUSH1 0x2 DUP3 DUP2 SLOAD DUP2 LT PUSH2 0xCDB JUMPI PUSH2 0xCDA PUSH2 0x16F6 JUMP JUMPDEST JUMPDEST SWAP1 PUSH0 MSTORE PUSH1 0x20 PUSH0 KECCAK256 SWAP1 PUSH1 0x2 MUL ADD PUSH1 0x1 ADD DUP4 DUP2 SLOAD DUP2 LT PUSH2 0xCFC JUMPI PUSH2 0xCFB PUSH2 0x16F6 JUMP JUMPDEST JUMPDEST SWAP1 PUSH0 MSTORE PUSH1 0x20 PUSH0 KECCAK256 ADD PUSH0 SWAP1 SLOAD SWAP1 PUSH2 0x100 EXP SWAP1 DIV PUSH20 0xFFFFFFFFFFFFFFFFFFFFFFFFFFFFFFFFFFFFFFFF AND SWAP1 DUP1 PUSH1 0x1 DUP2 SLOAD ADD DUP1 DUP3 SSTORE DUP1 SWAP2 POP POP PUSH1 0x1 SWAP1 SUB SWAP1 PUSH0 MSTORE PUSH1 0x20 PUSH0 KECCAK256 ADD PUSH0 SWAP1 SWAP2 SWAP1 SWAP2 SWAP1 SWAP2 PUSH2 0x100 EXP DUP2 SLOAD DUP2 PUSH20 0xFFFFFFFFFFFFFFFFFFFFFFFFFFFFFFFFFFFFFFFF MUL NOT AND SWAP1 DUP4 PUSH20 0xFFFFFFFFFFFFFFFFFFFFFFFFFFFFFFFFFFFFFFFF AND MUL OR SWAP1 SSTORE POP PUSH32 0xC20F09C8F5012D640A5F76343B381EC2CDA38BDE00D2D177EAA02B21D449EC46 PUSH1 0x2 DUP3 DUP2 SLOAD DUP2 LT PUSH2 0xDB6 JUMPI PUSH2 0xDB5 PUSH2 0x16F6 JUMP JUMPDEST JUMPDEST SWAP1 PUSH0 MSTORE PUSH1 0x20 PUSH0 KECCAK256 SWAP1 PUSH1 0x2 MUL ADD PUSH1 0x1 ADD DUP4 DUP2 SLOAD DUP2 LT PUSH2 0xDD7 JUMPI PUSH2 0xDD6 PUSH2 0x16F6 JUMP JUMPDEST JUMPDEST SWAP1 PUSH0 MSTORE PUSH1 0x20 PUSH0 KECCAK256 ADD PUSH0 SWAP1 SLOAD SWAP1 PUSH2 0x100 EXP SWAP1 DIV PUSH20 0xFFFFFFFFFFFFFFFFFFFFFFFFFFFFFFFFFFFFFFFF AND DUP3 PUSH1 0x4 SLOAD PUSH1 0x40 MLOAD PUSH2 0xE12 SWAP4 SWAP3 SWAP2 SWAP1 PUSH2 0x1857 JUMP JUMPDEST PUSH1 0x40 MLOAD DUP1 SWAP2 SUB SWAP1 LOG1 JUMPDEST PUSH0 PUSH1 0x2 DUP3 DUP2 SLOAD DUP2 LT PUSH2 0xE30 JUMPI PUSH2 0xE2F PUSH2 0x16F6 JUMP JUMPDEST JUMPDEST SWAP1 PUSH0 MSTORE PUSH1 0x20 PUSH0 KECCAK256 SWAP1 PUSH1 0x2 MUL ADD PUSH1 0x1 ADD DUP1 SLOAD SWAP1 POP SUB PUSH2 0xEE4 JUMPI PUSH0 DUP1 DUP1 PUSH1 0x1 DUP2 SLOAD ADD DUP1 DUP3 SSTORE DUP1 SWAP2 POP POP PUSH1 0x1 SWAP1 SUB SWAP1 PUSH0 MSTORE PUSH1 0x20 PUSH0 KECCAK256 ADD PUSH0 SWAP1 SWAP2 SWAP1 SWAP2 SWAP1 SWAP2 PUSH2 0x100 EXP DUP2 SLOAD DUP2 PUSH20 0xFFFFFFFFFFFFFFFFFFFFFFFFFFFFFFFFFFFFFFFF MUL NOT AND SWAP1 DUP4 PUSH20 0xFFFFFFFFFFFFFFFFFFFFFFFFFFFFFFFFFFFFFFFF AND MUL OR SWAP1 SSTORE POP PUSH32 0xC20F09C8F5012D640A5F76343B381EC2CDA38BDE00D2D177EAA02B21D449EC46 PUSH0 DUP3 PUSH1 0x4 SLOAD PUSH1 0x40 MLOAD PUSH2 0xEDB SWAP4 SWAP3 SWAP2 SWAP1 PUSH2 0x1857 JUMP JUMPDEST PUSH1 0x40 MLOAD DUP1 SWAP2 SUB SWAP1 LOG1 JUMPDEST DUP1 DUP1 PUSH1 0x1 ADD SWAP2 POP POP PUSH2 0xC2D JUMP JUMPDEST POP POP JUMP JUMPDEST PUSH0 DUP2 DUP2 SLOAD DUP2 LT PUSH2 0xF03 JUMPI PUSH0 DUP1 REVERT JUMPDEST SWAP1 PUSH0 MSTORE PUSH1 0x20 PUSH0 KECCAK256 ADD PUSH0 SWAP2 POP SLOAD SWAP1 PUSH2 0x100 EXP SWAP1 DIV PUSH20 0xFFFFFFFFFFFFFFFFFFFFFFFFFFFFFFFFFFFFFFFF AND DUP2 JUMP JUMPDEST PUSH1 0x4 SLOAD DUP2 JUMP JUMPDEST PUSH1 0x2 DUP2 DUP2 SLOAD DUP2 LT PUSH2 0xF44 JUMPI PUSH0 DUP1 REVERT JUMPDEST SWAP1 PUSH0 MSTORE PUSH1 0x20 PUSH0 KECCAK256 SWAP1 PUSH1 0x2 MUL ADD PUSH0 SWAP2 POP SWAP1 POP DUP1 PUSH0 ADD SLOAD SWAP1 POP DUP2 JUMP JUMPDEST PUSH1 0x5 PUSH0 SWAP1 SLOAD SWAP1 PUSH2 0x100 EXP SWAP1 DIV PUSH1 0xFF AND DUP2 JUMP JUMPDEST PUSH1 0x5 PUSH1 0x1 SWAP1 SLOAD SWAP1 PUSH2 0x100 EXP SWAP1 DIV PUSH20 0xFFFFFFFFFFFFFFFFFFFFFFFFFFFFFFFFFFFFFFFF AND PUSH20 0xFFFFFFFFFFFFFFFFFFFFFFFFFFFFFFFFFFFFFFFF AND CALLER PUSH20 0xFFFFFFFFFFFFFFFFFFFFFFFFFFFFFFFFFFFFFFFF AND EQ PUSH2 0xFC9 JUMPI PUSH0 DUP1 REVERT JUMPDEST PUSH1 0x3 DUP1 DUP2 GT ISZERO PUSH2 0xFDC JUMPI PUSH2 0xFDB PUSH2 0x1580 JUMP JUMPDEST JUMPDEST PUSH1 0x5 PUSH0 SWAP1 SLOAD SWAP1 PUSH2 0x100 EXP SWAP1 DIV PUSH1 0xFF AND PUSH1 0x3 DUP2 GT ISZERO PUSH2 0xFFD JUMPI PUSH2 0xFFC PUSH2 0x1580 JUMP JUMPDEST JUMPDEST LT PUSH2 0x1006 JUMPI PUSH0 DUP1 REVERT JUMPDEST PUSH1 0x1 PUSH1 0x5 PUSH0 SWAP1 SLOAD SWAP1 PUSH2 0x100 EXP SWAP1 DIV PUSH1 0xFF AND PUSH1 0x3 DUP2 GT ISZERO PUSH2 0x1029 JUMPI PUSH2 0x1028 PUSH2 0x1580 JUMP JUMPDEST JUMPDEST PUSH2 0x1033 SWAP2 SWAP1 PUSH2 0x16C3 JUMP JUMPDEST PUSH1 0x3 DUP2 GT ISZERO PUSH2 0x1045 JUMPI PUSH2 0x1044 PUSH2 0x1580 JUMP JUMPDEST JUMPDEST PUSH1 0x5 PUSH0 PUSH2 0x100 EXP DUP2 SLOAD DUP2 PUSH1 0xFF MUL NOT AND SWAP1 DUP4 PUSH1 0x3 DUP2 GT ISZERO PUSH2 0x1068 JUMPI PUSH2 0x1067 PUSH2 0x1580 JUMP JUMPDEST JUMPDEST MUL OR SWAP1 SSTORE POP JUMP JUMPDEST PUSH1 0x1 PUSH1 0x20 MSTORE DUP1 PUSH0 MSTORE PUSH1 0x40 PUSH0 KECCAK256 PUSH0 SWAP2 POP SWAP1 POP DUP1 PUSH0 ADD SLOAD SWAP1 DUP1 PUSH1 0x1 ADD PUSH0 SWAP1 SLOAD SWAP1 PUSH2 0x100 EXP SWAP1 DIV PUSH20 0xFFFFFFFFFFFFFFFFFFFFFFFFFFFFFFFFFFFFFFFF AND SWAP1 DUP1 PUSH1 0x2 ADD SLOAD SWAP1 POP DUP4 JUMP JUMPDEST PUSH1 0x5 PUSH1 0x1 SWAP1 SLOAD SWAP1 PUSH2 0x100 EXP SWAP1 DIV PUSH20 0xFFFFFFFFFFFFFFFFFFFFFFFFFFFFFFFFFFFFFFFF AND PUSH20 0xFFFFFFFFFFFFFFFFFFFFFFFFFFFFFFFFFFFFFFFF AND CALLER PUSH20 0xFFFFFFFFFFFFFFFFFFFFFFFFFFFFFFFFFFFFFFFF AND EQ PUSH2 0x110D JUMPI PUSH0 DUP1 REVERT JUMPDEST PUSH0 PUSH1 0x3 DUP2 GT ISZERO PUSH2 0x1120 JUMPI PUSH2 0x111F PUSH2 0x1580 JUMP JUMPDEST JUMPDEST PUSH1 0x5 PUSH0 SWAP1 SLOAD SWAP1 PUSH2 0x100 EXP SWAP1 DIV PUSH1 0xFF AND PUSH1 0x3 DUP2 GT ISZERO PUSH2 0x1141 JUMPI PUSH2 0x1140 PUSH2 0x1580 JUMP JUMPDEST JUMPDEST EQ PUSH2 0x114A JUMPI PUSH0 DUP1 REVERT JUMPDEST PUSH0 JUMPDEST DUP2 DUP2 LT ISZERO PUSH2 0x120D JUMPI PUSH1 0x2 PUSH1 0x40 MLOAD DUP1 PUSH1 0x40 ADD PUSH1 0x40 MSTORE DUP1 DUP4 DUP2 MSTORE PUSH1 0x20 ADD PUSH0 PUSH8 0xFFFFFFFFFFFFFFFF DUP2 GT ISZERO PUSH2 0x1181 JUMPI PUSH2 0x1180 PUSH2 0x176A JUMP JUMPDEST JUMPDEST PUSH1 0x40 MLOAD SWAP1 DUP1 DUP3 MSTORE DUP1 PUSH1 0x20 MUL PUSH1 0x20 ADD DUP3 ADD PUSH1 0x40 MSTORE DUP1 ISZERO PUSH2 0x11AF JUMPI DUP2 PUSH1 0x20 ADD PUSH1 0x20 DUP3 MUL DUP1 CALLDATASIZE DUP4 CALLDATACOPY DUP1 DUP3 ADD SWAP2 POP POP SWAP1 POP JUMPDEST POP DUP2 MSTORE POP SWAP1 DUP1 PUSH1 0x1 DUP2 SLOAD ADD DUP1 DUP3 SSTORE DUP1 SWAP2 POP POP PUSH1 0x1 SWAP1 SUB SWAP1 PUSH0 MSTORE PUSH1 0x20 PUSH0 KECCAK256 SWAP1 PUSH1 0x2 MUL ADD PUSH0 SWAP1 SWAP2 SWAP1 SWAP2 SWAP1 SWAP2 POP PUSH0 DUP3 ADD MLOAD DUP2 PUSH0 ADD SSTORE PUSH1 0x20 DUP3 ADD MLOAD DUP2 PUSH1 0x1 ADD SWAP1 DUP1 MLOAD SWAP1 PUSH1 0x20 ADD SWAP1 PUSH2 0x11FD SWAP3 SWAP2 SWAP1 PUSH2 0x1271 JUMP JUMPDEST POP POP POP DUP1 DUP1 PUSH1 0x1 ADD SWAP2 POP POP PUSH2 0x114C JUMP JUMPDEST POP POP JUMP JUMPDEST POP DUP1 SLOAD PUSH0 DUP3 SSTORE PUSH1 0x3 MUL SWAP1 PUSH0 MSTORE PUSH1 0x20 PUSH0 KECCAK256 SWAP1 DUP2 ADD SWAP1 PUSH2 0x122F SWAP2 SWAP1 PUSH2 0x12F8 JUMP JUMPDEST POP JUMP JUMPDEST POP DUP1 SLOAD PUSH0 DUP3 SSTORE PUSH1 0x2 MUL SWAP1 PUSH0 MSTORE PUSH1 0x20 PUSH0 KECCAK256 SWAP1 DUP2 ADD SWAP1 PUSH2 0x1250 SWAP2 SWAP1 PUSH2 0x1342 JUMP JUMPDEST POP JUMP JUMPDEST POP DUP1 SLOAD PUSH0 DUP3 SSTORE SWAP1 PUSH0 MSTORE PUSH1 0x20 PUSH0 KECCAK256 SWAP1 DUP2 ADD SWAP1 PUSH2 0x126E SWAP2 SWAP1 PUSH2 0x136E JUMP JUMPDEST POP JUMP JUMPDEST DUP3 DUP1 SLOAD DUP3 DUP3 SSTORE SWAP1 PUSH0 MSTORE PUSH1 0x20 PUSH0 KECCAK256 SWAP1 DUP2 ADD SWAP3 DUP3 ISZERO PUSH2 0x12E7 JUMPI SWAP2 PUSH1 0x20 MUL DUP3 ADD JUMPDEST DUP3 DUP2 GT ISZERO PUSH2 0x12E6 JUMPI DUP3 MLOAD DUP3 PUSH0 PUSH2 0x100 EXP DUP2 SLOAD DUP2 PUSH20 0xFFFFFFFFFFFFFFFFFFFFFFFFFFFFFFFFFFFFFFFF MUL NOT AND SWAP1 DUP4 PUSH20 0xFFFFFFFFFFFFFFFFFFFFFFFFFFFFFFFFFFFFFFFF AND MUL OR SWAP1 SSTORE POP SWAP2 PUSH1 0x20 ADD SWAP2 SWAP1 PUSH1 0x1 ADD SWAP1 PUSH2 0x128F JUMP JUMPDEST JUMPDEST POP SWAP1 POP PUSH2 0x12F4 SWAP2 SWAP1 PUSH2 0x136E JUMP JUMPDEST POP SWAP1 JUMP JUMPDEST JUMPDEST DUP1 DUP3 GT ISZERO PUSH2 0x133E JUMPI PUSH0 DUP1 DUP3 ADD PUSH0 SWAP1 SSTORE PUSH1 0x1 DUP3 ADD PUSH0 PUSH2 0x100 EXP DUP2 SLOAD SWAP1 PUSH20 0xFFFFFFFFFFFFFFFFFFFFFFFFFFFFFFFFFFFFFFFF MUL NOT AND SWAP1 SSTORE PUSH1 0x2 DUP3 ADD PUSH0 SWAP1 SSTORE POP PUSH1 0x3 ADD PUSH2 0x12F9 JUMP JUMPDEST POP SWAP1 JUMP JUMPDEST JUMPDEST DUP1 DUP3 GT ISZERO PUSH2 0x136A JUMPI PUSH0 DUP1 DUP3 ADD PUSH0 SWAP1 SSTORE PUSH1 0x1 DUP3 ADD PUSH0 PUSH2 0x1361 SWAP2 SWAP1 PUSH2 0x1253 JUMP JUMPDEST POP PUSH1 0x2 ADD PUSH2 0x1343 JUMP JUMPDEST POP SWAP1 JUMP JUMPDEST JUMPDEST DUP1 DUP3 GT ISZERO PUSH2 0x1385 JUMPI PUSH0 DUP2 PUSH0 SWAP1 SSTORE POP PUSH1 0x1 ADD PUSH2 0x136F JUMP JUMPDEST POP SWAP1 JUMP JUMPDEST PUSH0 DUP2 SWAP1 POP SWAP2 SWAP1 POP JUMP JUMPDEST PUSH2 0x139B DUP2 PUSH2 0x1389 JUMP JUMPDEST DUP3 MSTORE POP POP JUMP JUMPDEST PUSH0 PUSH1 0x20 DUP3 ADD SWAP1 POP PUSH2 0x13B4 PUSH0 DUP4 ADD DUP5 PUSH2 0x1392 JUMP JUMPDEST SWAP3 SWAP2 POP POP JUMP JUMPDEST PUSH0 DUP1 REVERT JUMPDEST PUSH2 0x13C7 DUP2 PUSH2 0x1389 JUMP JUMPDEST DUP2 EQ PUSH2 0x13D1 JUMPI PUSH0 DUP1 REVERT JUMPDEST POP JUMP JUMPDEST PUSH0 DUP2 CALLDATALOAD SWAP1 POP PUSH2 0x13E2 DUP2 PUSH2 0x13BE JUMP JUMPDEST SWAP3 SWAP2 POP POP JUMP JUMPDEST PUSH0 PUSH1 0x20 DUP3 DUP5 SUB SLT ISZERO PUSH2 0x13FD JUMPI PUSH2 0x13FC PUSH2 0x13BA JUMP JUMPDEST JUMPDEST PUSH0 PUSH2 0x140A DUP5 DUP3 DUP6 ADD PUSH2 0x13D4 JUMP JUMPDEST SWAP2 POP POP SWAP3 SWAP2 POP POP JUMP JUMPDEST PUSH0 PUSH20 0xFFFFFFFFFFFFFFFFFFFFFFFFFFFFFFFFFFFFFFFF DUP3 AND SWAP1 POP SWAP2 SWAP1 POP JUMP JUMPDEST PUSH0 PUSH2 0x143C DUP3 PUSH2 0x1413 JUMP JUMPDEST SWAP1 POP SWAP2 SWAP1 POP JUMP JUMPDEST PUSH2 0x144C DUP2 PUSH2 0x1432 JUMP JUMPDEST DUP3 MSTORE POP POP JUMP JUMPDEST PUSH0 PUSH1 0x20 DUP3 ADD SWAP1 POP PUSH2 0x1465 PUSH0 DUP4 ADD DUP5 PUSH2 0x1443 JUMP JUMPDEST SWAP3 SWAP2 POP POP JUMP JUMPDEST PUSH0 DUP1 PUSH1 0x40 DUP4 DUP6 SUB SLT ISZERO PUSH2 0x1481 JUMPI PUSH2 0x1480 PUSH2 0x13BA JUMP JUMPDEST JUMPDEST PUSH0 PUSH2 0x148E DUP6 DUP3 DUP7 ADD PUSH2 0x13D4 JUMP JUMPDEST SWAP3 POP POP PUSH1 0x20 PUSH2 0x149F DUP6 DUP3 DUP7 ADD PUSH2 0x13D4 JUMP JUMPDEST SWAP2 POP POP SWAP3 POP SWAP3 SWAP1 POP JUMP JUMPDEST PUSH0 DUP2 MLOAD SWAP1 POP SWAP2 SWAP1 POP JUMP JUMPDEST PUSH0 DUP3 DUP3 MSTORE PUSH1 0x20 DUP3 ADD SWAP1 POP SWAP3 SWAP2 POP POP JUMP JUMPDEST PUSH0 DUP2 SWAP1 POP PUSH1 0x20 DUP3 ADD SWAP1 POP SWAP2 SWAP1 POP JUMP JUMPDEST PUSH2 0x14DB DUP2 PUSH2 0x1432 JUMP JUMPDEST DUP3 MSTORE POP POP JUMP JUMPDEST PUSH0 PUSH2 0x14EC DUP4 DUP4 PUSH2 0x14D2 JUMP JUMPDEST PUSH1 0x20 DUP4 ADD SWAP1 POP SWAP3 SWAP2 POP POP JUMP JUMPDEST PUSH0 PUSH1 0x20 DUP3 ADD SWAP1 POP SWAP2 SWAP1 POP JUMP JUMPDEST PUSH0 PUSH2 0x150E DUP3 PUSH2 0x14A9 JUMP JUMPDEST PUSH2 0x1518 DUP2 DUP6 PUSH2 0x14B3 JUMP JUMPDEST SWAP4 POP PUSH2 0x1523 DUP4 PUSH2 0x14C3 JUMP JUMPDEST DUP1 PUSH0 JUMPDEST DUP4 DUP2 LT ISZERO PUSH2 0x1553 JUMPI DUP2 MLOAD PUSH2 0x153A DUP9 DUP3 PUSH2 0x14E1 JUMP JUMPDEST SWAP8 POP PUSH2 0x1545 DUP4 PUSH2 0x14F8 JUMP JUMPDEST SWAP3 POP POP PUSH1 0x1 DUP2 ADD SWAP1 POP PUSH2 0x1526 JUMP JUMPDEST POP DUP6 SWAP4 POP POP POP POP SWAP3 SWAP2 POP POP JUMP JUMPDEST PUSH0 PUSH1 0x20 DUP3 ADD SWAP1 POP DUP2 DUP2 SUB PUSH0 DUP4 ADD MSTORE PUSH2 0x1578 DUP2 DUP5 PUSH2 0x1504 JUMP JUMPDEST SWAP1 POP SWAP3 SWAP2 POP POP JUMP JUMPDEST PUSH32 0x4E487B7100000000000000000000000000000000000000000000000000000000 PUSH0 MSTORE PUSH1 0x21 PUSH1 0x4 MSTORE PUSH1 0x24 PUSH0 REVERT JUMPDEST PUSH1 0x4 DUP2 LT PUSH2 0x15BE JUMPI PUSH2 0x15BD PUSH2 0x1580 JUMP JUMPDEST JUMPDEST POP JUMP JUMPDEST PUSH0 DUP2 SWAP1 POP PUSH2 0x15CE DUP3 PUSH2 0x15AD JUMP JUMPDEST SWAP2 SWAP1 POP JUMP JUMPDEST PUSH0 PUSH2 0x15DD DUP3 PUSH2 0x15C1 JUMP JUMPDEST SWAP1 POP SWAP2 SWAP1 POP JUMP JUMPDEST PUSH2 0x15ED DUP2 PUSH2 0x15D3 JUMP JUMPDEST DUP3 MSTORE POP POP JUMP JUMPDEST PUSH0 PUSH1 0x20 DUP3 ADD SWAP1 POP PUSH2 0x1606 PUSH0 DUP4 ADD DUP5 PUSH2 0x15E4 JUMP JUMPDEST SWAP3 SWAP2 POP POP JUMP JUMPDEST PUSH2 0x1615 DUP2 PUSH2 0x1432 JUMP JUMPDEST DUP2 EQ PUSH2 0x161F JUMPI PUSH0 DUP1 REVERT JUMPDEST POP JUMP JUMPDEST PUSH0 DUP2 CALLDATALOAD SWAP1 POP PUSH2 0x1630 DUP2 PUSH2 0x160C JUMP JUMPDEST SWAP3 SWAP2 POP POP JUMP JUMPDEST PUSH0 PUSH1 0x20 DUP3 DUP5 SUB SLT ISZERO PUSH2 0x164B JUMPI PUSH2 0x164A PUSH2 0x13BA JUMP JUMPDEST JUMPDEST PUSH0 PUSH2 0x1658 DUP5 DUP3 DUP6 ADD PUSH2 0x1622 JUMP JUMPDEST SWAP2 POP POP SWAP3 SWAP2 POP POP JUMP JUMPDEST PUSH0 PUSH1 0x60 DUP3 ADD SWAP1 POP PUSH2 0x1674 PUSH0 DUP4 ADD DUP7 PUSH2 0x1392 JUMP JUMPDEST PUSH2 0x1681 PUSH1 0x20 DUP4 ADD DUP6 PUSH2 0x1443 JUMP JUMPDEST PUSH2 0x168E PUSH1 0x40 DUP4 ADD DUP5 PUSH2 0x1392 JUMP JUMPDEST SWAP5 SWAP4 POP POP POP POP JUMP JUMPDEST PUSH32 0x4E487B7100000000000000000000000000000000000000000000000000000000 PUSH0 MSTORE PUSH1 0x11 PUSH1 0x4 MSTORE PUSH1 0x24 PUSH0 REVERT JUMPDEST PUSH0 PUSH2 0x16CD DUP3 PUSH2 0x1389 JUMP JUMPDEST SWAP2 POP PUSH2 0x16D8 DUP4 PUSH2 0x1389 JUMP JUMPDEST SWAP3 POP DUP3 DUP3 ADD SWAP1 POP DUP1 DUP3 GT ISZERO PUSH2 0x16F0 JUMPI PUSH2 0x16EF PUSH2 0x1696 JUMP JUMPDEST JUMPDEST SWAP3 SWAP2 POP POP JUMP JUMPDEST PUSH32 0x4E487B7100000000000000000000000000000000000000000000000000000000 PUSH0 MSTORE PUSH1 0x32 PUSH1 0x4 MSTORE PUSH1 0x24 PUSH0 REVERT JUMPDEST PUSH0 PUSH2 0x172D DUP3 PUSH2 0x1389 JUMP JUMPDEST SWAP2 POP PUSH32 0xFFFFFFFFFFFFFFFFFFFFFFFFFFFFFFFFFFFFFFFFFFFFFFFFFFFFFFFFFFFFFFFF DUP3 SUB PUSH2 0x175F JUMPI PUSH2 0x175E PUSH2 0x1696 JUMP JUMPDEST JUMPDEST PUSH1 0x1 DUP3 ADD SWAP1 POP SWAP2 SWAP1 POP JUMP JUMPDEST PUSH32 0x4E487B7100000000000000000000000000000000000000000000000000000000 PUSH0 MSTORE PUSH1 0x41 PUSH1 0x4 MSTORE PUSH1 0x24 PUSH0 REVERT JUMPDEST PUSH0 PUSH2 0x17A1 DUP3 PUSH2 0x1389 JUMP JUMPDEST SWAP2 POP PUSH2 0x17AC DUP4 PUSH2 0x1389 JUMP JUMPDEST SWAP3 POP DUP3 DUP3 SUB SWAP1 POP DUP2 DUP2 GT ISZERO PUSH2 0x17C4 JUMPI PUSH2 0x17C3 PUSH2 0x1696 JUMP JUMPDEST JUMPDEST SWAP3 SWAP2 POP POP JUMP JUMPDEST PUSH32 0x4E487B7100000000000000000000000000000000000000000000000000000000 PUSH0 MSTORE PUSH1 0x12 PUSH1 0x4 MSTORE PUSH1 0x24 PUSH0 REVERT JUMPDEST PUSH0 PUSH2 0x1801 DUP3 PUSH2 0x1389 JUMP JUMPDEST SWAP2 POP PUSH2 0x180C DUP4 PUSH2 0x1389 JUMP JUMPDEST SWAP3 POP DUP3 PUSH2 0x181C JUMPI PUSH2 0x181B PUSH2 0x17CA JUMP JUMPDEST JUMPDEST DUP3 DUP3 DIV SWAP1 POP SWAP3 SWAP2 POP POP JUMP JUMPDEST PUSH0 PUSH2 0x1831 DUP3 PUSH2 0x1389 JUMP JUMPDEST SWAP2 POP PUSH2 0x183C DUP4 PUSH2 0x1389 JUMP JUMPDEST SWAP3 POP DUP3 PUSH2 0x184C JUMPI PUSH2 0x184B PUSH2 0x17CA JUMP JUMPDEST JUMPDEST DUP3 DUP3 MOD SWAP1 POP SWAP3 SWAP2 POP POP JUMP JUMPDEST PUSH0 PUSH1 0x60 DUP3 ADD SWAP1 POP PUSH2 0x186A PUSH0 DUP4 ADD DUP7 PUSH2 0x1443 JUMP JUMPDEST PUSH2 0x1877 PUSH1 0x20 DUP4 ADD DUP6 PUSH2 0x1392 JUMP JUMPDEST PUSH2 0x1884 PUSH1 0x40 DUP4 ADD DUP5 PUSH2 0x1392 JUMP JUMPDEST SWAP5 SWAP4 POP POP POP POP JUMP INVALID LOG2 PUSH5 0x6970667358 0x22 SLT KECCAK256 AND 0x5C CODESIZE 0xD5 0xC 0xE4 0xD6 SWAP11 PUSH0 0xC6 0x22 SLT 0xE0 PUSH14 0xB53C897F205B7D4BDAA361B9F176 DIV 0xB6 MSTORE PUSH7 0x64736F6C634300 ADDMOD AND STOP CALLER "
				},
				"gasEstimates": {
					"creation": {
						"codeDepositCost": "1267600",
						"executionCost": "infinite",
						"totalCost": "infinite"
					},
					"external": {
						"addMoreItems(uint256)": "infinite",
						"advanceStage()": "infinite",
						"amountOfItems()": "2464",
						"beneficiary()": "2582",
						"bid(uint256,uint256)": "infinite",
						"items(uint256)": "infinite",
						"lotteryNumber()": "2492",
						"register()": "infinite",
						"reset(uint256)": "infinite",
						"revealWinners()": "infinite",
						"stage()": "2576",
						"tokenDetails(address)": "infinite",
						"winnerGetter()": "infinite",
						"winners(uint256)": "4988",
						"withdraw()": "infinite"
					}
				},
				"methodIdentifiers": {
					"addMoreItems(uint256)": "ddc48f7f",
					"advanceStage()": "c33f48fd",
					"amountOfItems()": "08704df2",
					"beneficiary()": "38af3eed",
					"bid(uint256,uint256)": "598647f8",
					"items(uint256)": "bfb231d2",
					"lotteryNumber()": "aa103e44",
					"register()": "1aa3a008",
					"reset(uint256)": "310bd74b",
					"revealWinners()": "952587d6",
					"stage()": "c040e6b8",
					"tokenDetails(address)": "dd4be683",
					"winnerGetter()": "66235486",
					"winners(uint256)": "a2fb1175",
					"withdraw()": "3ccfd60b"
				}
			},
			"storageLayout": {
				"storage": [
					{
						"astId": 22,
						"contract": "Lottery.sol:Lottery",
						"label": "winners",
						"offset": 0,
						"slot": "0",
						"type": "t_array(t_address)dyn_storage"
					},
					{
						"astId": 27,
						"contract": "Lottery.sol:Lottery",
						"label": "tokenDetails",
						"offset": 0,
						"slot": "1",
						"type": "t_mapping(t_address,t_struct(Person)14_storage)"
					},
					{
						"astId": 31,
						"contract": "Lottery.sol:Lottery",
						"label": "items",
						"offset": 0,
						"slot": "2",
						"type": "t_array(t_struct(Item)7_storage)dyn_storage"
					},
					{
						"astId": 35,
						"contract": "Lottery.sol:Lottery",
						"label": "bidders",
						"offset": 0,
						"slot": "3",
						"type": "t_array(t_struct(Person)14_storage)dyn_storage"
					},
					{
						"astId": 38,
						"contract": "Lottery.sol:Lottery",
						"label": "lotteryNumber",
						"offset": 0,
						"slot": "4",
						"type": "t_uint256"
					},
					{
						"astId": 43,
						"contract": "Lottery.sol:Lottery",
						"label": "stage",
						"offset": 0,
						"slot": "5",
						"type": "t_enum(Stage)19"
					},
					{
						"astId": 45,
						"contract": "Lottery.sol:Lottery",
						"label": "beneficiary",
						"offset": 1,
						"slot": "5",
						"type": "t_address"
					},
					{
						"astId": 59,
						"contract": "Lottery.sol:Lottery",
						"label": "bidderCount",
						"offset": 0,
						"slot": "6",
						"type": "t_uint256"
					}
				],
				"types": {
					"t_address": {
						"encoding": "inplace",
						"label": "address",
						"numberOfBytes": "20"
					},
					"t_array(t_address)dyn_storage": {
						"base": "t_address",
						"encoding": "dynamic_array",
						"label": "address[]",
						"numberOfBytes": "32"
					},
					"t_array(t_struct(Item)7_storage)dyn_storage": {
						"base": "t_struct(Item)7_storage",
						"encoding": "dynamic_array",
						"label": "struct Item[]",
						"numberOfBytes": "32"
					},
					"t_array(t_struct(Person)14_storage)dyn_storage": {
						"base": "t_struct(Person)14_storage",
						"encoding": "dynamic_array",
						"label": "struct Person[]",
						"numberOfBytes": "32"
					},
					"t_enum(Stage)19": {
						"encoding": "inplace",
						"label": "enum Stage",
						"numberOfBytes": "1"
					},
					"t_mapping(t_address,t_struct(Person)14_storage)": {
						"encoding": "mapping",
						"key": "t_address",
						"label": "mapping(address => struct Person)",
						"numberOfBytes": "32",
						"value": "t_struct(Person)14_storage"
					},
					"t_struct(Item)7_storage": {
						"encoding": "inplace",
						"label": "struct Item",
						"members": [
							{
								"astId": 3,
								"contract": "Lottery.sol:Lottery",
								"label": "itemId",
								"offset": 0,
								"slot": "0",
								"type": "t_uint256"
							},
							{
								"astId": 6,
								"contract": "Lottery.sol:Lottery",
								"label": "itemTokens",
								"offset": 0,
								"slot": "1",
								"type": "t_array(t_address)dyn_storage"
							}
						],
						"numberOfBytes": "64"
					},
					"t_struct(Person)14_storage": {
						"encoding": "inplace",
						"label": "struct Person",
						"members": [
							{
								"astId": 9,
								"contract": "Lottery.sol:Lottery",
								"label": "personId",
								"offset": 0,
								"slot": "0",
								"type": "t_uint256"
							},
							{
								"astId": 11,
								"contract": "Lottery.sol:Lottery",
								"label": "addr",
								"offset": 0,
								"slot": "1",
								"type": "t_address"
							},
							{
								"astId": 13,
								"contract": "Lottery.sol:Lottery",
								"label": "remainingTokens",
								"offset": 0,
								"slot": "2",
								"type": "t_uint256"
							}
						],
						"numberOfBytes": "96"
					},
					"t_uint256": {
						"encoding": "inplace",
						"label": "uint256",
						"numberOfBytes": "32"
					}
				}
			},
			"userdoc": {
				"kind": "user",
				"methods": {},
				"version": 1
			}
		}
	}
}